:100000000C94F7000C94900F0C9414010C941401B0
:100010000C9414010C9414010C9414010C9414010C
:100020000C9414010C9414010C9414010C941401FC
:100030000C9414010C9414010C9414010C941401EC
:100040000C94FA100C9414010C9414010C941401E7
:100050000C945E110C9414010C9452110C94140124
:100060000C9414010C9414010C9414010C941401BC
:100070000C9498110C9414010C948C116E726632CD
:10008000346C30315F70726F63657373206E6F74A0
:1000900020726563656976696E672066756E637444
:1000A000696F6E0A006E726632346C30315F696F50
:1000B00063746C2C2072783D307825780A006E725B
:1000C0006632346C30315F696F63746C2C207478E5
:1000D0003D307825780A000A6E726632346C303111
:1000E0005F696E697420656E640A000A206E72662C
:1000F00032346C30315F696E69742073746172746C
:100100002C206D6F64653A202564200A00726632E7
:1001100033303A20426164204352430A007266320F
:10012000333020696E7465726E616C206F6E202DA5
:100130002C2073746174653A307825780A007266F1
:1001400032333020696E7465726E616C206F6E2080
:100150002B0A00726632333020696E7465726E61EC
:100160006C206F6E202D2C2073746174653A30788A
:1001700025780A00726632333020696E7465726EBB
:10018000616C206F66660A0074785F726573756CC7
:10019000743D307825780A00706F776572203D20B5
:1001A000307825780A006661696C65642C20746F6C
:1001B00074616C5F6C656E3D256420627974657353
:1001C0000A000A726632346C30315F6F6E0A007258
:1001D000663233305F6F66660A002E006E726632DA
:1001E000346C30315F7761697469646C6500112427
:1001F0001FBECFEFD0E1DEBFCDBF13E0A0E0B1E086
:10020000E0E8F0E402C005900D92A030B107D9F704
:1002100016E0A0E0B3E001C01D92A73FB107E1F7EF
:100220000E94AE0A0C943E200C94000080919F0125
:100230009091A001DC010D900020E9F71197A81B17
:10024000B90B009719F420E030E005C06A2F0E9436
:10025000621021E030E0C90108958091A8019091D9
:10026000A901DC010D900020E9F71197A81BB90B3B
:10027000009719F420E030E005C06A2F0E94621058
:1002800021E030E0C901089580919101909192019F
:10029000DC010D900020E9F71197A81BB90B00971E
:1002A00031F06A2F0E9462100E942D0108950E9471
:1002B00016010895FF920F931F930E94D603F82E04
:1002C0000E94A803792F282F392F21153105C9F055
:1002D00088E28F15B0F000E013E0F80111928A95E2
:1002E000E9F74F2D50E0622FC8010E94A31CF09245
:1002F0002803A801609152038BE591E00E94CF078B
:1003000004C080E091E00E94F71C1F910F91FF90C4
:100310000895AF92BF92DF92EF92FF920F931F93D7
:10032000DF93CF9300D00F92CDB7DEB75C01DC0135
:100330008D919C91009729F08F3D910509F005C1A1
:100340003EC081E0898380E191E00E94F71C0E9419
:1003500079100E947A0680935203E9E2F3E088E282
:10036000DF01982F1D929A95E9F7B997DF011D9249
:100370008A95E9F7E0911E02F0911F0241E050E0FA
:10038000BE016F5F7F4F80E090E0099563E08AE7F0
:1003900091E00E94BC0243E951E060E870E08BE527
:1003A00093E00E9472056DE770E083E593E00E94A0
:1003B0006E0A8FED90E0F501918380830DC08091EE
:1003C0005203681711F410E009C083E593E00E941E
:1003D0000709182F882311F481E0BBC083E593E05F
:1003E0000E94630A112309F493C00E941D10882300
:1003F000D1F288E2E9E2F3E0DF011D928A95E9F7A4
:1004000010E00E9426108A838A818F3F29F484E2BB
:1004100091E00E94F71CC7CF8A81E12FF0E0E05005
:10042000FD4F81A78A818D3009F070C00E9426108F
:100430008A831F5F8A81E12FF0E0E050FD4F81A7A2
:100440008A818A3009F062C0133008F45CC0D12E72
:10045000D3948A81ED2DF0E0E050FD4F81A780918B
:100460002903813409F04FC080912A03843509F0B3
:100470004AC080912B038A3229F5D09251031B8206
:10048000E0901E02F0901F028E010D5F1F4F41E0B1
:1004900050E0B80180E090E0F70109956D2D70E023
:1004A00089E293E00E9417058BE593E00E946105C5
:1004B00081E08B8341E050E0B80180E090E0F701FB
:1004C000099571CF8B3211F08D30E9F46D2D70E00C
:1004D00089E293E00E94CD028C010097A1F09F93E6
:1004E0008F938FE391E09F938F930E94BC1CC80170
:1004F0000E9413030E94E4020F900F900F900F9040
:10050000019709F450CF0E9416014DCF1F5F79CF9C
:1005100000E013E01F930F938091280390E09F93D6
:100520008F9383E491E09F938F930E94BC1C609112
:100530002803C8010E946210EDB7FEB736960FB6C9
:10054000F894FEBF0FBEEDBF2ECFD5011D921C92B9
:1005500083E00F900F900F90CF91DF911F910F913B
:10056000FF90EF90DF90BF90AF900895E0E0F0E053
:10057000099581E090E00895009759F0662349F0CD
:100580009093FA058093F9056093660321E030E0CB
:1005900002C020E030E0C9010895FC010EC0908146
:1005A000892F8F5F823030F09D3021F09A3011F02A
:1005B000903241F43196615070406115710579F7C0
:1005C000E0E0F0E0CF010895EF92FF920F931F93C8
:1005D000CF93DF9300916603E090CE05F090CF05B6
:1005E000C091F905D091FA0510E011C0B7018881DA
:1005F00099810E94B31C009741F4EA81FB813097F6
:1006000021F0099521E030E006C01F5F2496101705
:1006100068F320E030E0C901DF91CF911F910F9185
:10062000FF90EF9008959C01009719F420E030E0CE
:1006300051C08BE2EEECF5E0DF011D928A95E9F7FF
:10064000D901A9014F5F5F4F03C011964F5F5F4F04
:100650008C918D3339F41C923093CF052093CE05C5
:100660009A01F3CF8C3291F41C928091D005E82F3F
:10067000FF27E7FDF095EE0FFF1FE253FA4F34839B
:1006800023838F5F8093D0059A01DFCF882311F0F9
:100690008D30D9F61C922A173B07D1F08091CE05F8
:1006A0009091CF05892B29F43093CF052093CE0567
:1006B0000FC08091D005E82FFF27E7FDF095EE0FE2
:1006C000FF1FE253FA4F348323838F5F8093D0055B
:1006D00021E030E0C901089585E180936B0308951E
:1006E000AC0120916B03822F90E04817590734F436
:1006F000241B20936B0321E030E004C010926B03B5
:1007000020E030E0C90108954091670350916803EB
:100710009C014817590718F420E030E012C080917E
:10072000690390916A03820F931F90936A038093E9
:100730006903421B530B509368034093670321E006
:1007400030E0C9010895909368038093670308958A
:100750008091690390916A0345962091AA01309196
:10076000AB01280F391FC901089580916B032091B7
:10077000AA013091AB01280F311DC901089540E055
:1007800050E08091AA019091AB01459620916C03B5
:1007900030916D032817390711F041E050E0CA018C
:1007A000089580916C0390916D0308958091670383
:1007B00090916803089590916B0385E1891B0895DA
:1007C00085E190916B03891B209167033091680349
:1007D000280F311DC9010895E82FF0E0EE0FFF1F2B
:1007E000ED5FF94F7183608381E090E00895E82F19
:1007F000F0E0EE0FFF1FED5FF94F808191810895CA
:10080000282F30E0220F331F2D523A4FC90108958F
:1008100090E0880F991F8D529A4F0E943D0581E00C
:1008200090E00895E3E0F6E01192119286E0EB3259
:10083000F807D1F76CEA71E08BEF95E00E943D0577
:100840006CEA71E08DEF95E00E943D056CEA71E085
:100850008FEF95E00E943D056CEA71E081E096E043
:100860000E943D05089510926A0310926903109248
:1008700068031092670385E180936B038091AA015E
:100880009091AB01459690936D0380936C030E9409
:1008900012040895EF92FF920F931F938C017B0136
:1008A0000E94330410936D0300936C03F09268036D
:1008B000E09267031F910F91FF90EF900895A3E0DE
:1008C000B6E0FC0188E201900D928150E1F7ABEFB8
:1008D000B5E0FB0188E001900D928150E1F70895A9
:1008E000DC01E3E0F6E088E201900D928150E1F74F
:1008F000DB01EBEFF5E088E001900D928150E1F72C
:100900000895EF92FF920F931F937C0180916B03E8
:1009100090E005E110E0B801681B790B2091AA0175
:100920003091AB01280F391FAB01B901C7010E94FB
:10093000A31C80916B03081B11090E0D1F1D209134
:100940006C0330916D038091690390916A03280FC5
:10095000391F4091670350916803B901C8010E9493
:10096000A31C20916703309168032B5E3F4F809159
:100970006B03281B3109C9011F910F91FF90EF9064
:1009800008950F931F9320916B0330E005E110E071
:10099000B801621B730BE091AA01F091AB01E20F69
:1009A000F31FAB01BF010E94A31C80916B03081BC6
:1009B0001109C8011F910F91089520916C03309186
:1009C0006D036091AA017091AB01FB0175962E1722
:1009D0003F0749F04091670350916803B901CF0187
:1009E0000E94A31C08958091690390916A03009767
:1009F000E9F040916703509168034B5E5F4FDB0164
:100A0000A80FB91F25E130E009C0FB01E20FF31F79
:100A100054968C91549780832F5F3F4F11962417E3
:100A200035079CF310926A03109269030895EF92C0
:100A3000FF920F931F93F82EE92E162F072F0E9477
:100A40003304212F302FC9018C018138910510F01A
:100A500000E810E0A8016F2D7E2D80916C0390912D
:100A60006D030E94A31C1093680300936703C801E1
:100A70001F910F91FF90EF900895DC01FB018081A1
:100A80008C93818111968C930895FC01DB019081F8
:100A90008C91981719F020E030E009C020E0918196
:100AA00011968C91981321E081E0282730E0C9014C
:100AB0000895FC01808180932B06818180932C0610
:100AC00008950F931F938C016BE276E084E10E94FE
:100AD0000804C8010E94BF051F910F9108950E944C
:100AE000C2050895CF92DF92EF92FF920F931F936A
:100AF0008C016B017A014EEA51E00E94C505F801B4
:100B0000F286E18660EB71E0C6010E9460061F91EB
:100B10000F91FF90EF90DF90CF900895EF92FF92AA
:100B20000F931F93DF93CF9300D0CDB7DEB78C0127
:100B300084E10E940004BC017E010894E11CF11CC8
:100B4000C7010E943D05D8011996ED91FC911A97B5
:100B50000190F081E02DB701C80109950F900F9029
:100B6000CF91DF911F910F91FF90EF900895FC01BD
:100B7000A781B0852D913C91F901099508950E94B6
:100B8000F10508950E9451060895CF92DF92EF92E9
:100B9000FF920F931F938C016B017A010E945706FD
:100BA000F801F086E78264EB71E0C6010E946006FE
:100BB0001F910F91FF90EF90DF90CF900895E091FB
:100BC0000404F0910504309741F00480F581E02D94
:100BD000309719F009959C0102C020E030E0C9016E
:100BE00008950F931F93CF93DF93EC01E0910404DA
:100BF000F09105043097A9F00280F381E02D09956A
:100C00008C016A817B8181E00E94EC03012B49F019
:100C10000E94401220E030E0892B29F421E030E0EE
:100C200002C020E030E0C901DF91CF911F910F9108
:100C30000895CF93DF93E0910404F0910504309779
:100C400079F00190F081E02D0995EC01009741F0D9
:100C50006A817B8181E00E94EC03CE010E94B7058E
:100C6000DF91CF91089590930504809304040E942E
:100C700075060895CF93DF93EC0186E094E00E941F
:100C80004208FC0108C0828193818C179D0729F0DE
:100C90000190F081E02D3097B1F7CF01DF91CF9136
:100CA0000895BC0186E094E00E94B8080895FC0114
:100CB00073836283BC0186E094E00E945E0808951D
:100CC0000F931F93CF93DF938B010E943A06EC01A1
:100CD000009731F01D830C83C8010E94DF058E83CD
:100CE000DF91CF911F910F91089586E094E00E94CB
:100CF0003E080895809114048F5F809314048150FE
:100D000008951F93CF93DF93EC01162F888580FF02
:100D10001CC0EC81FD813097C1F0D0930B04C093CF
:100D20000A0482E08887CE0106960995992787FDF7
:100D300090950297029710F0133829F4BE01CE0166
:100D40000E94A90602C081E08887DF91CF911F91A0
:100D50000895CF92DF92EF92FF920F931F93CF935C
:100D6000DF938C017B01C0900A04D0900B04DC015E
:100D700018968C911897882341F118961C92C0916F
:100D80000804D09109040BC00C171D0729F0A80115
:100D900067E8CE010E9481060990D881C02D209776
:100DA00099F7D8011496ED91FC911597309769F059
:100DB0000E151F0551F010930B0400930A0440E038
:100DC00050E063E8C80106960995E0910804F091A7
:100DD00009040E171F07A1F4F801808191819093F7
:100DE0000904809308040EC08081918180179107C7
:100DF00031F4D8018D919C919183808303C0FC01D3
:100E0000309791F7D0920B04C0920A04DF91CF91F2
:100E10001F910F91FF90EF90DF90CF900895609118
:100E20000A0470910B040E94A90608958AE8809331
:100E300014041092160410921504109209041092D2
:100E4000080410920B0410920A0408951F93CF9384
:100E5000DF938091B7048823C1F01092B704C0914A
:100E60000804D091090411E00EC08985882341F05F
:100E70001887198640E050E062E8CE010E948106A2
:100E80000990D881C02D209781F720911504222345
:100E900009F470C08091160490E0FC01EE0FFF1F72
:100EA000EE0FFF1FE80FF91FE95EFB4F60816093B3
:100EB0001304418152815093120440931104038022
:100EC000F481E02DF0931004E0930F0401968F71EC
:100ED000907080931604215020931504309709F0E8
:100EE00042C0809108049091090490930E0480936D
:100EF0000D0411E031C08091B7048823B9F010923D
:100F0000B704C0910804D09109040EC089858823D4
:100F100041F01887198640E050E062E8CE010E9457
:100F200081060990D881C02D209781F74091110446
:100F3000509112046091130480910D0490910E045D
:100F40000E948106E0910D04F0910E048081918150
:100F500090930E0480930D0480910D0490910E04E3
:100F6000892B49F607C0613811F481E08087CF01F1
:100F70000E9481068091B7042091150430E0280F6B
:100F8000311DC901DF91CF911F9108958091B70460
:100F90002091150430E0280F311DC9010895DC01AE
:100FA00020911504203219F421E030E01AC080911C
:100FB0001604820F8F7180930C0490E0FC01EE0FF9
:100FC000FF1FEE0FFF1FE80FF91FE95EFB4F608365
:100FD00052834183B483A3832F5F2093150420E0C1
:100FE00030E0C90108950F931F9300910A041091F6
:100FF0000B040E94810610930B0400930A041F91B6
:101000000F910895DC014091080450910904CA0130
:10101000FC0103C00190F081E02DEA17FB07B9F055
:101020003097C1F74C9311965C931197B0930904D4
:10103000A093080481E018968C93189717961C9239
:101040001E921697AB0161E8CD010E94F307089547
:10105000FC01009741F080858150823020F481E0CE
:1010600081878093B704089520E030E0FC018085FB
:10107000882311F021E030E0C9010895FC011182BC
:1010800010820895FC01808191810895FC01DB01AB
:101090008D919C91918380830895FC010190F08152
:1010A000E02D309719F420E030E006C09F01019058
:1010B000F081E02D3097D1F7C9010895CF93DF93E8
:1010C000EC01DB0111961C921E9288819981009798
:1010D00051F0FC01CF010190F081E02D3097D1F764
:1010E000FC01009719F46883798302C0B183A0835F
:1010F000DF91CF910895DC01FB018D919C911197B7
:10110000918380836D937C930895CF93DF93EC015B
:10111000E881F981309719F420E030E019C0DF014F
:1011200080819181892B21F4198218829F0110C03E
:101130002C9111963C911197AD01C901DC018D9163
:101140009C911197892BA1F7FA01118210829D01C0
:10115000C901DF91CF910895DC01ED91FC911197C8
:10116000309721F0808191818D939C93CF010895D8
:10117000CF93DF93EC012881398121153105D1F01E
:10118000F901A0E0B0E014C0E617F70761F4808130
:101190009181109719F49983888302C08D939C9351
:1011A0001182108207C0DF01808191819C01F901C9
:1011B000309751F7DF91CF910895FC010190F081B4
:1011C000E02D20E030E005C02F5F3F4F0190F0811F
:1011D000E02D3097C9F7C9010895CF93DF93EC0153
:1011E000FB01DA016115710541F48881998111963D
:1011F0009C938E935983488307C080819181119677
:101200009C938E9351834083DF91CF91089520E08A
:1012100030E0FC0186819781892B11F421E030E0D8
:10122000C9010895FC012281338180819181280FB9
:10123000391FC9010895FC01808191810895209191
:10124000B8043091B9042115310511F021E030E0E6
:10125000C90108958091B8049091B904892B19F4BB
:1012600020E030E004C02091BA043091BB04C901F1
:1012700008958091B8049091B904892B29F41092B3
:10128000BB041092BA0408950E94AC10BC01E09116
:10129000B804F091B9044281538180819181480F53
:1012A000591F461B570B0CC02281338180819181CD
:1012B000280F391F261B370B2417350708F4A901FF
:1012C0000480F581E02D309779F7460F571F509332
:1012D000BB044093BA040895CF93DF93EC01E091EF
:1012E000B804F091B9048E179F0741F48C819D8159
:1012F0009093B9048093B80414C0FC01309731F086
:10130000848195818C179D07C1F707C01D821C82BF
:101310001F821E82DF91CF9108958C819D819583DC
:1013200084830E943909F2CFFC0180819181860F6C
:10133000971F918380830E943909089582EC91E080
:101340000E9428080895EF92FF920F931F93CF9366
:10135000DF937C01FC0180819181009729F08A351F
:10136000910509F06DC00BC01092B9041092B80439
:101370008AE590E0F7019183808381E065C067385A
:1013800049F59A01E091B804F091B90403C00480D2
:10139000F581E02D309741F386819781821793077D
:1013A000B1F3E093B804F093B9040FC016968D9191
:1013B0009C9117978217930711F0FD0106C01496B0
:1013C0008D919C91159795838483A481B581109705
:1013D00069F7CECF623861F6C091B804D091B904F4
:1013E00000E010E02AC0CE010E94B617892B01F15F
:1013F000AE0168E88E819F810E94CF07892BA1F4FE
:101400001F821E828C819D810115110521F0F8013A
:101410009583848304C09093B9048093B8041D829B
:101420001C820E943909D8CF82EC91E00E942808E2
:101430008E018C819D819C01E9012097A1F698CFB6
:10144000F7011182108283E0DF91CF911F910F91FC
:10145000FF90EF900895CF93DF93EC0182EC91E041
:101460000E9428088E819F81892B69F0E091B80441
:10147000F091B90406C0EC17FD07A9F00480F581CE
:10148000E02D3097C1F780910A0490910B049F835F
:101490008E838091B8049091B9049D838C83D093FE
:1014A000B904C093B8040E943909DF91CF9108951F
:1014B0000F931F938C010E94CD17C8010E942B0A25
:1014C0001F910F9108950F931F938C010E949717FE
:1014D000C8010E942B0A1F910F9108950F931F932B
:1014E0008C010E94D817C8010E942B0A1F910F91EE
:1014F0000895DF93CF9300D0CDB7DEB746E06CE020
:1015000080E00E94C61180E00E9437120E94901075
:101510008CEC91E09F938F9388ED91E09F938F9354
:101520000E94BC1C0E94160780E00E94E70C84E128
:1015300092E00E9447170E947C121A8219820E9430
:101540006B1785E691E00E9488170F900F900F901F
:101550000F900F900F90CF91DF9108950E94790A1C
:101560000E942607FDCF80E008955D988EBD0DB4E2
:1015700007FEFDCF8EB51EBC0DB407FEFDCF8EB5A8
:101580005D9A08955D988EBD0DB407FEFDCF8EB5B2
:101590001EBC0DB407FEFDCF8EB55D9A862390E08C
:1015A00002C0959587954A95E2F70895DF93CF930A
:1015B0000F92CDB7DEB7582F5D988EBD0DB407FEE4
:1015C000FDCF8EB51EBC0DB407FEFDCF8EB55D9A66
:1015D00089839981862F80958923898339815D98B4
:1015E0005EBD0DB407FEFDCF8EB5822F90E002C028
:1015F000880F991F4A95E2F76823362B3EBD0DB43C
:1016000007FEFDCF8EB55D9A0F90CF91DF910895C3
:101610009093D5048093D40408951092F70108950F
:101620000895282F843008F023E041E066E086E04A
:101630000E94D60A08955D9886E08EBD0DB407FE1F
:10164000FDCF8EB51EBC0DB407FEFDCF8EB55D9AE5
:101650008670869590E00895CF93DF93EC018881A2
:101660009981009721F08C589240E9F405C08CE8EC
:1016700092E09983888302C0623811F081E016C03D
:10168000E091D404F091D504309721F084E192E008
:101690000995EDCF8CE790E09F938F930E94D11C2A
:1016A0000F900F90E4CF1982188283E0DF91CF91E1
:1016B0000895DF93CF930F92CDB7DEB7FB0161158D
:1016C000710519F420E030E083C01982009709F019
:1016D0006DC08081882381F55D981EBC0DB407FE26
:1016E000FDCF8EB51EBC0DB407FEFDCF9EB55D9A35
:1016F0005E985D9880E28EBD0DB407FEFDCF8EB57D
:101700009E7C90649EBD0DB407FEFDCF8EB55D9AA4
:101710005E9A5D981EBC0DB407FEFDCF8EB51EBC53
:101720000DB407FEFDCF8EB589835D9A90E09F933F
:101730008F938EEB90E02FC05D981EBC0DB407FE1A
:10174000FDCF8EB51EBC0DB407FEFDCF9EB55D9AD4
:101750005E985D9880E28EBD0DB407FEFDCF8EB51C
:1017600091639F7B9EBD0DB407FEFDCF8EB55D9A44
:101770005E9A5D981EBC0DB407FEFDCF8EB51EBCF3
:101780000DB407FEFDCF8EB589835D9A90E09F93DF
:101790008F9385EA90E09F938F930E94D11C21E064
:1017A00030E00F900F900F900F9012C0019771F4DE
:1017B0005D981EBC0DB407FEFDCF8EB51EBC0DB4EA
:1017C00007FEFDCF8EB589835D9A808321E030E0EE
:1017D000C9010F90CF91DF910895DF93CF930F92BE
:1017E000CDB7DEB719828EE391E09F938F930E946D
:1017F000D11C81E08093BE045D981EBC0F900F90B9
:101800000DB407FEFDCF8EB51EBC0DB407FEFDCF97
:101810009EB55D9A5E985D9880E28EBD0DB407FE20
:10182000FDCF8EB592609EBD0DB407FEFDCF8EB587
:101830005D9A5E9A5D981EBC0DB407FEFDCF8EB515
:101840001EBC0DB407FEFDCF8EB589835D9A90E076
:101850009F938F938DE191E09F938F930E94D11C72
:101860000F900F900F900F900F90CF91DF910895F0
:10187000DF93CF930F92CDB7DEB784E791E09F93CC
:101880008F930E94D11C1092BE045D981EBC0F90D5
:101890000F900DB407FEFDCF8EB51EBC0DB407FE34
:1018A000FDCF9EB55D9A9C7F5E985D9880E28EBD6F
:1018B0000DB407FEFDCF8EB59EBD0DB407FEFDCF66
:1018C0008EB55D9A5E9A9983892F90E09F938F934E
:1018D00083E591E09F938F930E94D11C0F900F900E
:1018E0000F900F900F90CF91DF9108958091D704C2
:1018F000882321F00E94ED0B1092D7048091D80428
:10190000882321F00E94380C1092D8041092D6043B
:10191000089582EC91E09F938F930E94D11C0F90C9
:101920000F908091BE04882351F48091D6048823BF
:1019300021F081E08093D70402C00E94ED0B81E08A
:1019400090E008958FEC91E09F938F930E94D11CBB
:101950000F900F908091BE04882351F08091D6049F
:10196000882321F081E08093D80402C00E94380CC3
:1019700081E090E008951F93CF93DF938CED91E089
:101980009F938F930E94D11C0F900F901FEFCAED71
:10199000D1E05D981EBD0DB407FEFDCF8EB51EBC17
:1019A0000DB407FEFDCF8EB55D9A90E085FD04C0B5
:1019B00080759070892B39F0DF93CF930E94D11CF2
:1019C0000F900F90E6CFDF91CF911F9108951F9355
:1019D000182F90E09F938F938BEE90E09F938F93BF
:1019E0000E94D11C40E164EC74E08FEB94E00E9413
:1019F000EC170E9462185E980F900F900F900F9056
:101A0000112309F053C05D9880E28EBD0DB407FE2E
:101A1000FDCF8EB58CE08EBD0DB407FEFDCF8EB52B
:101A20005D9A5D9884E28EBD0DB407FEFDCF8EB544
:101A30008FE18EBD0DB407FEFDCF8EB55D9A5D982A
:101A400086E28EBD0DB407FEFDCF8EB581E08EBD62
:101A50000DB407FEFDCF8EB55D9A5D9881E38EBD16
:101A60000DB407FEFDCF8EB580E28EBD0DB407FE2E
:101A7000FDCF8EB55D9A5D988CE38EBD0DB407FEEB
:101A8000FDCF8EB581E08EBD0DB407FEFDCF8EB5C6
:101A90005D9A5D988DE38EBD0DB407FEFDCF8EB5CA
:101AA00085E08EBD0DB407FEFDCFA6C05D9880E237
:101AB0008EBD0DB407FEFDCF8EB58DE08EBD0DB48D
:101AC00007FEFDCF8EB55D9A5D9882E28EBD0DB4A6
:101AD00007FEFDCF8EB58FE38EBD0DB407FEFDCFA3
:101AE0008EB55D9A5D9884E28EBD0DB407FEFDCF84
:101AF0008EB58FE18EBD0DB407FEFDCF8EB55D9A1C
:101B00005D9886E28EBD0DB407FEFDCF8EB581E0F7
:101B10008EBD0DB407FEFDCF8EB55D9A5D9881E355
:101B20008EBD0DB407FEFDCF8EB580E28EBD0DB427
:101B300007FEFDCF8EB55D9A5D9882E38EBD0DB434
:101B400007FEFDCF8EB580E28EBD0DB407FEFDCF42
:101B50008EB55D9A5D9883E38EBD0DB407FEFDCF13
:101B60008EB580E28EBD0DB407FEFDCF8EB55D9AB9
:101B70005D9884E38EBD0DB407FEFDCF8EB580E287
:101B80008EBD0DB407FEFDCF8EB55D9A5D9885E3E1
:101B90008EBD0DB407FEFDCF8EB580E28EBD0DB4B7
:101BA00007FEFDCF8EB55D9A5D9886E38EBD0DB4C0
:101BB00007FEFDCF8EB580E28EBD0DB407FEFDCFD2
:101BC0008EB55D9A5D988CE38EBD0DB407FEFDCF9A
:101BD0008EB58FE38EBD0DB407FEFDCF8EB55D9A39
:101BE0005D988DE38EBD0DB407FEFDCF8EB585E00B
:101BF0008EBD0DB407FEFDCF8EB55D9A5E9AF8944A
:101C0000E89880916900809369005298E89A7894E6
:101C100087ED90E09F938F930E94D11C60E070E06D
:101C20008AE092E00E9402080F900F901F910895A1
:101C30001F939C0110912E061123D1F081E0809317
:101C4000D6041230C0F48091D5069091D606A091AA
:101C5000D706B091D8060196A11DB11D8093D50677
:101C60009093D606A093D706B093D8060E94760C20
:101C700040E050E05EC0812F90E00197681779073F
:101C8000A0F48091D1069091D206A091D306B09194
:101C9000D4060196A11DB11D8093D1069093D20662
:101CA000A093D306B093D406E1CF8FE296E0412F04
:101CB00050E0BC01C9010E94A31C10922E06809125
:101CC00050068823A1F08091ED069091EE06A09138
:101CD000EF06B091F0060196A11DB11D8093ED06AF
:101CE0009093EE06A093EF06B093F0061CC08DE033
:101CF00091E09F938F930E94D11C8091DD0690917B
:101D0000DE06A091DF06B091E0060196A11DB11D8F
:101D10008093DD069093DE06A093DF06B093E00685
:101D200011E00F900F900E94760C412F50E041502F
:101D30005040CA011F9108951F93DF93CF93CDB7F1
:101D4000DEB7C156D0400FB6F894DEBF0FBECDBF90
:101D5000FC01AB01198281E08093D6048091E906F1
:101D60009091EA06A091EB06B091EC060196A11DB8
:101D7000B11D8093E9069093EA06A093EB06B09319
:101D8000EC06162F1F5F113668F0812F90E09F93AD
:101D90008F9386EA91E09F938F930E94D11C2FEF3F
:101DA0003FEF64C06A839E012D5F3F4FBF01C901B1
:101DB0000E94A31C8EE00E94F703892BB1F08EE0F5
:101DC0000E94F7039F938F9388E991E09F938F93ED
:101DD0000E94D11C8EE00E94F70381500E94110BDB
:101DE0000F900F900F900F9003C080E00E94110B96
:101DF0005D9880EA8EBD0DB407FEFDCF8EB59E01C5
:101E00002E5F3F4FF90107C080818EBD0DB407FEE4
:101E1000FDCF8EB531968E2F821B8117A8F35D9A68
:101E200016E98091F701882329F4198281E08093D3
:101E3000F7010DC0112319F481E0898308C060EB1C
:101E400071E880E090E00E94A3181150EACF8981E8
:101E500090E09F938F9388E891E09F938F930E94E7
:101E6000D11C0E94760C8981282F30E00F900F90B2
:101E70000F900F90C901CF59DF4F0FB6F894DEBF16
:101E80000FBECDBFCF91DF911F9108958AE092E000
:101E90000E94280808955D9881E68EBD0DB407FE66
:101EA000FDCF8EB58EBD0DB407FEFDCF9EB5892F3B
:101EB0008150803248F590932E069EBD0DB407FEEA
:101EC000FDCF20E030E0EFE2F6E08EB51EBC81935E
:101ED0002827022E2295207F2025032E322F22959F
:101EE0002F700226269532272327220F220F220F3A
:101EF00020250DB407FEFDCF915039F781E0809386
:101F0000500610924F0606C010922E0610924F06F1
:101F1000109250065D9A8AE092E00E942808089587
:101F20001F920F920FB60F9211242F933F934F934E
:101F30005F936F937F938F939F93AF93BF93EF9331
:101F4000FF93DF93CF930F92CDB7DEB719828FEF58
:101F50000E945A188983898186FF09C08981877008
:101F6000863010F40E944B0F898180640DC08981F6
:101F700085FF05C01092F7018981806205C08981C3
:101F800084FF03C08981806189835D9887E28EBD6B
:101F90000DB407FEFDCF8EB589818EBD0DB407FE51
:101FA000FDCF8EB55D9A0F90CF91DF91FF91EF91AC
:101FB000BF91AF919F918F917F916F915F914F9161
:101FC0003F912F910F900FBE0F901F901895FC011D
:101FD0001182818180830895DC019C919F5F9035FF
:101FE00008F090E011968C911197981731F08C9130
:101FF000FD01E80FF11D62839C930895DC011196A9
:102000008C911197FD01E80FF11D92818F5F803552
:1020100008F080E011968C93892F08951092510654
:1020200080915106809352060895FC019081818130
:1020300020E0981321E0822F08959091510680911D
:10204000520620E0981321E0822F089520E030E02E
:1020500008C02F5F3F4F87E22131380711F49FEF0F
:1020600013C09091510680915206981791F3809178
:102070005206E82FF0E0EF5AF94F92818F5F8035DA
:1020800008F080E080935206892F0895282F9091C0
:1020900051069F5F903508F090E0809152069817A6
:1020A00041F0E0915106F0E0EF5AF94F228390930E
:1020B000510680E090E008950895682F81E00E9425
:1020C000E21108950F931F93CF93DF93182F062FDC
:1020D000282F392FE90104C0699181E00E94E211A3
:1020E0009E01211B2017C4F3DF91CF911F910F9107
:1020F000089546E06CE081E00E94C61166E470E15C
:1021000081E00E9403121092510680915106809343
:1021100052061092520680915206809351060895FD
:10212000F8941092B60016BC8FE187BD92E094BD82
:1021300084E085BD85B385BB90936E001092DA0470
:102140001092D9048091D9049091DA049093DC0420
:102150008093DB04789408952091D9043091DA04B7
:102160008091D9049091DA0428173907A9F7C90199
:10217000089507C022E330E0000021503040E1F72D
:1021800001970097B9F70895BC014091D904509187
:10219000DA048091D9049091DA0448175907A9F715
:1021A0002091D9043091DA048091D9049091DA0415
:1021B00028173907A9F7241B350B2617370780F393
:1021C000089508952091A3063091A4064091A50694
:1021D0005091A6068091A3069091A406A091A50611
:1021E000B091A606281739074A075B0759F7B901C6
:1021F000CA0108951F920F920FB60F9211242F93C8
:102200003F934F935F936F937F938F939F93AF937E
:10221000BF93EF93FF938091D9049091DA040196D4
:102220009093DA048093D9048091DB049091DC04CC
:1022300001969093DC048093DB048091DB04909101
:10224000DC048D379105B9F41092DC041092DB04A4
:102250008091A3069091A406A091A506B091A60630
:102260000196A11DB11D8093A3069093A406A0938F
:10227000A506B093A6060E941F09892B11F00E94A3
:102280009E09FF91EF91BF91AF919F918F917F91A7
:102290006F915F914F913F912F910F900FBE0F90D3
:1022A0001F9018951F920F920FB60F921124109243
:1022B0003A020F900FBE0F901F9018951F920F9229
:1022C0000FB60F9211242F933F934F935F936F9309
:1022D0007F938F939F93AF93BF93EF93FF93E0917F
:1022E0002E02F0912F028081E0913B02F0913C029E
:1022F000309709F00995FF91EF91BF91AF919F91B0
:102300008F917F916F915F914F913F912F910F909E
:102310000FBE0F901F9018951F920F920FB60F923D
:102320001124109249020F900FBE0F901F90189524
:102330001F920F920FB60F9211242F933F934F933A
:102340005F936F937F938F939F93AF93BF93EF931D
:10235000FF93E0913D02F0913E028081E0914A02BC
:10236000F0914B02309709F00995FF91EF91BF91E1
:10237000AF919F918F917F916F915F914F913F911D
:102380002F910F900FBE0F901F90189590E0FC01B9
:1023900024E0EE0FFF1F2A95E1F7E81BF90BE25D41
:1023A000FD4FA281B3811C92A481B5816C93A0855D
:1023B000B18588E98C93A285B3854C9314861686E3
:1023C00015860895282F30E0F90154E0EE0FFF1F25
:1023D0005A95E1F7E21BF30BE25DFD4F0680F781B2
:1023E000E02D808185FFFDCFF90144E0EE0FFF1F56
:1023F0004A95E1F7E21BF30BE25DFD4F0190F0819E
:10240000E02D6083089590E0FC01A4E0EE0FFF1F33
:10241000AA95E1F7E81BF90BE25DFD4F768765872A
:102420000895982F8091DD04282F30E0F90184E091
:10243000EE0FFF1F8A95E1F7E21BF30BE25DFD4F04
:102440000680F781E02D808185FFFDCFF901B4E0A2
:10245000EE0FFF1FBA95E1F7E21BF30BE25DFD4FB4
:102460000190F081E02D908380E090E008958093CA
:10247000DD0480E292E09093F4068093F3060895E1
:10248000CF93DF938091A9069091AA06A091AB0605
:10249000B091AC060196A11DB11D8093A906909341
:1024A000AA06A093AB06B093AC060E94DD04E091AF
:1024B000A706F091A8063097C9F00480F581E02DB9
:1024C0000995892B99F48EED94E00E944208EC0165
:1024D00008C0EC81FD81309709F009950990D881F9
:1024E000C02D2097B1F720E030E002C021E030E0BD
:1024F000C901DF91CF9108950F931F938C010E9422
:1025000063190E9433040E9460131093A80600937D
:10251000A706D8011896ED91FC91199788E992E1E8
:1025200009958CE492E00E9433061F910F91089563
:10253000CF93DF93E091A706F091A8060680F7817C
:10254000E02D0995181619062CF58EED94E00E94E1
:102550004208EC0108C0EA81FB81309709F0099537
:102560000990D881C02D2097B1F78091AD06909148
:10257000AE06A091AF06B091B0060196A11DB11DA7
:102580008093AD069093AE06A093AF06B093B006CD
:102590000E941906DF91CF910895BC018EED94E061
:1025A0000E94B8080895BC018EED94E00E945E0878
:1025B0000895DC0115967C936E931497E091E404E2
:1025C000F091E504309729F012968D919C91139724
:1025D00009950895DC01CB0113967C936E931297B5
:1025E000E091E404F091E504309729F014966D91A0
:1025F0007C91159709950895E091E204F091E30428
:10260000309709F0099508959093E3048093E204CC
:1026100008959093E5048093E4040895EF92FF9267
:102620000F931F93CF93DF937C01EB018A0180EE20
:1026300094E00E944208FC0113C0828193818C17B0
:102640009D0759F4A681B781109761F09801AE01FA
:10265000B701CF01FD01099505C00190F081E02D82
:10266000309759F7DF91CF911F910F91FF90EF9025
:10267000089580EE94E00E9442080895BC0180EE27
:1026800094E00E94B8080895CF93DF93EC017B8318
:102690006A835D834C833F832E83BC0180EE94E08C
:1026A0000E945E08E091E404F091E504309729F07F
:1026B0006C817D818A819B810995DF91CF910895FD
:1026C00080EE94E00E943E080895FC01818190E034
:1026D000308120E0822B932B02C0880F991F6A95CE
:1026E000E2F7892F9927FA01EC5AFD4F208130E05B
:1026F0008223932328E030E0241B350B02C09695FB
:1027000087952A95E2F70895CF92DF92EF92FF9294
:102710000F931F93CF93DF937C018A01A901283087
:1027200031050CF5FB01218130E0908180E0282B00
:10273000392B02C0220F331F0A95E2F7232F3327CC
:10274000FA01EC5AFD4F808190E02823392388E07C
:1027500090E0841B950B02C0369527958A95E2F789
:10276000F701208375C06901E3E0D594C794EA9529
:10277000E1F70115110521F0DB01C0E0D0E029C02F
:10278000C0E0D0E0F701EC0FFD1FDB01AC0FBD1F77
:102790008C9180832196CC15DD05A4F34770507091
:1027A0004115510509F454C06C0F7D1FCE0DDF1D7E
:1027B000FB01308120E0232F3327FA01EC5AFD4F33
:1027C000808190E02823392388E090E0841B950BDA
:1027D00039C0F701EC0FFD1F3C9120E011968C9160
:1027E000119790E0822B932B002E02C0880F991F27
:1027F0000A94E2F7908321961196CC15DD054CF3EF
:10280000DA01A770B070109719F1FB01EC0FFD1FF2
:10281000CE0DDF1D218130E0908180E0282B392B07
:1028200002C0220F331F0A95E2F7232F3327FD0141
:10283000EC5AFD4F808190E02823392388E090E016
:102840008A1B9B0B02C0369527958A95E2F7288351
:10285000DF91CF911F910F91FF90EF90DF90CF907C
:102860000895FC0120E030E004C08181280F311D73
:10287000329680818823C9F7C9010895FC0150E090
:1028800080E190E0861B970B821B930B02C0440FE4
:10289000551F8A95E2F78081852B80838181842B67
:1028A00081830895AF92BF92CF92DF92EF92FF9211
:1028B0000F931F93CF93DF938C016A017901283026
:1028C000310584F4FA01208130E080E190E0861B3C
:1028D000970B8E199F0902C0220F331F8A95E2F7CA
:1028E000F8016FC05901A3E0B594A794AA95E1F748
:1028F0006115710551F0E801A0E0B0E044275527CB
:10290000461B570B485F5F4F26C0C0E0D0E0F80180
:10291000EC0FFD1FD601AC0FBD1F8C91808321965B
:10292000CA15DB05A4F3A701477050704115510586
:1029300009F44DC0F801EC0FFD1FCC0DDD1D288101
:1029400030E088E090E0841B950B02C03595279518
:102950008A95E2F72CC0F601EA0FFB1F808190E018
:10296000042E02C0880F991F0A94E2F72881292BB0
:1029700028832981282B298311962196AA15BB0526
:1029800054F3A701477050704115510501F1F8014A
:10299000EA0FFB1FAC0DBD1D2C9130E0685F7F4F2F
:1029A000641B750B02C0359527956A95E2F730E0F8
:1029B00080E190E0841B950B02C0220F331F8A95A3
:1029C000E2F78081832B80838181822B8183DF9159
:1029D000CF911F910F91FF90EF90DF90CF90BF901C
:1029E000AF90089508952F923F924F925F926F9209
:1029F0007F928F929F92AF92BF92CF92DF92EF928F
:102A0000FF920F931F93DF93CF9300D0CDB7DEB724
:102A10002C01DC0116962C9140E050E0822F90E0D2
:102A200087709070892B11F041E050E02695269533
:102A300026958A01020F111DC8010E9470030E9491
:102A4000B5037C01A80160E070E00E94AC1CF201BB
:102A500084809580AA24BB241E010894211C311C6B
:102A60002DC0D40111968C91C82EDD24850183E000
:102A7000159507958A95E1F7892F8451B7E06B2E5C
:102A8000712C6A207B200E0D1F1D843030F4892F9D
:102A90000E9400049601AC0107C0892F0E94F70331
:102AA0009A8389839601A101B301C8010E9452143F
:102AB000AC0CBD1CE2E0F0E08E0E9F1ED4019C9198
:102AC000992379F682E090E00E9470030E94B5039A
:102AD000FC01D20112968C91129713969C918083DF
:102AE000918381E090E00F900F90CF91DF911F9143
:102AF0000F91FF90EF90DF90CF90BF90AF909F909D
:102B00008F907F906F905F904F903F902F9008959F
:102B10004F925F926F927F928F929F92AF92BF92ED
:102B2000CF92DF92EF92FF920F931F93DF93CF9399
:102B300000D000D0CDB7DEB70E94A8038C0182E0A0
:102B400090E00E948403F801918180E02081820F4F
:102B5000911D0E943A064C01009709F456C00E944C
:102B6000A8035C01F401268140E050E0822F90E050
:102B700087709070892B11F041E050E026952695E2
:102B80002695CA01820F911D0E948403F4010481DD
:102B90001581CC24DD2433E0432E512C4C0E5D1ED8
:102BA0003E010894611C711C2CC0F8018181E82E43
:102BB000FF24B60123E0759567952A95E1F79451B6
:102BC000A601477050706A0D7B1D943050F4970138
:102BD000C3010E948413B301F80180810E9408049C
:102BE0000CC01C821B829701C2010E9484136B815E
:102BF0007C81F80180810E94EC03CE0CDF1C0E5F0B
:102C00001F4FF8019081992381F6C4010F900F9016
:102C10000F900F90CF91DF911F910F91FF90EF9048
:102C2000DF90CF90BF90AF909F908F907F906F90EC
:102C30005F904F900895E091E904F091EA04309795
:102C400019F089E792E0099508959093EA0480933A
:102C5000E9040895E091E704F091E8040680F78123
:102C6000E02D09950895E091E704F091E804892B9F
:102C700029F00680F781E02D099508950084F185FB
:102C8000E02D099508950F931F93DF93CF93CDB750
:102C9000DEB7A4970FB6F894DEBF0FBECDBF0E947B
:102CA0003304E091E704F091E804028113810E946B
:102CB000A80360E870E0F80109958C011816190660
:102CC0000CF04FC00E94A3030E94A803AE014F5F07
:102CD0005F4F602F0E946C19882309F442C08CA1B9
:102CE0009801281B3109C9010E948403892BC9F16D
:102CF0002E81222361F18A859B853BEA8D3C9307D7
:102D000019F08F5F9F4F69F5223071F028E030E0B5
:102D1000BE01645F7F4F21503040FB01E20FF31F83
:102D200080818F3F21F007C022E030E0F1CF121602
:102D300013068CF30CC085E10E94080485E10E9413
:102D400000046BE276E00E944505892B51F0BE013C
:102D5000605F7F4F84E10E9408040E94D6039C01BB
:102D600002C020E030E0C901A4960FB6F894DEBF9F
:102D70000FBECDBFCF91DF911F910F910895EF92BC
:102D8000FF920F931F93DF93CF93CDB7DEB7A49736
:102D90000FB6F894DEBF0FBECDBFFE01319684E2C0
:102DA000DF011D928A95E9F781E089831A821B82EF
:102DB00082E10E94F7038C831D821F828091E604CA
:102DC00089878F5F8093E60403E008878DEC9BEA98
:102DD0009B878A8785E10E9400046CEA71E00E946B
:102DE0004505892B31F082E08E838FEF8C878D87AC
:102DF00009C085E10E940004BC01CE010C960E942E
:102E00003D050E838DEC9BEA9F878E876BE276E013
:102E1000CE0140960E943D050E94A8039BA38AA371
:102E20000E94D6038CA37E010894E11CF11CC7010B
:102E30000E94821B082F90E00E947003892B19F4D6
:102E400020E030E016C00E94B503402FBC01C7014E
:102E50000E94AC1AE091E704F091E804E080F18070
:102E60000E94E0038C010E94B503B801F7010995A7
:102E70009C01C901A4960FB6F894DEBF0FBECDBF6A
:102E8000CF91DF911F910F91FF90EF9008950F93D5
:102E90001F938C018DE592E00E94F71C0E94E617BB
:102EA0008093E6041093E8040093E704D801149695
:102EB000ED91FC9115978BE196E10995E091E7047E
:102EC000F091E8040680F781E02D099589E792E00A
:102ED0001F910F910895CF93DF93C3EFD1E004C00A
:102EE00060E070E00E940208899199910097C1F713
:102EF000DF91CF910895CF93DF93EC0102C00E9440
:102F00000F07899199910097D1F7DF91CF9108959B
:102F1000CF93DF93EC0104C060E070E00E940208F0
:102F2000899199910097C1F7DF91CF910895FC01A4
:102F30008081918122813381820F931F91838083CD
:102F40000895EF92FF920F931F93FC01E080F180B0
:102F5000028113810E94AC100E0D1F1D081B190B5E
:102F6000C8011F910F91FF90EF9008950F931F9349
:102F70008C010E94AC1040E050E0F80120813181CA
:102F8000821B930B228133818217930710F041E05B
:102F900050E0CA011F910F9108950F931F938C0168
:102FA0000E94AC10F801918380831F910F910895C6
:102FB0000F931F938C01FC01738362830E94AC10FA
:102FC000F801918380831F910F9108950E94931CB3
:102FD00008950E94981C0895FC01718360834150FC
:102FE0004283138214820895DC0113968C91139707
:102FF00012962C91129730E0482F50E014968C9145
:103000001497FA01E81BF109CF0182239323821759
:10301000930719F420E030E012C0ED91FC91119774
:10302000E40FF51F608313968C9113978F5F1296B0
:103030009C911297892313968C9321E030E0C9016B
:103040000895DC0114964C91149712965C91129796
:1030500013968C91139790E0642F70E0861B970B6A
:10306000252F30E082239323892B19F42FEF3FEF94
:103070000CC0ED91FC911197E60FF71F80814F5F17
:10308000452314964C93282F30E0C9010895FC0184
:10309000228130E02F5F3F4FC9010895FC01238159
:1030A00030E08481281B3109828190E02823392374
:1030B000C90108955D988EBD0DB407FEFDCF8EB594
:1030C0005D9A089589E892E00E94F71C8AB18066B3
:1030D0008AB984B1806A84B98BB180668BB95E9AF3
:1030E0008AB12BB144B165B190E09F938F9330E0EA
:1030F0003F932F9350E05F934F9370E07F936F93D4
:103100008EE992E09F938F930E94BC1C249A2C9A84
:1031100081E58CBD8CB590E09F938F938FEC92E00E
:103120009F938F930E94BC1C8DB79EB70E960FB6CF
:10313000F8949EBF0FBE8DBF08958115910511F0C3
:103140000197F1F70895DC01CB0181159105A105E7
:10315000B10529F081509040A040B040D9F70895C2
:10316000FC01808191810895CF93DF93EC01BC0134
:1031700085EE92E00E94FC1B892B21F0BE016E5F60
:103180007F4F0CC0BE018DEE92E00E94FC1B892B8C
:1031900019F460E070E002C06A817B81CB01DF91AD
:1031A000CF9108951F93CF93DF93EC01BC0185EE7F
:1031B00092E00E94FC1B892B71F0FE0161917191DC
:1031C000CF010E941705C154DF4FBE01CE01889781
:1031D0000E945F041EC0BE018DEE92E00E94FC1BA7
:1031E000892BB9F00E943304688179818A819B819F
:1031F0000E941705898D90E00E947003198D0E942E
:10320000B5039E012C5F3F4F412F50E0B9010E9452
:10321000A31CDF91CF911F910895CF93DF93EC0111
:10322000BC0185EE92E00E94FC1B892B21F0BE01BF
:1032300085EE92E00AC0BE018DEE92E00E94FC1B7A
:10324000892B29F0BE018DEE92E00E94CE1BDF910A
:10325000CF9108950F931F93CF93DF930E94BF03E5
:10326000892BB1F08DEE92E00E94A01BEC0100973B
:1032700069F00E94D603998388830E94D1039B83BF
:103280008A83CE0104960E94C104898F8E0115C0E5
:1032900085EE92E00E94A01BEC018C01009769F082
:1032A00002960E94810499838883BE0161547F4FF6
:1032B000CE0189569F4F0E947004C801DF91CF91C3
:1032C0001F910F91089585EE92E00E941F1C8DEED4
:1032D00092E00E941F1C0895BF92CF92DF92EF925E
:1032E000FF920F931F93DF93CF93CDB7DEB728974D
:1032F0000FB6F894DEBF0FBECDBF6C01B62E7A01BB
:1033000082E0861708F0C3C0F6019081892F87708C
:103310008983892F86958695869581708A83892FE2
:10332000829581708B83929596959770892F817085
:103330008C83969591709D839181892F8695869532
:1033400083708E8392959F70892F83708F8396955B
:1033500096959887DA01FE01319688E001900D92EA
:103360008150E1F7F6018281F701808786010D5FC8
:103370001F4F3E813323A1F1F801918180E0F601D6
:103380002381820F911DF7019287818786010B5F50
:103390001F4F323091F46CEA71E0C7010B960E9426
:1033A0003D05F8018181F7018387F6018581F701E9
:1033B00084878601095F1F4F1CC03330D1F4F601AA
:1033C000D70196012850304084851B968C931B971B
:1033D00031971196E217F307B9F7085F1F4F09C03D
:1033E0006CEA71E0C7010B960E943D05F701128659
:1033F000118638853323C1F18D81882361F4F8016A
:10340000918180E02081820F911DF7019687858749
:103410000E5F1F4F05C0F7018185928596878587CE
:10342000323089F46CEA71E0C7010F960E943D05C5
:10343000F8018181F7018787F8018081F701808B8E
:103440000E5F1F4F1AC03330C1F4D801F70190E06E
:1034500017968C91179787879F5F119731969830B1
:10346000B9F7085F1F4F09C06CEA71E0C7010F96FA
:103470000E943D05F70116861586902F9C198B2D0D
:10348000891BF70183A312A301A3B91608F490E0E6
:10349000892F28960FB6F894DEBF0FBECDBFCF910F
:1034A000DF911F910F91FF90EF90DF90CF90BF9031
:1034B0000895CF93DF93FC01DB0185E0EB011992C6
:1034C0008A95E9F7858190E083709070892B11F0DF
:1034D00082E08C93878190E083709070892B21F03B
:1034E00082E012968C931297858190E083709070A1
:1034F000892B99F0878190E083709070892B69F017
:1035000025853685818592852817390731F481E034
:10351000848312961C92129701C014828581837055
:10352000823021F0833021F488E003C082E001C0C2
:1035300080E011968C93119787818370823021F0FF
:10354000833021F488E003C082E001C080E013965C
:103550008C93DF91CF910895CF92DF92EF92FF92FB
:103560000F931F93DF93CF9300D000D00F92CDB76E
:10357000DEB77C016B01042FBE016F5F7F4F0E949D
:10358000591A49818A8190E0840F911D03962B81FD
:10359000820F911D2C81820F911D2D81820F911D13
:1035A00010E00817190714F480E09EC0D7011196A7
:1035B0002C91119730E021703070F3E0220F331F0F
:1035C000FA95E1F712968C91129790E081709070C5
:1035D000E4E0880F991FEA95E1F7282B8C9187701A
:1035E000282B13968C91139790E08170907075E062
:1035F000880F991F7A95E1F7282B14968C911497D0
:1036000090E08170907066E0880F991F6A95E1F7ED
:10361000282BF601208315962C91159730E0237006
:103620003070220F331F220F331F16968C9116977E
:1036300090E08370907034E0880F991F3A95E1F71D
:10364000282B17968C9117978295880F880F807C6E
:10365000822B818318968C918283423011F043E053
:103660000AC0D70119968C911997F60183831A968F
:103670008C91848345E03A81A32FB0E01A96AE0D79
:10368000BF1D20E007C0F601E90FF11D8C9180837A
:103690002F5F1197922F940F2317A9F78B818230F8
:1036A00081F4F601E90FF11DD7011D968C911D974C
:1036B00080839F5FF601E90FF11D1E968C91808338
:1036C0009F5F3C81A32FB0E01E96AE0DBF1D20E092
:1036D00007C0F601E80FF11D8C9180832F5F1197D1
:1036E000822F890F2317A9F70F900F900F900F903B
:1036F0000F90CF91DF911F910F91FF90EF90DF908E
:10370000CF900895DF93CF9300D000D00F92CDB724
:10371000DEB7BE016F5F7F4F0E94591A89819A817F
:10372000890F8D5F9B81890F9C81890F9D81890FF6
:103730000F900F900F900F900F90CF91DF91089501
:10374000DC0112964D915C91139720E030E01FC090
:103750001496ED91FC911597E20FF31F8081882359
:10376000A1F481E080838D919C911197AC01249FFD
:10377000C001259F900D349F900D112416962D9118
:103780003C911797280F391F07C02F5F3F4F241711
:103790003507F0F220E030E0C9010895DC0116960B
:1037A0002D913C9117971296ED91FC91139740E063
:1037B00050E01DC02617370799F41496ED91FC913F
:1037C0001597E40FF51F8081181614F4815080833B
:1037D0001496ED91FC911597E40FF51F80810895E3
:1037E0008D919C911197280F391F4F5F5F4F4E1796
:1037F0005F0700F38FEF0895FC01AB0166817781CD
:103800004617570718F420E030E017C0A0E0808189
:10381000918122813381FC01E29FC001E39F900DE1
:10382000F29F900D1124680F791F4617570708F073
:10383000A1E081E0A8272A2F30E0C90108950F9365
:103840001F938C01FC014281538160E070E0848110
:1038500095810E94AC1CF801228133818081918185
:10386000AC01249FC001259F900D349F900D112421
:10387000AC0160E070E0868197810E94AC1C1F91D2
:103880000F910895A0E0B0E0E8E4FCE10C94ED1F96
:10389000EC01A880B980CA80DB80A114B104C10406
:1038A000D10441F484E2A82E89EDB82E8BE5C82E10
:1038B00087E0D82EC601B5012DE133EF41E050E09D
:1038C0000E94CA1F27EA31E440E050E00E94AB1F8B
:1038D0007B018C01C601B5012DE133EF41E050E0E1
:1038E0000E94CA1FCA01B9012CEE34EF4FEF5FEFFF
:1038F0000E94AB1F6E0D7F1D801F911F97FF04C09C
:103900006150704080409048688379838A839B83AC
:103910009B013F77C901CDB7DEB7EAE00C940920DF
:103920000E94421C08958BEF92E00E94421C089571
:10393000A0E0B0E08093FB029093FC02A093FD0214
:10394000B093FE020895FB01DC0102C001900D92CC
:1039500041505040D8F70895DC0101C06D934150AB
:103960005040E0F70895FB01DC018D910190801932
:103970000110D9F3990B0895A0E0B0E0E2ECFCE16E
:103980000C94F51FFE01359661917191AF01809104
:10399000F3069091F4060E942C1D2096E2E00C9410
:1039A0001120A0E0B0E0E7EDFCE10C94F51FFE0172
:1039B000359661917191A091F306B091F40613963A
:1039C0008C911397886013968C93AF018091F306C6
:1039D0009091F4060E942C1DE091F306F091F406FC
:1039E0002381277F23832096E2E00C9411200F93FC
:1039F0001F93CF93DF938C01E091F306F091F406CF
:103A0000838181FF21C0C0E0D0E00DC0E091F306CA
:103A1000F091F40620853185BF01F9010995892BC4
:103A200011F0CFEFDFEFF80181918F01882371F75B
:103A3000E091F306F091F40620853185BF018AE01C
:103A4000F9010995892B11F0CFEFDFEFCE01DF915E
:103A5000CF911F910F910895ABE0B0E0E2E3FDE15B
:103A60000C94E51F3C012B015A01FC0117821682C0
:103A7000838181FD03C06FEF7FEFC8C19AE0892E7B
:103A80001E010894211C311CF3012381F20123FD46
:103A9000859123FF81912F01882309F4B4C18532D8
:103AA00039F423FD859123FF81912F01853229F47B
:103AB000B30190E00E94211FE7CF982FDD24CC2492
:103AC0009924FFE1FD15D0F09B3269F09C3228F477
:103AD000903259F0933291F40EC09D3249F09033F8
:103AE00069F441E024C052E0D52A84E0D82A28C0F5
:103AF00098E0D92A25C0E0E1DE2A22C0D7FC29C0FF
:103B0000892F80538A3070F4D6FE05C0989C902C83
:103B10001124980E15C0C89CC02C1124C80EF0E2C8
:103B2000DF2A0EC09E3229F4D6FC6DC140E4D42AAF
:103B300007C09C3619F450E8D52A02C0983649F4DB
:103B4000F20123FD959123FF91912F01992309F013
:103B5000B8CF892F8554833018F08052833038F4E1
:103B600044E050E0A40EB51E5FE359830FC09336C6
:103B700031F0933779F0933509F056C020C0F50144
:103B80008081898342E050E0A40EB51E710101E0FE
:103B900010E012C0F501E080F180D6FC03C06FEFA9
:103BA0007FEF02C0692D70E042E050E0A40EB51E28
:103BB000C7010E94161F8C015FE7D52214C0F501D2
:103BC000E080F180D6FC03C06FEF7FEF02C0692D6B
:103BD00070E042E050E0A40EB51EC7010E940B1F2A
:103BE0008C0150E8D52AD3FE07C01AC0B30180E289
:103BF00090E00E94211FCA948C2D90E008171907AD
:103C0000A8F30EC0F701D7FC8591D7FE81917F0103
:103C1000B30190E00E94211FC110CA9401501040CE
:103C20000115110579F7ECC0943611F0993671F54C
:103C3000D7FE08C0F501E080F1800281138144E0E5
:103C400050E00AC0F501808191817C010027F7FCDA
:103C50000095102F42E050E0A40EB51E5FE6D5227D
:103C600017FF0AC010950095F094E094E11CF11C38
:103C7000011D111D80E8D82A2AE030E0A101C80109
:103C8000B7010E944D1FF82EF21840C0953729F455
:103C90001D2D1F7E2AE030E01DC01D2D197F9F368F
:103CA00061F0903720F4983509F0ADC00FC090371F
:103CB00039F0983709F0A7C004C028E030E00AC006
:103CC000106114FD146020E130E004C014FD1660A2
:103CD00020E132E017FF08C0F50160817181828127
:103CE000938144E050E008C0F50180819181BC01DE
:103CF00080E090E042E050E0A40EB51EA1010E94D9
:103D00004D1FF82EF2188FE7D82ED122D6FE0BC009
:103D10005EEFD522F91438F4D4FE07C0D2FC05C0FA
:103D20008FEED82202C01F2D01C0192DD4FE0DC068
:103D3000FE01EF0DF11D8081803319F499EED92237
:103D400008C01F5FD2FE05C003C08D2D867809F024
:103D50001F5F0D2DD3FC14C0D0FE0FC01C1510F03A
:103D60009F2C0BC09F2C9C0C911A1C2D06C0B301DC
:103D700080E290E00E94211F1F5F1C15C0F304C069
:103D80001C1510F4C11A01C0CC2404FF10C0B301EB
:103D900080E390E00E94211F02FF1EC001FD03C0CE
:103DA00088E790E002C088E590E0B3010CC0802F66
:103DB000867891F001FF02C08BE201C080E2D7FC5F
:103DC0008DE2B30190E00E94211F06C0B30180E3A1
:103DD00090E00E94211F9A94F914C0F3FA94F10123
:103DE000EF0DF11DB301808190E00E94211FFF20A3
:103DF000A9F706C0B30180E290E00E94211FCA9497
:103E0000CC20C1F741CEF30166817781CB012B969F
:103E1000E2E10C940120FC0105906150704001101A
:103E2000D8F7809590958E0F9F1F0895FC016150E3
:103E3000704001900110D8F7809590958E0F9F1FCC
:103E400008950F931F93CF93DF938C01EB018B8128
:103E500081FF1BC082FF0DC02E813F818C819D811F
:103E60002817390764F4E881F9810193F983E8831D
:103E700006C0E885F985802F0995892B31F48E815C
:103E80009F8101969F838E8302C00FEF1FEFC801B1
:103E9000DF91CF911F910F910895FA01AA27283041
:103EA00051F1203181F1E8946F936E7F6E5F7F4F07
:103EB0008F4F9F4FAF4FB1E03ED0B4E03CD0670F83
:103EC000781F891F9A1FA11D680F791F8A1F911DD6
:103ED000A11D6A0F711D811D911DA11D20D009F426
:103EE00068943F912AE0269F11243019305D319368
:103EF000DEF6CF010895462F4770405D4193B3E051
:103F00000FD0C9F7F6CF462F4F70405D4A3318F0F7
:103F1000495D31FD4052419302D0A9F7EACFB4E0A8
:103F2000A6959795879577956795BA95C9F7009760
:103F30006105710508959B01AC010A2E0694579501
:103F4000479537952795BA95C9F7620F731F841F58
:103F5000951FA01D0895629FD001739FF001829F5D
:103F6000E00DF11D649FE00DF11D929FF00D839F08
:103F7000F00D749FF00D659FF00D9927729FB00DA5
:103F8000E11DF91F639FB00DE11DF91FBD01CF01B8
:103F90001124089597FB092E05260ED057FD04D055
:103FA0004BD00AD0001C38F450954095309521959F
:103FB0003F4F4F4F5F4F0895F6F79095809570955E
:103FC00061957F4F8F4F9F4F08952F923F924F9251
:103FD0005F926F927F928F929F92AF92BF92CF9299
:103FE000DF92EF92FF920F931F93CF93DF93CDB7A2
:103FF000DEB7CA1BDB0B0FB6F894DEBF0FBECDBF1A
:1040000009942A88398848885F846E847D848C84EA
:104010009B84AA84B984C884DF80EE80FD800C81F3
:104020001B81AA81B981CE0FD11D0FB6F894DEBFD6
:104030000FBECDBFED010895A1E21A2EAA1BBB1B36
:10404000FD010DC0AA1FBB1FEE1FFF1FA217B30764
:10405000E407F50720F0A21BB30BE40BF50B661F7A
:10406000771F881F991F1A9469F76095709580953E
:1040700090959B01AC01BD01CF010895F894FFCF4D
:10408000726563765F6263206572726F72212100D0
:104090000A5374617274696E672077736E20727848
:1040A0002E2E2E0074696D656F75742C206E6F2036
:1040B0006176616C6961626C652064617461003E67
:1040C00025730025642C203E25730A0057534E208B
:1040D00052582070726F636573730000004C018941
:1040E00001000000005B01000041540041542B56C8
:1040F00045520041542B5253540069012D016C016B
:1041000044017301B6020D0A2A5645523A310D0A8E
:104110000086015A010D0A4552524F520D0A009570
:10412000010D0A4F4B0D0A00A1016E0300008E0520
:104130001410000000004576656E742074696D658A
:1041400072000000B601A30900000000436F6E7406
:10415000696B6920322E34000A2A2A2A2A2A2A2A3E
:10416000426F6F74696E672025732A2A2A2A2A2AC9
:104170002A0A00C2010000016E524632344C30312E
:10418000207265636569766572000000F8012C0B8A
:10419000000000009C0E180E080B890CA20C590B95
:1041A0000000000200000000111200000000C60024
:1041B000C500C400C000C100C200000000CE00CD98
:1041C00000CC00C800C900CA000000008815F31424
:1041D0003114F2140080C0E0F0F8FCFEFF0A7369AD
:1041E00063736C6F776D61635F696E697400736987
:1041F00063736C6F776D6163006E024717BF164380
:104200001625162A16331600000A207370695F6996
:104210006E6974207374617274696E6720000A207D
:10422000504F5254423D307825782C20444452421D
:104230003D307825782C20504F5254443A30782520
:10424000782C20444452443D30782578200A000AD6
:104250002073706920656E642C20535043523D30AA
:104260007825780A00C7000100EB04EC041A00016D
:1042700000B305B4050000000000000100000000CC
:00000001FF
