:100000000C941B010C948F0E0C9438010C94380145
:100010000C9438010C9438010C9438010C9438017C
:100020000C9438010C9438010C9438010C9438016C
:100030000C9438010C9438010C9438010C9438015C
:100040000C943E100C9438010C9438010C94380137
:100050000C94A2100C9438010C9496100C94380156
:100060000C9438010C9438010C9438010C9438012C
:100070000C94DC100C9438010C94D0106E72663223
:10008000346C30315F70726F63657373206E6F74A0
:1000900020726563656976696E672066756E637444
:1000A000696F6E0A006E726632346C30315F696F50
:1000B00063746C2C2072783D307825780A006E725B
:1000C0006632346C30315F696F63746C2C207478E5
:1000D0003D307825780A000A6E726632346C303111
:1000E0005F696E697420656E640A000A206E72662C
:1000F00032346C30315F696E69742073746172746C
:100100002C206D6F64653A202564200A00726632E7
:1001100033303A20426164204352430A007266320F
:10012000333020696E7465726E616C206F6E202DA5
:100130002C2073746174653A307825780A007266F1
:1001400032333020696E7465726E616C206F6E2080
:100150002B0A00726632333020696E7465726E61EC
:100160006C206F6E202D2C2073746174653A30788A
:1001700025780A00726632333020696E7465726EBB
:10018000616C206F66660A0074785F726573756CC7
:10019000743D307825780A006973725F74797065F0
:1001A0003D307825780A0073746172742073656E2F
:1001B00064696E672025642062797465732C2074ED
:1001C0006F74616C6C656E3D25640A00706F7765B5
:1001D00072203D20307825780A006661696C65647C
:1001E0002C20746F74616C5F6C656E3D25642062B9
:1001F000797465730A004953523A207374617475B7
:10020000733D307825780D0A000A726632346C30FE
:10021000315F6F6E0A0072663233305F6F66660A56
:10022000002E006E726632346C30315F7761697413
:1002300069646C65000011241FBECFEFD0E1DEBF02
:10024000CDBF13E0A0E0B1E0ECE2F0E402C0059025
:100250000D92A43BB107D9F717E0A4EBB3E001C0BE
:100260001D92A133B107E1F70E94CF0F0C94142027
:100270000C9400000F931F93CF93DF938C01DC014C
:100280008D919C91009729F0833B910509F08AC1DB
:100290003FC080E091E00E947B1C0E945306809347
:1002A000840682E1EAECF3E0DF011D928A95E9F72A
:1002B0008DE0EDEBF3E0DF011D928A95E9F78AE02E
:1002C0008093BF038EEF8093B9031092B80381E04F
:1002D0008093BA031092BC038093BB0343E352E0C4
:1002E00060E870E084EE93E00E944B051092B60344
:1002F0006091BA038DE7689FB00111248CED93E003
:100300000E94470A83EB90E0F801918380830CC040
:1003100080918406681751F08CED93E00E94E0080C
:100320008093B603882311F481E040C18CED93E003
:100330000E943C0AC0917D02D0917E0241E050E0D3
:1003400065EB73E081E090E0FE0109958091B503D3
:10035000882359F481E08093B50341E050E065EBD8
:1003600073E080E090E0FE0109959091BC0392302B
:1003700009F042C08091BB03853008F4B7CF80916B
:10038000B6038823F1F08091B403873050F01092C7
:10039000BC0381E08093BB031092B40384E291E03C
:1003A000E0C08F5F8093B40390E09F938F938FE3BF
:1003B00091E09F938F930E94401C0F900F900F909D
:1003C0000F9082E08093BD031092BE03E0ECF3E057
:1003D0008AE0DF011D928A95E9F783E08093BA03F2
:1003E000BF0168507040CF0103970E94290F1092FF
:1003F000B50380E591E08BC0933069F41092BC03A3
:100400008091BB03853008F471CF81E08093B50300
:100410008DE591E07CC0913009F095C08091BB03DF
:10042000863008F063CF8091B6038823E9F080918D
:10043000B403833048F01092BC039093BB03109236
:10044000B4038FE691E08DC08F5F8093B40390E09A
:100450009F938F9388E891E09F938F930E94401C15
:100460000F900F900F900F909091BB039230D9F4A2
:1004700081E08093BD038093BE03E0ECF3E08AE06B
:10048000DF011D928A95E9F783E08093BA03BF01EB
:1004900068507040CF0103970E94290F1092B50356
:1004A00085E991E034C09330D1F481E08093BD03BD
:1004B0009093BE03E0ECF3E08AE0DF011D928A95A1
:1004C000E9F79093BA03BF0168507040CF010397DA
:1004D0000E94290F1092B5038FE991E018C0943063
:1004E000F1F481E08093BD0395E09093BE038AE030
:1004F000E0ECF3E0DF011D928A95E9F79093BB03EE
:1005000083E08093BA031092B5038BEA91E00E94D6
:100510007B1C8091B503882309F0E8CE25C0953077
:1005200051F41092BC0381E08093B5038093BA0329
:1005300086EB91E016C081E08093B5038093BA0307
:1005400080EC91E00EC081E08093BA038091BB0300
:10055000853029F482E08093BC031092B70381EDCB
:1005600091E00E947B1CC2CE41E050E065EB73E05D
:1005700080E090E0FE0109956DE070E08DEB93E086
:100580000E94F00484EE93E00E943A0581E080939B
:10059000B50341E050E065EB73E080E090E0FE01E0
:1005A0000995A4CEF8011182108283E0DF91CF91EA
:1005B0001F910F9108950F931F930E94AF030E9404
:1005C0008103FC0100810130F1F51091BB03812F03
:1005D0008150843008F056C00093BC038181882389
:1005E000A9F4113009F04EC0BF018AEC93E00E94DB
:1005F000110F882331F482E08093BB038BED91E0EF
:1006000037C01093BB0386EE91E032C0823091F484
:100610001230C1F5BF0188EB93E00E94470F882399
:1006200031F483E08093BB0380EF91E021C000931D
:10063000BB0320C0843031F5133021F58093BB0318
:100640008CEF91E015C0033039F48091BB03853005
:10065000C9F40093BC030EC00230A1F48091BB0327
:10066000853081F41092BC031092B40385E092E0CF
:100670000E947B1C48EB53E06091840685E292E087
:100680000E94A8071F910F91089585E18093F303BD
:100690000895AC012091F303822F90E04817590789
:1006A00034F4241B2093F30321E030E004C01092C3
:1006B000F30320E030E0C90108954091EF03509129
:1006C000F0039C014817590718F420E030E012C0ED
:1006D0008091F1039091F203820F931F9093F203A4
:1006E0008093F103421B530B5093F0034093EF03AD
:1006F00021E030E0C90108959093F0038093EF0367
:1007000008958091F1039091F2034596209135026E
:1007100030913602280F391FC90108958091F303E3
:100720002091350230913602280F311DC9010895FC
:1007300040E050E08091350290913602459620913C
:10074000F4033091F5032817390711F041E050E028
:10075000CA0108958091F4039091F5030895809162
:10076000EF039091F00308959091F30385E1891BC5
:10077000089585E19091F303891B2091EF03309157
:10078000F003280F311DC9010895E82FF0E0EE0FA6
:10079000FF1FE157F94F7183608381E090E0089576
:1007A000E82FF0E0EE0FFF1FE157F94F80819181B4
:1007B0000895282F30E0220F331F215A394FC901E5
:1007C000089590E0880F991F815A994F0E9416054D
:1007D00081E090E00895EFE8F6E01192119286E052
:1007E000E73BF807D1F767E372E087E896E00E94FD
:1007F000160567E372E089E896E00E94160567E354
:1008000072E08BE896E00E94160567E372E08DE8DF
:1008100096E00E94160508951092F2031092F103DB
:100820001092F0031092EF0385E18093F30380911F
:1008300035029091360245969093F5038093F40328
:100840000E94EB030895EF92FF920F931F938C0188
:100850007B010E940C041093F5030093F403F092C3
:10086000F003E092EF031F910F91FF90EF90089536
:10087000AFE8B6E0FC0188E201900D928150E1F70B
:10088000A7E8B6E0FB0188E001900D928150E1F706
:100890000895DC01EFE8F6E088E201900D928150C6
:1008A000E1F7DB01E7E8F6E088E001900D92815086
:1008B000E1F70895EF92FF920F931F937C018091CF
:1008C000F30390E005E110E0B801681B790B20917B
:1008D000350230913602280F391FAB01B901C7012B
:1008E0000E94301C8091F303081B11090E0D1F1D7F
:1008F0002091F4033091F5038091F1039091F2037C
:10090000280F391F4091EF035091F003B901C8013E
:100910000E94301C2091EF033091F0032B5E3F4F7B
:100920008091F303281B3109C9011F910F91FF909A
:10093000EF9008950F931F932091F30330E005E1AA
:1009400010E0B801621B730BE0913502F0913602A2
:10095000E20FF31FAB01BF010E94301C8091F30333
:10096000081B1109C8011F910F9108952091F403EC
:100970003091F5036091350270913602FB01759656
:100980002E173F0749F04091EF035091F003B90152
:10099000CF010E94301C08958091F1039091F203E1
:1009A0000097E9F04091EF035091F0034B5E5F4FE9
:1009B000DB01A80FB91F25E130E009C0FB01E20F00
:1009C000F31F54968C91549780832F5F3F4F11965D
:1009D000241735079CF31092F2031092F103089547
:1009E000EF92FF920F931F93F82EE92E162F072FE9
:1009F0000E940C04212F302FC9018C0181389105F0
:100A000010F000E810E0A8016F2D7E2D8091F40316
:100A10009091F5030E94301C1093F0030093EF03B4
:100A2000C8011F910F91FF90EF900895DC01FB0129
:100A300080818C93818111968C930895FC01DB0158
:100A400090818C91981719F020E030E009C020E0E7
:100A5000918111968C91981321E081E0282730E054
:100A6000C9010895FC0180818093B706818180933C
:100A7000B80608950F931F938C0167EB76E084E12D
:100A80000E94E103C8010E9498051F910F910895EB
:100A90000E949B050895CF92DF92EF92FF920F93F1
:100AA0001F938C016B017A0149E352E00E949E057D
:100AB000F801F286E1866BE372E0C6010E94390616
:100AC0001F910F91FF90EF90DF90CF900895EF92DC
:100AD000FF920F931F93DF93CF9300D0CDB7DEB774
:100AE0008C0184E10E94D903BC017E010894E11CC1
:100AF000F11CC7010E941605D8011996ED91FC91D1
:100B00001A970190F081E02DB701C80109950F9067
:100B10000F90CF91DF911F910F91FF90EF9008956B
:100B2000FC01A781B0852D913C91F90109950895AB
:100B30000E94CA0508950E942A060895CF92DF9266
:100B4000EF92FF920F931F938C016B017A010E9429
:100B50003006F801F086E7826FE372E0C6010E947A
:100B600039061F910F91FF90EF90DF90CF9008957D
:100B7000E0918C04F0918D04309741F00480F58170
:100B8000E02D309719F009959C0102C020E030E07B
:100B9000C90108950F931F93CF93DF93EC01E09168
:100BA0008C04F0918D043097A9F00280F381E02D40
:100BB00009958C016A817B8181E00E94C503012B2C
:100BC00049F00E940E1220E030E0892B29F421E048
:100BD00030E002C020E030E0C901DF91CF911F91E9
:100BE0000F910895CF93DF93E0918C04F0918D04E1
:100BF000309779F00190F081E02D0995EC01009794
:100C000041F06A817B8181E00E94C503CE010E9490
:100C10009005DF91CF91089590938D0480938C047B
:100C20000E944E060895CF93DF93EC018EE894E086
:100C30000E941B08FC0108C0828193818C179D07CC
:100C400029F00190F081E02D3097B1F7CF01DF91CD
:100C5000CF910895BC018EE894E00E949108089518
:100C6000FC0173836283BC018EE894E00E94370824
:100C700008950F931F93CF93DF938B010E94130668
:100C8000EC01009731F01D830C83C8010E94B80568
:100C90008E83DF91CF911F910F9108958EE894E09C
:100CA0000E941708089580919C048F5F80939C0494
:100CB000815008951F93CF93DF93EC01162F888501
:100CC00080FF1CC0EC81FD813097C1F0D09393046C
:100CD000C093920482E08887CE01069609959927F1
:100CE00087FD90950297029710F0133829F4BE0102
:100CF000CE010E94820602C081E08887DF91CF91F9
:100D00001F910895CF92DF92EF92FF920F931F935E
:100D1000CF93DF938C017B01C0909204D090930419
:100D2000DC0118968C911897882341F118961C9233
:100D3000C0919004D09191040BC00C171D0729F0AD
:100D4000A80167E8CE010E945A060990D881C02DFB
:100D5000209799F7D8011496ED91FC91159730974B
:100D600069F00E151F0551F010939304009392043F
:100D700040E050E063E8C80106960995E0919004D0
:100D8000F09191040E171F07A1F4F8018081918161
:100D900090939104809390040EC08081918180177C
:100DA000910731F4D8018D919C919183808303C088
:100DB000FC01309791F7D0929304C0929204DF9196
:100DC000CF911F910F91FF90EF90DF90CF900895FA
:100DD00060919204709193040E94820608958AE8BB
:100DE00080939C0410929E0410929D041092910492
:100DF00010929004109293041092920408951F93FD
:100E0000CF93DF9380913F058823C1F010923F0577
:100E1000C0919004D091910411E00EC0898588237F
:100E200041F01887198640E050E062E8CE010E9448
:100E30005A060990D881C02D209781F720919D04F2
:100E4000222309F470C080919E0490E0FC01EE0F13
:100E5000FF1FEE0FFF1FE80FF91FE156FB4F6081E8
:100E600060939B044181528150939A04409399046A
:100E70000380F481E02DF0939804E09397040196A9
:100E80008F71907080939E04215020939D04309721
:100E900009F042C08091900490919104909396043F
:100EA0008093950411E031C080913F058823B9F00B
:100EB00010923F05C0919004D09191040EC0898595
:100EC000882341F01887198640E050E062E8CE019F
:100ED0000E945A060990D881C02D209781F7409131
:100EE000990450919A0460919B048091950490918B
:100EF00096040E945A06E0919504F0919604808130
:100F0000918190939604809395048091950490919B
:100F10009604892B49F607C0613811F481E0808777
:100F2000CF010E945A0680913F0520919D0430E038
:100F3000280F311DC901DF91CF911F910895809134
:100F40003F0520919D0430E0280F311DC90108950F
:100F5000DC0120919D04203219F421E030E01AC018
:100F600080919E04820F8F718093940490E0FC0125
:100F7000EE0FFF1FEE0FFF1FE80FF91FE156FB4FAB
:100F8000608352834183B483A3832F5F20939D04A6
:100F900020E030E0C90108950F931F93009192045F
:100FA000109193040E945A061093930400939204A4
:100FB0001F910F910895DC0140919004509191048C
:100FC000CA01FC0103C00190F081E02DEA17FB0784
:100FD000B9F03097C1F74C9311965C931197B09389
:100FE0009104A093900481E018968C93189717961B
:100FF0001C921E921697AB0161E8CD010E94CC07AE
:101000000895FC01009741F080858150823020F4E2
:1010100081E0818780933F05089520E030E0FC0166
:101020008085882311F021E030E0C9010895FC019A
:10103000118210820895FC01808191810895FC0144
:10104000DB018D919C91918380830895FC01019037
:10105000F081E02D309719F420E030E006C09F01C8
:101060000190F081E02D3097D1F7C9010895CF9319
:10107000DF93EC01DB0111961C921E92888199810D
:10108000009751F0FC01CF010190F081E02D3097E5
:10109000D1F7FC01009719F46883798302C0B1830A
:1010A000A083DF91CF910895DC01FB018D919C918C
:1010B0001197918380836D937C930895CF93DF93F1
:1010C000EC01E881F981309719F420E030E019C093
:1010D000DF0180819181892B21F4198218829F017F
:1010E00010C02C9111963C911197AD01C901DC0102
:1010F0008D919C911197892BA1F7FA011182108291
:101100009D01C901DF91CF910895DC01ED91FC9122
:101110001197309721F0808191818D939C93CF011D
:101120000895CF93DF93EC01288139812115310592
:10113000D1F0F901A0E0B0E014C0E617F70761F4C0
:1011400080819181109719F49983888302C08D93CF
:101150009C931182108207C0DF01808191819C01E4
:10116000F901309751F7DF91CF910895FC0101907B
:10117000F081E02D20E030E005C02F5F3F4F01906F
:10118000F081E02D3097C9F7C9010895CF93DF931F
:10119000EC01FB01DA016115710541F48881998147
:1011A00011969C938E935983488307C080819181C7
:1011B00011969C938E9351834083DF91CF91089534
:1011C00020E030E0FC0186819781892B11F421E039
:1011D00030E0C9010895FC01228133818081918131
:1011E000280F391FC9010895FC018081918108955C
:1011F00020914005309141052115310511F021E084
:1012000030E0C90108958091400590914105892BF6
:1012100019F420E030E004C02091420530914305EC
:10122000C90108958091400590914105892B29F4C9
:10123000109243051092420508950E94F00FBC01E0
:10124000E0914005F0914105428153818081918177
:10125000480F591F461B570B0CC0228133818081D8
:101260009181280F391F261B370B2417350708F4E7
:10127000A9010480F581E02D309779F7460F571FBB
:1012800050934305409342050895CF93DF93EC01BB
:10129000E0914005F09141058E179F0741F48C8144
:1012A0009D81909341058093400514C0FC013097C7
:1012B00031F0848195818C179D07C1F707C01D828D
:1012C0001C821F821E82DF91CF9108958C819D81A7
:1012D000958384830E941209F2CFFC018081918161
:1012E000860F971F918380830E94120908958DE4D1
:1012F00092E00E9401080895EF92FF920F931F93CE
:10130000CF93DF937C01FC0180819181009729F0CC
:101310008A35910509F06DC00BC0109241051092FD
:1013200040058AE590E0F7019183808381E065C004
:10133000673849F59A01E0914005F091410503C0F5
:101340000480F581E02D309741F3868197818217E3
:101350009307B1F3E0934005F09341050FC0169653
:101360008D919C9117978217930711F0FD0106C08C
:1013700014968D919C91159795838483A481B58152
:10138000109769F7CECF623861F6C0914005D091D1
:10139000410500E010E02AC0CE010E948417892B8D
:1013A00001F1AE0168E88E819F810E94A807892B18
:1013B000A1F41F821E828C819D810115110521F0EF
:1013C000F8019583848304C0909341058093400580
:1013D0001D821C820E941209D8CF8DE492E00E94E7
:1013E00001088E018C819D819C01E9012097A1F665
:1013F00098CFF7011182108283E0DF91CF911F9186
:101400000F91FF90EF900895CF93DF93EC018DE45F
:1014100092E00E9401088E819F81892B69F0E09102
:101420004005F091410506C0EC17FD07A9F00480C6
:10143000F581E02D3097C1F780919204909193044B
:101440009F838E8380914005909141059D838C837D
:10145000D0934105C09340050E941209DF91CF91BE
:1014600008950F931F938C010E949B17C8010E943F
:10147000040A1F910F9108950F931F938C010E94EE
:101480006517C8010E94040A1F910F9108950F93D8
:101490001F938C010E94A617C8010E94040A1F9185
:1014A0000F91089580E00895909349058093480531
:1014B00008951092460508958093460508958091F9
:1014C000460590E00895809345050895809145056F
:1014D00090E0089581E0809346050895CF93DF93CF
:1014E000EC0188819981009721F085589240E9F4B8
:1014F00005C085E892E09983888302C0623811F0C4
:1015000081E016C0E0914805F0914905309721F03F
:1015100083E792E00995EDCF8CE790E09F938F935E
:101520000E94551C0F900F90E4CF1982188283E01F
:10153000DF91CF9108950F931F93DF93CF930F9275
:10154000CDB7DEB78B016115710519F420E030E0ED
:1015500071C01982009709F05DC0FB01808188236A
:1015600041F51092460581E0809345055D9880E045
:101570000E94BA1780E00E94BA175D9A8E7F898315
:101580005E985D9880E20E94BA1789810E94BA171E
:101590005D9A5E9A5D9880E00E94BA1780E00E9492
:1015A000BA1789835D9A90E09F938F938EEB90E0BA
:1015B00026C010924605109245055D9880E00E9475
:1015C000BA1780E00E94BA175D9A816089835E989D
:1015D0005D9880E20E94BA1789810E94BA175D9ACD
:1015E0005E9A5D9880E00E94BA1780E00E94BA1768
:1015F00089835D9A90E09F938F9385EA90E09F9313
:101600008F930E94551C21E030E00F900F900F90B7
:101610000F9010C0019761F45D9880E00E94BA17A6
:1016200080E00E94BA1789835D9A8170F8018083F7
:1016300021E030E0C9010F90CF91DF911F910F9110
:101640000895DF93CF930F92CDB7DEB719828EE363
:1016500091E09F938F930E94551C81E080934405F5
:101660005D9880E00E94BA1780E00E94BA175D9AE8
:10167000826089835E985D9880E20E94BA178981B2
:101680000E94BA175D9A5E9A5D9880E00E94BA1730
:1016900080E00E94BA1789835D9A90E09F938F93B0
:1016A0008DE191E09F938F930E94551C8DB79EB75B
:1016B00006960FB6F8949EBF0FBE8DBF0F90CF91C8
:1016C000DF91089589E092E09F938F930E94551CCB
:1016D0000F900F9080914405882351F480914A0522
:1016E000882321F081E080934B0502C00E94210BEA
:1016F00081E090E00895DF93CF930F92CDB7DEB7EE
:1017000084E791E09F938F930E94551C1982109259
:1017100044055D9880E00E94BA1780E00E94BA17E5
:101720005D9A8C7F89835E985D9880E20E94BA17EB
:1017300089810E94BA175D9A5E9A898190E09F9391
:101740008F9383E591E09F938F930E94551C8DB7F3
:101750009EB706960FB6F8949EBF0FBE8DBF0F9032
:10176000CF91DF91089580914B05882321F00E944D
:10177000210B10924B0580914C05882321F00E948B
:101780007B0B10924C0510924A05089586E192E079
:101790009F938F930E94551C0F900F90809144054A
:1017A000882351F080914A05882321F081E08093BD
:1017B0004C0502C00E947B0B81E090E008955D988B
:1017C0000E94BA1780E00E94BA175D9A0895CF93DD
:1017D000DF9383E292E09F938F930E94551C0F90BA
:1017E0000F90C1E2D2E08FEF0E94DF0B90E085FD09
:1017F00004C080759070892B39F0DF93CF930E94DD
:10180000551C0F900F90EFCFDF91CF910895FF926D
:101810000F931F93062FF42E0E94DF0B082310E076
:1018200002C015950795FA94E2F7802F1F910F914A
:10183000FF90089586E00E94DF0B8670869590E009
:101840000895DF92EF92FF920F931F93DF93CF9350
:101850000F92CDB7DEB7D82EF62EE42E022F0E94BF
:10186000DF0B898399818F2D80958923898310E0EF
:1018700002C0000F111FEA94E2F7F02219815D986F
:101880008D2D0E94BA178F2D812B0E94BA175D9A59
:101890000F90CF91DF911F910F91FF90EF90DF900C
:1018A0000895282F843008F023E041E066E086E0C8
:1018B0000E94210C08951F93182F90E09F938F93FF
:1018C0008BEE90E09F938F930E94551C10924605DB
:1018D0000E941018F894E89880916900809369003C
:1018E0005298E89A78945E980F900F900F900F900E
:1018F0001123F1F45D9880E20E94BA178CE00E94F7
:10190000BA175D9A5D9884E20E94BA178FEF0E9421
:10191000BA175D9A5D9881E30E94BA1780E20E942F
:10192000BA175D9A5D988CE30E94BA1781E04DC0AA
:101930005D9880E20E94BA178DE00E94BA175D9A06
:101940005D9882E20E94BA178FE30E94BA175D9AEF
:101950005D9884E20E94BA178FEF0E94BA175D9AD1
:101960005D9881E30E94BA1780E20E94BA175D9ADF
:101970005D9882E30E94BA1780E20E94BA175D9ACE
:101980005D9883E30E94BA1780E20E94BA175D9ABD
:101990005D9884E30E94BA1780E20E94BA175D9AAC
:1019A0005D9885E30E94BA1780E20E94BA175D9A9B
:1019B0005D9886E30E94BA1780E20E94BA175D9A8A
:1019C0005D988CE30E94BA178FE30E94BA175D9A64
:1019D0005D988DE30E94BA1785E00E94BA175D9A60
:1019E0005E9A87ED90E09F938F930E94551C60E074
:1019F00070E089E692E00E94DB070F900F901F9144
:101A000008951F939C011091BA061123E9F081E01B
:101A100080934A05412F50E064177507C0F4809108
:101A20000B0790910C07A0910D07B0910E0701963E
:101A3000A11DB11D80930B0790930C07A0930D0778
:101A4000B0930E070E94B30B20E030E041C08BEB57
:101A500096E050E0BC01C9010E94301C1092BA0609
:101A60008091DC068823A1F08091270790912807B8
:101A7000A0912907B0912A070196A11DB11D80935D
:101A8000270790932807A0932907B0932A071CC023
:101A90008DE091E09F938F930E94551C80911707D2
:101AA00090911807A0911907B0911A070196A11DEE
:101AB000B11D8093170790931807A0931907B0934F
:101AC0001A0710E00F900F900E94B30B212F30E007
:101AD000C9011F910895DF92EF92FF920F931F9318
:101AE000DF93CF93CDB7DEB7C056D0400FB6F89492
:101AF000DEBF0FBECDBF9C018B0181E080934A0504
:101B00008091230790912407A0912507B091260783
:101B10000196A11DB11D8093230790932407A093E4
:101B20002507B0932607D62E80E6861768F4862F01
:101B300090E09F938F938AED91E09F938F930E9403
:101B4000551C0FEF1FEF78C0AB01B901CE01019614
:101B50000E94301C8EE00E94D003892BB1F08EE0F1
:101B60000E94D0039F938F938CEC91E09F938F936F
:101B70000E94551C8EE00E94D00381500E94510C9F
:101B80000F900F900F900F9003C080E00E94510CB7
:101B90008D2D90E09F938F931F930F9387EA91E091
:101BA0009F938F930E94551C5D9880EA0E94BA17FC
:101BB0007E010894E11CF11C8701EDB7FEB7369653
:101BC0000FB6F894FEBF0FBEEDBF05C0F8018191BE
:101BD0008F010E94BA17802F8E198D15B8F35D9A68
:101BE00068ED70E480E090E00E94040F809146056B
:101BF0008823B1F3813011F480E010C0823071F09D
:101C000090E09F938F9388E991E09F938F930E9438
:101C1000551C83E00F900F900F900F901092460587
:101C2000082F10E01F930F9388E891E09F938F9304
:101C30000E94551C0E94B30B0F900F900F900F90B5
:101C4000C801C05ADF4F0FB6F894DEBF0FBECDBF3C
:101C5000CF91DF911F910F91FF90EF90DF9008954A
:101C600088E00E94DF0B90E024E0959587952A9507
:101C7000E1F70F9771F481EE0E94D4175D9885E229
:101C80000E94BA1782E00E94BA175D9A82E08093A0
:101C90004605089583E08093460589E692E00E9418
:101CA000010808950F931F93CF93DF935D9881E60A
:101CB0000E94BA170BEB16E0E80180E00E94BA1709
:101CC000899386E0CB3DD807C1F75D9A80E2809387
:101CD000BA0620E030E0F80181918F012827022E1A
:101CE0002295207F2025032E322F22952F70022649
:101CF000269532272327220F220F220F2025F6E0D8
:101D00000B3D1F0741F781E08093DC061092DB0654
:101D10000E944A0EDF91CF911F910F9108951F925B
:101D20000F920FB60F9211242F933F934F935F930F
:101D30006F937F938F939F93AF93BF93EF93FF9393
:101D4000DF93CF930F92CDB7DEB71982109246057D
:101D50008FEF0E94D4178983898190E09F938F939E
:101D600086EF91E09F938F930E94551C89810F907D
:101D70000F900F900F9086FF0DC08091450588232E
:101D800009F589818770863010F40E94520E89818E
:101D9000806417C0898185FF09C080914505813025
:101DA00089F480934605898180620BC0898184FF14
:101DB00009C080914505813029F40E94300E898147
:101DC000806189835D9887E20E94BA1789810E94A9
:101DD000BA175D9A0F90CF91DF91FF91EF91BF916C
:101DE000AF919F918F917F916F915F914F913F91B3
:101DF0002F910F900FBE0F901F9018958115910590
:101E000011F00197F1F70895DC01CB0181159105DF
:101E1000A105B10529F081509040A040B040D9F70C
:101E20000895DC01FB01009791F06115710579F0CF
:101E3000838111968C93119784818C93858112965E
:101E40008C931297868113968C9380E008958FEF80
:101E50000895DC01FB010097C1F061157105A9F03F
:101E6000818113968C931397808114968C93149789
:101E7000828115968C931597838116968C9316976D
:101E800084E012968C9380E008958FEF0895DC0132
:101E9000FB01009791F06115710579F0838111962E
:101EA0008C93119784818C93858112968C931297D1
:101EB000868113968C9380E008958FEF0895FC013E
:101EC000009719F42FEF3FEF0AC08181808782E2EB
:101ED00081878EEE828783E0878320E030E0C9012E
:101EE00008958FE792E09F938F930E94401C0F907C
:101EF0000F9080E00895DF93CF9300D0CDB7DEB789
:101F000046E06CE080E00E940A1180E00E94D0115F
:101F10000E94D40F87EA92E09F938F9383EB92E025
:101F20009F938F930E94401C0E94EF0681E00E94C5
:101F30005B0C83E792E00E9415170E944A121A82F6
:101F400019820E94B41760E071E00E945A1F8983D1
:101F50008F5F8A83CE0101960E9432058A8190E0CC
:101F60009F938F93898190E09F938F938EEC92E063
:101F70009F938F930E94401C0E9439178FE292E03A
:101F80000E9456178DB79EB70A960FB6F8949EBF5B
:101F90000FBE8DBF0F900F90CF91DF9108950E94DB
:101FA0007B0F0E94FF06FDCFF8941092B60016BC7E
:101FB0008FE187BD92E094BD84E085BD85B385BB8C
:101FC00090936E001092500510924F0580914F052E
:101FD00090915005909352058093510578940895FF
:101FE00020914F053091500580914F0590915005FB
:101FF00028173907A9F7C901089507C022E330E07F
:10200000000021503040E1F701970097B9F708959B
:10201000BC0140914F055091500580914F05909122
:10202000500548175907A9F720914F0530915005E1
:1020300080914F059091500528173907A9F7241B67
:10204000350B2617370780F3089508952091DD0694
:102050003091DE064091DF065091E0068091DD066A
:102060009091DE06A091DF06B091E00628173907AF
:102070004A075B0759F7B901CA0108951F920F92E9
:102080000FB60F9211242F933F934F935F936F934B
:102090007F938F939F93AF93BF93EF93FF93809121
:1020A0004F059091500501969093500580934F05F0
:1020B000809151059091520501969093520580931D
:1020C000510580915105909152058D379105B9F4D4
:1020D00010925205109251058091DD069091DE0616
:1020E000A091DF06B091E0060196A11DB11D80937D
:1020F000DD069093DE06A093DF06B093E0060E9413
:10210000F808892B11F00E947709FF91EF91BF9198
:10211000AF919F918F917F916F915F914F913F917F
:102120002F910F900FBE0F901F9018951F920F9236
:102130000FB60F9211241092FF020F900FBE0F9056
:102140001F9018951F920F920FB60F9211242F9384
:102150003F934F935F936F937F938F939F93AF932F
:10216000BF93EF93FF93E091F302F091F40280812B
:10217000E0910003F0910103309709F00995FF9178
:10218000EF91BF91AF919F918F917F916F915F91EF
:102190004F913F912F910F900FBE0F901F90189568
:1021A0001F920F920FB60F92112410920E030F90F0
:1021B0000FBE0F901F9018951F920F920FB60F929F
:1021C00011242F933F934F935F936F937F938F933C
:1021D0009F93AF93BF93EF93FF93E0910203F0912E
:1021E00003038081E0910F03F0911003309709F011
:1021F0000995FF91EF91BF91AF919F918F917F9141
:102200006F915F914F913F912F910F900FBE0F9063
:102210001F90189590E0FC0124E0EE0FFF1F2A9517
:10222000E1F7E81BF90BED50FD4FA281B3811C9241
:10223000A481B5816C93A085B18588E98C93A28532
:10224000B3854C931486168615860895CF93DF9335
:102250009B0190E0DC0144E0AA0FBB1F4A95E1F727
:10226000A81BB90BAD50BD4FED0126960BC0E88100
:10227000F981808185FFFDCFED91FC9111979083CD
:102280002F5F3F4FF9019491992389F7DF91CF9107
:102290000895CF93DF93EB0190E0DC0154E0AA0FA7
:1022A000BB1F5A95E1F7A81BB90BAD50BD4F9D015F
:1022B0002A5F3F4F0CC0F90140815181FA018081B2
:1022C00085FFFCCF2196ED91FC9111979083988129
:1022D000992389F7DF91CF910895282F30E0F901F4
:1022E000A4E0EE0FFF1FAA95E1F7E21BF30BED5000
:1022F000FD4F0680F781E02D808185FFFDCFF9013C
:1023000074E0EE0FFF1F7A95E1F7E21BF30BED503F
:10231000FD4F0190F081E02D6083089590E0FC0175
:10232000B4E0EE0FFF1FBA95E1F7E81BF90BED5093
:10233000FD4F768765870895982FE091F902F09117
:10234000FA02808185FFFDCFE091F302F091F40263
:1023500090830895982F80915305282F30E0F9013C
:1023600044E0EE0FFF1F4A95E1F7E21BF30BED503F
:10237000FD4F0680F781E02D808185FFFDCFF901BB
:1023800084E0EE0FFF1F8A95E1F7E21BF30BED509F
:10239000FD4F0190F081E02D908380E090E0089562
:1023A0008093530585EE92E090932E0780932D073E
:1023B0000895DF93CF93CDB7DEB7CE0108969C0189
:1023C0004E815F8160E470E084E595E00E94B01C7E
:1023D00024E535E08D8190E0DC0154E0AA0FBB1FBD
:1023E0005A95E1F7A81BB90BAD50BD4FAD014A5F3F
:1023F0005F4F0DC0FA0160817181FB01808185FF13
:10240000FCCF2F5F3F4FED91FC9111979083F90125
:102410009081992379F7CF91DF910895CF93DF933E
:102420008091E3069091E406A091E506B091E6065E
:102430000196A11DB11D8093E3069093E406A0933D
:10244000E506B093E6060E94B604E091E106F0913D
:10245000E2063097C9F00480F581E02D0995892BBB
:1024600099F484E995E00E941B08EC0108C0EC8116
:10247000FD81309709F009950990D881C02D2097EA
:10248000B1F720E030E002C021E030E0C901DF9187
:10249000CF9108950F931F938C010E94F0180E9412
:1024A0000C040E942E131093E2060093E106D8015B
:1024B0001896ED91FC91199786E692E1099581E1D4
:1024C00093E00E940C061F910F910895CF93DF9324
:1024D000E091E106F091E2060680F781E02D099592
:1024E000181619062CF584E995E00E941B08EC01EA
:1024F00008C0EA81FB81309709F009950990D881DD
:10250000C02D2097B1F78091E7069091E806A09141
:10251000E906B091EA060196A11DB11D8093E70678
:102520009093E806A093E906B093EA060E94F205AC
:10253000DF91CF910895BC0184E995E00E94910854
:102540000895BC0184E995E00E9437080895DC01F4
:1025500015967C936E931497E0919A05F0919B05E4
:10256000309729F012968D919C91139709950895B3
:10257000DC01CB0113967C936E931297E0919A0540
:10258000F0919B05309729F014966D917C911597E9
:1025900009950895E0919805F0919905309709F013
:1025A00009950895909399058093980508959093BF
:1025B0009B0580939A050895EF92FF920F931F93C6
:1025C000CF93DF937C01EB018A0186E995E00E94BD
:1025D0001B08FC0113C0828193818C179D0759F45D
:1025E000A681B781109761F09801AE01B701CF01C4
:1025F000FD01099505C00190F081E02D309759F754
:10260000DF91CF911F910F91FF90EF90089586E990
:1026100095E00E941B080895BC0186E995E00E94A0
:1026200091080895CF93DF93EC017B836A835D83E8
:102630004C833F832E83BC0186E995E00E943708D6
:10264000E0919A05F0919B05309729F06C817D818E
:102650008A819B810995DF91CF91089586E995E064
:102660000E9417080895FC01818190E0308120E0EC
:10267000822B932B02C0880F991F6A95E2F7892F4E
:102680009927FA01E75EFC4F208130E082239323F3
:1026900028E030E0241B350B02C0969587952A95DB
:1026A000E2F70895CF92DF92EF92FF920F931F937C
:1026B000CF93DF937C018A01A901283031050CF505
:1026C000FB01218130E0908180E0282B392B02C072
:1026D000220F331F0A95E2F7232F3327FA01E75E13
:1026E000FC4F808190E02823392388E090E0841B10
:1026F000950B02C0369527958A95E2F7F70120835E
:1027000075C06901E3E0D594C794EA95E1F7011536
:10271000110521F0DB01C0E0D0E029C0C0E0D0E02D
:10272000F701EC0FFD1FDB01AC0FBD1F8C91808307
:102730002196CC15DD05A4F3477050704115510565
:1027400009F454C06C0F7D1FCE0DDF1DFB013081DD
:1027500020E0232F3327FA01E75EFC4F808190E0D1
:102760002823392388E090E0841B950B39C0F701BA
:10277000EC0FFD1F3C9120E011968C91119790E099
:10278000822B932B002E02C0880F991F0A94E2F728
:10279000908321961196CC15DD054CF3DA01A770D4
:1027A000B070109719F1FB01EC0FFD1FCE0DDF1D6E
:1027B000218130E0908180E0282B392B02C0220F4C
:1027C000331F0A95E2F7232F3327FD01E75EFC4F05
:1027D000808190E02823392388E090E08A1B9B0BBE
:1027E00002C0369527958A95E2F72883DF91CF912D
:1027F0001F910F91FF90EF90DF90CF900895FC0113
:1028000020E030E004C08181280F311D32968081A4
:102810008823C9F7C9010895FC0150E080E190E0E8
:10282000861B970B821B930B02C0440F551F8A9582
:10283000E2F78081852B80838181842B81830895B9
:10284000AF92BF92CF92DF92EF92FF920F931F93BE
:10285000CF93DF938C016A0179012830310584F42C
:10286000FA01208130E080E190E0861B970B8E1901
:102870009F0902C0220F331F8A95E2F7F8016FC04B
:102880005901A3E0B594A794AA95E1F761157105E4
:1028900051F0E801A0E0B0E044275527461B570B54
:1028A000485F5F4F26C0C0E0D0E0F801EC0FFD1F8D
:1028B000D601AC0FBD1F8C9180832196CA15DB0514
:1028C000A4F3A701477050704115510509F44DC09C
:1028D000F801EC0FFD1FCC0DDD1D288130E088E0F4
:1028E00090E0841B950B02C0359527958A95E2F7F9
:1028F0002CC0F601EA0FFB1F808190E0042E02C07D
:10290000880F991F0A94E2F72881292B28832981AF
:10291000282B298311962196AA15BB0554F3A701EC
:10292000477050704115510501F1F801EA0FFB1F86
:10293000AC0DBD1D2C9130E0685F7F4F641B750BA3
:1029400002C0359527956A95E2F730E080E190E086
:10295000841B950B02C0220F331F8A95E2F78081FA
:10296000832B80838181822B8183DF91CF911F9183
:102970000F91FF90EF90DF90CF90BF90AF900895B0
:1029800008952F923F924F925F926F927F928F9213
:102990009F92AF92BF92CF92DF92EF92FF920F93EE
:1029A0001F93DF93CF9300D0CDB7DEB72C01DC01AE
:1029B00016962C9140E050E0822F90E08770907046
:1029C000892B11F041E050E02695269526958A0145
:1029D000020F111DC8010E9449030E948E037C0151
:1029E000A80160E070E00E94391CF20184809580AB
:1029F000AA24BB241E010894211C311C2DC0D40123
:102A000011968C91C82EDD24850183E015950795DC
:102A10008A95E1F7892F8451B7E06B2E712C6A20DB
:102A20007B200E0D1F1D843030F4892F0E94D903A6
:102A30009601AC0107C0892F0E94D0039A83898335
:102A40009601A101B301C8010E942014AC0CBD1C69
:102A5000E2E0F0E08E0E9F1ED4019C91992379F65E
:102A600082E090E00E9449030E948E03FC01D201A3
:102A700012968C91129713969C918083918381E09A
:102A800090E00F900F90CF91DF911F910F91FF90E9
:102A9000EF90DF90CF90BF90AF909F908F907F90FE
:102AA0006F905F904F903F902F9008954F925F925C
:102AB0006F927F928F929F92AF92BF92CF92DF924E
:102AC000EF92FF920F931F93DF93CF9300D000D02C
:102AD000CDB7DEB70E9481038C0182E090E00E94B6
:102AE0005D03F801918180E02081820F911D0E9499
:102AF00013064C01009709F456C00E9481035C0143
:102B0000F401268140E050E0822F90E087709070C1
:102B1000892B11F041E050E0269526952695CA01B3
:102B2000820F911D0E945D03F40104811581CC2464
:102B3000DD2433E0432E512C4C0E5D1E3E010894E3
:102B4000611C711C2CC0F8018181E82EFF24B601A4
:102B500023E0759567952A95E1F79451A601477092
:102B600050706A0D7B1D943050F49701C3010E9490
:102B70005213B301F80180810E94E1030CC01C8252
:102B80001B829701C2010E9452136B817C81F80164
:102B900080810E94C503CE0CDF1C0E5F1F4FF80121
:102BA0009081992381F6C4010F900F900F900F90A0
:102BB000CF91DF911F910F91FF90EF90DF90CF9019
:102BC000BF90AF909F908F907F906F905F904F904D
:102BD0000895E0919F05F091A005309719F08EE3DC
:102BE00093E0099508959093A00580939F0508951B
:102BF000E0919D05F0919E050680F781E02D0995F5
:102C00000895E0919D05F0919E05892B29F006809D
:102C1000F781E02D099508950084F185E02D09954F
:102C200008950F931F93DF93CF93CDB7DEB7A4978B
:102C30000FB6F894DEBF0FBECDBF0E940C04E0912A
:102C40009D05F0919E05028113810E94810360E839
:102C500070E0F80109958C01181619060CF04FC0A8
:102C60000E947C030E948103AE014F5F5F4F602F83
:102C70000E94F918882309F442C08CA19801281BEE
:102C80003109C9010E945D03892BC9F12E812223DC
:102C900061F18A859B853BEA8D3C930719F08F5F34
:102CA0009F4F69F5223071F028E030E0BE01645F8B
:102CB0007F4F21503040FB01E20FF31F80818F3F97
:102CC00021F007C022E030E0F1CF121613068CF39A
:102CD0000CC085E10E94E10385E10E94D90367EB06
:102CE00076E00E941E05892B51F0BE01605F7F4F88
:102CF00084E10E94E1030E94AF039C0102C020E036
:102D000030E0C901A4960FB6F894DEBF0FBECDBF68
:102D1000CF91DF911F910F910895EF92FF920F9342
:102D20001F93DF93CF93CDB7DEB7A4970FB6F89478
:102D3000DEBF0FBECDBFFE01319684E2DF011D92E2
:102D40008A95E9F781E089831A821B8282E10E94D9
:102D5000D0038C831D821F8280919C0589878F5FA1
:102D600080939C0503E008878DEC9BEA9B878A870C
:102D700085E10E94D90367E372E00E941E05892B5A
:102D800031F082E08E838FEF8C878D8709C085E1DB
:102D90000E94D903BC01CE010C960E9416050E8339
:102DA0008DEC9BEA9F878E8767EB76E0CE0140969D
:102DB0000E9416050E9481039BA38AA30E94AF0371
:102DC0008CA37E010894E11CF11CC7010E940F1B1B
:102DD000082F90E00E944903892B19F420E030E08D
:102DE00016C00E948E03402FBC01C7010E94391AF1
:102DF000E0919D05F0919E05E080F1800E94B9036D
:102E00008C010E948E03B801F70109959C01C9014C
:102E1000A4960FB6F894DEBF0FBECDBFCF91DF9161
:102E20001F910F91FF90EF9008950F931F938C01C6
:102E300082E293E00E947B1C0E94B41780939C0561
:102E400010939E0500939D05D8011496ED91FC9179
:102E5000159789EE95E10995E0919D05F0919E0504
:102E60000680F781E02D09958EE393E01F910F9185
:102E70000895CF93DF93C1EED2E004C060E070E02C
:102E80000E94DB07899199910097C1F7DF91CF915B
:102E90000895CF93DF93EC0102C00E94E806899168
:102EA00099910097D1F7DF91CF910895CF93DF9358
:102EB000EC0104C060E070E00E94DB078991999109
:102EC0000097C1F7DF91CF910895FC018081918136
:102ED00022813381820F931F918380830895EF9223
:102EE000FF920F931F93FC01E080F1800281138118
:102EF0000E94F00F0E0D1F1D081B190BC8011F911A
:102F00000F91FF90EF9008950F931F938C010E94F3
:102F1000F00F40E050E0F80120813181821B930BDB
:102F2000228133818217930710F041E050E0CA01FB
:102F30001F910F9108950F931F938C010E94F00F22
:102F4000F801918380831F910F9108950F931F9330
:102F50008C01FC01738362830E94F00FF80191835E
:102F600080831F910F9108950E94201C08950E9454
:102F7000251C0895382F20E080E042E137FF02C091
:102F80002D9A01C02D982F9A942F9A95F1F7880FBA
:102F90001E9981602F98942F9A95F1F72F5F283012
:102FA00011F0330FEBCF08955D980E94BA175D9A28
:102FB0000895CF92DF92EF92FF920F931F93CF93DA
:102FC000DF93D62E172F7A015D980E94BA17C82E6C
:102FD0002D2D312FC901EC010EE413E00FC08881C3
:102FE00090E09F938F931F930F930E94401C8991B1
:102FF0000E94BA170F900F900F900F909E012D19FD
:10300000822F90E08E159F0550F35D9A8C2DDF91F5
:10301000CF911F910F91FF90EF90DF90CF90089587
:1030200084E593E00E947B1C8AB180668AB984B1F2
:10303000806A84B98BB180668BB95E9A8AB12BB1F4
:1030400044B165B190E09F938F9330E03F932F930D
:1030500050E05F934F9370E07F936F9389E693E026
:103060009F938F930E94401C8DB79EB70A960FB610
:10307000F8949EBF0FBE8DBF0895FC0180819181A1
:103080000895CF93DF93EC01BC018AE993E00E949D
:10309000891B892B21F0BE016E5F7F4F0CC0BE01E2
:1030A00082EA93E00E94891B892B19F460E070E0AA
:1030B00002C06A817B81CB01DF91CF9108951F937C
:1030C000CF93DF93EC01BC018AE993E00E94891B56
:1030D000892B71F0FE0161917191CF010E94F00482
:1030E000C154DF4FBE01CE0188970E9438041EC034
:1030F000BE0182EA93E00E94891B892BB9F00E94ED
:103100000C04688179818A819B810E94F004898DF9
:1031100090E00E944903198D0E948E039E012C5F4E
:103120003F4F412F50E0B9010E94301CDF91CF91F9
:103130001F910895CF93DF93EC01BC018AE993E0DE
:103140000E94891B892B21F0BE018AE993E00AC005
:10315000BE0182EA93E00E94891B892B29F0BE01FF
:1031600082EA93E00E945B1BDF91CF9108950F9359
:103170001F93CF93DF930E949803892BB1F082EACB
:1031800093E00E942D1BEC01009769F00E94AF03B1
:10319000998388830E94AA039B838A83CE01049625
:1031A0000E949A04898F8E0115C08AE993E00E94DB
:1031B0002D1BEC018C01009769F002960E945A04C5
:1031C00099838883BE0161547F4FCE0189569F4FFA
:1031D0000E944904C801DF91CF911F910F9108957A
:1031E0008AE993E00E94AC1B82EA93E00E94AC1B48
:1031F0000895BF92CF92DF92EF92FF920F931F93A9
:10320000DF93CF93CDB7DEB728970FB6F894DEBF24
:103210000FBECDBF6C01B62E7A0182E0861708F092
:10322000C3C0F6019081892F87708983892F869585
:103230008695869581708A83892F829581708B838C
:10324000929596959770892F81708C839695917041
:103250009D839181892F8695869583708E83929523
:103260009F70892F83708F83969596959887DA0142
:10327000FE01319688E001900D928150E1F7F60150
:103280008281F701808786010D5F1F4F3E813323C6
:10329000A1F1F801918180E0F6012381820F911D57
:1032A000F7019287818786010B5F1F4F323091F4BF
:1032B00067E372E0C7010B960E941605F801818151
:1032C000F7018387F6018581F70184878601095F0D
:1032D0001F4F1CC03330D1F4F601D701960128509E
:1032E000304084851B968C931B9731971196E2177B
:1032F000F307B9F7085F1F4F09C067E372E0C70122
:103300000B960E941605F701128611863885332325
:10331000C1F18D81882361F4F801918180E02081E1
:10332000820F911DF701968785870E5F1F4F05C09D
:10333000F7018185928596878587323089F467E326
:1033400072E0C7010F960E941605F8018181F7010E
:103350008787F8018081F701808B0E5F1F4F1AC0AD
:103360003330C1F4D801F70190E017968C9117978C
:1033700087879F5F119731969830B9F7085F1F4F85
:1033800009C067E372E0C7010F960E941605F701B6
:1033900016861586902F9C198B2D891BF70183A308
:1033A00012A301A3B91608F490E0892F28960FB64E
:1033B000F894DEBF0FBECDBFCF91DF911F910F916B
:1033C000FF90EF90DF90CF90BF900895CF93DF9361
:1033D000FC01DB0185E0EB0119928A95E9F7858113
:1033E00090E083709070892B11F082E08C9387813C
:1033F00090E083709070892B21F082E012968C937C
:103400001297858190E083709070892B99F0878165
:1034100090E083709070892B69F0258536858185D1
:1034200092852817390731F481E0848312961C9223
:10343000129701C0148285818370823021F083301D
:1034400021F488E003C082E001C080E011968C93F3
:10345000119787818370823021F0833021F488E0D6
:1034600003C082E001C080E013968C93DF91CF917E
:103470000895CF92DF92EF92FF920F931F93DF9305
:10348000CF9300D000D00F92CDB7DEB77C016B0197
:10349000042FBE016F5F7F4F0E94E61949818A8128
:1034A00090E0840F911D03962B81820F911D2C813A
:1034B000820F911D2D81820F911D10E008171907B1
:1034C00014F480E09EC0D70111962C91119730E042
:1034D00021703070F3E0220F331FFA95E1F7129656
:1034E0008C91129790E081709070E4E0880F991FA2
:1034F000EA95E1F7282B8C918770282B13968C91F5
:10350000139790E08170907075E0880F991F7A95FD
:10351000E1F7282B14968C91149790E081709070AD
:1035200066E0880F991F6A95E1F7282BF601208342
:1035300015962C91159730E023703070220F331FB1
:10354000220F331F16968C91169790E0837090701F
:1035500034E0880F991F3A95E1F7282B17968C9144
:1035600017978295880F880F807C822B818318960D
:103570008C918283423011F043E00AC0D701199642
:103580008C911997F60183831A968C91848345E078
:103590003A81A32FB0E01A96AE0DBF1D20E007C000
:1035A000F601E90FF11D8C9180832F5F1197922F07
:1035B000940F2317A9F78B81823081F4F601E90F6C
:1035C000F11DD7011D968C911D9780839F5FF60199
:1035D000E90FF11D1E968C9180839F5F3C81A32F84
:1035E000B0E01E96AE0DBF1D20E007C0F601E80F4B
:1035F000F11D8C9180832F5F1197822F890F2317E4
:10360000A9F70F900F900F900F900F90CF91DF912F
:103610001F910F91FF90EF90DF90CF900895DF936F
:10362000CF9300D000D00F92CDB7DEB7BE016F5F51
:103630007F4F0E94E61989819A81890F8D5F9B8156
:10364000890F9C81890F9D81890F0F900F900F909A
:103650000F900F90CF91DF910895DC0112964D915C
:103660005C91139720E030E01FC01496ED91FC911F
:103670001597E20FF31F80818823A1F481E08083F6
:103680008D919C911197AC01249FC001259F900DB5
:10369000349F900D112416962D913C911797280F69
:1036A000391F07C02F5F3F4F24173507F0F220E086
:1036B00030E0C9010895DC0116962D913C911797D1
:1036C0001296ED91FC91139740E050E01DC0261733
:1036D000370799F41496ED91FC911597E40FF51FB7
:1036E0008081181614F4815080831496ED91FC911A
:1036F0001597E40FF51F808108958D919C91119786
:10370000280F391F4F5F5F4F4E175F0700F38FEF92
:103710000895FC01AB01668177814617570718F4BD
:1037200020E030E017C0A0E08081918122813381C8
:10373000FC01E29FC001E39F900DF29F900D1124C8
:10374000680F791F4617570708F0A1E081E0A82706
:103750002A2F30E0C90108950F931F938C01FC01BB
:103760004281538160E070E0848195810E94391C20
:10377000F8012281338180819181AC01249FC001B5
:10378000259F900D349F900D1124AC0160E070E0F6
:10379000868197810E94391C1F910F910895A0E0A6
:1037A000B0E0E5EDFBE10C94C31FEC01A880B9800B
:1037B000CA80DB80A114B104C104D10441F484E2C5
:1037C000A82E89EDB82E8BE5C82E87E0D82EC6012D
:1037D000B5012DE133EF41E050E00E94A01F27EA40
:1037E00031E440E050E00E94811F7B018C01C60162
:1037F000B5012DE133EF41E050E00E94A01FCA0166
:10380000B9012CEE34EF4FEF5FEF0E94811F6E0D78
:103810007F1D801F911F97FF04C061507040804042
:103820009048688379838A839B839B013F77C90192
:10383000CDB7DEB7EAE00C94DF1F0E94CF1B0895DE
:1038400080EB93E00E94CF1B0895A0E0B0E080934E
:10385000B0039093B103A093B203B093B303089560
:10386000FB01DC0102C001900D9241505040D8F79D
:103870000895DC0101C06D9341505040E0F7089578
:10388000A0E0B0E0E6E4FCE10C94CB1FFE0135962D
:1038900061917191AF0180912D0790912E070E9447
:1038A000DB1C2096E2E00C94E71FA0E0B0E0EBE523
:1038B000FCE10C94CB1FFE01359661917191A091B2
:1038C0002D07B0912E0713968C911397886013964D
:1038D0008C93AF0180912D0790912E070E94DB1CE5
:1038E000E0912D07F0912E072381277F23832096D7
:1038F000E2E00C94E71F0F931F93CF93DF938C01AB
:10390000E0912D07F0912E07838181FF21C0C0E057
:10391000D0E00DC0E0912D07F0912E072085318574
:10392000BF01F9010995892B11F0CFEFDFEFF80105
:1039300081918F01882371F7E0912D07F0912E0777
:1039400020853185BF018AE0F9010995892B11F0A5
:10395000CFEFDFEFCE01DF91CF911F910F9108954F
:10396000AEE0B0E0E6EBFCE10C94C91F8C01FA017B
:1039700077FF02C060E070E8615070407E836D8325
:103980001A83098386E08C83A901BF01CE010196C9
:103990000E94DB1C2D813E8137FD09C0EF81F88537
:1039A0002E173F070CF4F901E00FF11F10822E963D
:1039B000E4E00C94E51FABE0B0E0E1EEFCE10C9438
:1039C000BB1F3C012B015A01FC0117821682838127
:1039D00081FD03C06FEF7FEFC8C19AE0892E1E0101
:1039E0000894211C311CF3012381F20123FD8591F0
:1039F00023FF81912F01882309F4B4C1853239F462
:103A000023FD859123FF81912F01853229F4B30194
:103A100090E00E94D01EE7CF982FDD24CC2499247B
:103A2000FFE1FD15D0F09B3269F09C3228F4903212
:103A300059F0933291F40EC09D3249F0903369F4FD
:103A400041E024C052E0D52A84E0D82A28C098E07A
:103A5000D92A25C0E0E1DE2A22C0D7FC29C0892F5F
:103A600080538A3070F4D6FE05C0989C902C1124A7
:103A7000980E15C0C89CC02C1124C80EF0E2DF2A95
:103A80000EC09E3229F4D6FC6DC140E4D42A07C092
:103A90009C3619F450E8D52A02C0983649F4F20150
:103AA00023FD959123FF91912F01992309F0B8CF20
:103AB000892F8554833018F08052833038F444E0E5
:103AC00050E0A40EB51E5FE359830FC0933631F06A
:103AD000933779F0933509F056C020C0F501808105
:103AE000898342E050E0A40EB51E710101E010E0B0
:103AF00012C0F501E080F180D6FC03C06FEF7FEFCC
:103B000002C0692D70E042E050E0A40EB51EC7016E
:103B10000E94C51E8C015FE7D52214C0F501E0802C
:103B2000F180D6FC03C06FEF7FEF02C0692D70E01B
:103B300042E050E0A40EB51EC7010E94BA1E8C01DF
:103B400050E8D52AD3FE07C01AC0B30180E290E046
:103B50000E94D01ECA948C2D90E008171907A8F374
:103B60000EC0F701D7FC8591D7FE81917F01B3018B
:103B700090E00E94D01EC110CA940150104001155F
:103B8000110579F7ECC0943611F0993671F5D7FE2E
:103B900008C0F501E080F1800281138144E050E02B
:103BA0000AC0F501808191817C010027F7FC009516
:103BB000102F42E050E0A40EB51E5FE6D52217FF9D
:103BC0000AC010950095F094E094E11CF11C011DD1
:103BD000111D80E8D82A2AE030E0A101C801B70110
:103BE0000E94FC1EF82EF21840C0953729F41D2DB6
:103BF0001F7E2AE030E01DC01D2D197F9F3661F029
:103C0000903720F4983509F0ADC00FC0903739F0E7
:103C1000983709F0A7C004C028E030E00AC010615E
:103C200014FD146020E130E004C014FD166020E1B2
:103C300032E017FF08C0F5016081718182819381B4
:103C400044E050E008C0F50180819181BC0180E032
:103C500090E042E050E0A40EB51EA1010E94FC1EBF
:103C6000F82EF2188FE7D82ED122D6FE0BC05EEFC9
:103C7000D522F91438F4D4FE07C0D2FC05C08FEE6B
:103C8000D82202C01F2D01C0192DD4FE0DC0FE0187
:103C9000EF0DF11D8081803319F499EED92208C00F
:103CA0001F5FD2FE05C003C08D2D867809F01F5F0F
:103CB0000D2DD3FC14C0D0FE0FC01C1510F09F2C8E
:103CC0000BC09F2C9C0C911A1C2D06C0B30180E2E6
:103CD00090E00E94D01E1F5F1C15C0F304C01C158D
:103CE00010F4C11A01C0CC2404FF10C0B30180E35A
:103CF00090E00E94D01E02FF1EC001FD03C088E7B5
:103D000090E002C088E590E0B3010CC0802F867877
:103D100091F001FF02C08BE201C080E2D7FC8DE28E
:103D2000B30190E00E94D01E06C0B30180E390E092
:103D30000E94D01E9A94F914C0F3FA94F101EF0D89
:103D4000F11DB301808190E00E94D01EFF20A9F7F1
:103D500006C0B30180E290E00E94D01ECA94CC203D
:103D6000C1F741CEF30166817781CB012B96E2E169
:103D70000C94D71FFC010590615070400110D8F7DA
:103D8000809590958E0F9F1F0895FC0161507040A3
:103D900001900110D8F7809590958E0F9F1F089580
:103DA0000F931F93CF93DF938C01EB018B8181FFE6
:103DB0001BC082FF0DC02E813F818C819D81281701
:103DC000390764F4E881F9810193F983E88306C037
:103DD000E885F985802F0995892B31F48E819F81A3
:103DE00001969F838E8302C00FEF1FEFC801DF9102
:103DF000CF911F910F910895FA01AA27283051F110
:103E0000203181F1E8946F936E7F6E5F7F4F8F4F0B
:103E10009F4FAF4FB1E03ED0B4E03CD0670F781F6A
:103E2000891F9A1FA11D680F791F8A1F911DA11D4F
:103E30006A0F711D811D911DA11D20D009F4689488
:103E40003F912AE0269F11243019305D3193DEF630
:103E5000CF010895462F4770405D4193B3E00FD0E6
:103E6000C9F7F6CF462F4F70405D4A3318F0495DD1
:103E700031FD4052419302D0A9F7EACFB4E0A695B4
:103E80009795879577956795BA95C9F700976105D6
:103E9000710508959B01AC010A2E0694579547952C
:103EA00037952795BA95C9F7620F731F841F951F21
:103EB000A01D089597FB092E07260AD077FD04D090
:103EC0000CD006D000201AF4709561957F4F0895AC
:103ED000F6F7909581959F4F0895AA1BBB1B51E162
:103EE00007C0AA1FBB1FA617B70710F0A61BB70B6A
:103EF000881F991F5A95A9F780959095BC01CD010F
:103F00000895629FD001739FF001829FE00DF11D23
:103F1000649FE00DF11D929FF00D839FF00D749F43
:103F2000F00D659FF00D9927729FB00DE11DF91FEF
:103F3000639FB00DE11DF91FBD01CF01112408954C
:103F400097FB092E05260ED057FD04D04BD00AD082
:103F5000001C38F450954095309521953F4F4F4FB8
:103F60005F4F0895F6F790958095709561957F4F16
:103F70008F4F9F4F08952F923F924F925F926F9273
:103F80007F928F929F92AF92BF92CF92DF92EF92E9
:103F9000FF920F931F93CF93DF93CDB7DEB7CA1B6A
:103FA000DB0B0FB6F894DEBF0FBECDBF09942A8895
:103FB000398848885F846E847D848C849B84AA843D
:103FC000B984C884DF80EE80FD800C811B81AA81CA
:103FD000B981CE0FD11D0FB6F894DEBF0FBECDBF95
:103FE000ED010895A1E21A2EAA1BBB1BFD010DC015
:103FF000AA1FBB1FEE1FFF1FA217B307E407F50799
:1040000020F0A21BB30BE40BF50B661F771F881F74
:10401000991F1A9469F760957095809590959B010A
:0C402000AC01BD01CF010895F894FFCF62
:10402C000A5374617274696E67206E524632344C56
:10403C003031205246207465737420737569746531
:10404C002E2E2E0074696D656F75742C206C6F7339
:10405C007420636F6E6E656374696F6E21210063EB
:10406C00746C2074696D656F75743A2025640A0050
:10407C0043544C5F5245515F53594E4300676F7424
:10408C002074656D706572617475726521210074A0
:10409C00696D656F75742C20676F20746F206C6967
:1040AC007374656E696E670074696D656F75743ACB
:1040BC002025640A0050524F42455F52455300413F
:1040CC0053534F4349415F52455300415554484562
:1040DC004E5F52455300434F4E4E454354454400AA
:1040EC004552524F522C206C697374656E2E2E2ED5
:1040FC00006C697374656E2E2E2E0050524F424523
:10410C00445F524551006C697374656E696E67004B
:10411C004153534F4349415F524551004155544817
:10412C005F5245510043544C5F53594E435F5245C7
:10413C005300524620746573742052582070726F6D
:10414C006365737300000012023A01000000002541
:10415C00020000DB02F603000067051410000000EB
:10416C00004576656E742074696D657200000041BF
:10417C00027C09000000006E524632344C30312073
:10418C00726563656976657200000057026E0A00FD
:10419C000000006B0D010D540A620BC60B9B0A2A22
:1041AC002A2A2A5761726E696E672121212C2053AD
:1041BC00656E736F722069732062726F6B656E210E
:1041CC0021212A2A2A2A00436F6E74696B692032D6
:1041DC002E34000A2A2A2A2A2A2A2A426F6F746944
:1041EC006E672025732A2A2A2A2A2A2A0A004D4178
:1041FC004320616464726573732025783A25780ACC
:10420C00004D0200000000000200000000AA110096
:10421C00000000C600C500C400C000C100C2000000
:10422C000000CE00CD00CC00C800C900CA000000C0
:10423C00005615C114FF13C0140080C0E0F0F8FC48
:10424C00FEFF0A736963736C6F776D61635F696EF0
:10425C00697400736963736C6F776D61630033030A
:10426C0015178D161116F315F81501160000307878
:10427C0025782C000A207370695F696E697420734D
:10428C0074617274696E6720000A20504F52544258
:10429C003D307825782C20444452423D30782578A6
:1042AC002C20504F5254443A307825782C204444DA
:1042BC0052443D30782578200A00C7000100A10542
:1042CC00A2051A00010069066A0600000000000041
:0442DC0001000000DD
:00000001FF
