:100000000C94FF000C944B0E0C941C010C941C01DE
:100010000C941C010C941C010C941C010C941C01EC
:100020000C941C010C941C010C941C010C941C01DC
:100030000C941C010C941C010C941C010C941C01CC
:100040000C94EC0F0C941C010C941C010C941C01DE
:100050000C9450100C941C010C9444100C941C0132
:100060000C941C010C941C010C941C010C941C019C
:100070000C948A100C941C010C947E106E726632E3
:10008000346C30315F70726F63657373206E6F74A0
:1000900020726563656976696E672066756E637444
:1000A000696F6E0A006E726632346C30315F696F50
:1000B00063746C2C2072783D307825780A006E725B
:1000C0006632346C30315F696F63746C2C207478E5
:1000D0003D307825780A000A6E726632346C303111
:1000E0005F696E697420656E640A000A206E72662C
:1000F00032346C30315F696E69742073746172746C
:100100002C206D6F64653A202564200A00726632E7
:1001100033303A20426164204352430A007266320F
:10012000333020696E7465726E616C206F6E202DA5
:100130002C2073746174653A307825780A007266F1
:1001400032333020696E7465726E616C206F6E2080
:100150002B0A00726632333020696E7465726E61EC
:100160006C206F6E202D2C2073746174653A30788A
:1001700025780A00726632333020696E7465726EBB
:10018000616C206F66660A0074785F726573756CC7
:10019000743D307825780A006973725F74797065F0
:1001A0003D307825780A00706F776572203D2030E9
:1001B0007825780A006661696C65642C20746F7418
:1001C000616C5F6C656E3D25642062797465730AAD
:1001D000000A726632346C30315F6F6E0A007266EC
:1001E0003233305F6F66660A002E006E72663234FC
:1001F0006C30315F7761697469646C65000011244B
:100200001FBECFEFD0E1DEBFCDBF13E0A0E0B1E075
:10021000E8E8FFE302C005900D92AC37B107D9F7CB
:1002200016E0ACE7B3E001C01D92AA3FB107E1F7C9
:100230000E947D0F0C94C21F0C940000EF92FF925D
:100240001F93CF93DF93EC0188819981009729F068
:100250008C3A910509F072C13FC080E091E00E94A4
:10026000291C0E94230680934D0682E1E3E9F3E016
:10027000DF011D928A95E9F78DE0E6E8F3E0DF0102
:100280001D928A95E9F78AE0809388038EEF809328
:1002900082031092810383E080938303109285038D
:1002A00081E0809384034BEF51E060E870E08DEAD9
:1002B00093E00E941B0510927E03609183038DE7FB
:1002C000689FB001112485EA93E00E94170A8CEA26
:1002D00090E0998388830CC080914D06681751F097
:1002E00085EA93E00E94B00880937E03882311F48E
:1002F00081E027C185EA93E00E940C0A10927C03FA
:10030000E0904502F090460241E050E06CE773E077
:1003100080E090E0F701099520918503223009F5EE
:100320001092850380918403843028F22093860301
:1003300081E080938703E9E8F3E08AE0DF011D9222
:100340008A95E9F783E080938303BF01685070408A
:10035000CF0103970E94D70E10927C0384E291E0B4
:100360003EC0213009F075C090918403953008F0AB
:10037000A2CF80917E038823B1F080917D038330EA
:1003800078F0109285032093840310927D038CE211
:1003900091E09F938F930E94EE1B0F900F908BCF55
:1003A0008F5F80937D03923061F511E01093860397
:1003B00090938703E9E8F3E08AE0DF011D928A95D4
:1003C000E9F783E080938303BF0168507040CF0159
:1003D00003970E94D70E10937C0386E391E00E945E
:1003E000291C6DE070E086E893E00E94C0048DEA6D
:1003F00093E00E940A0580937F03882309F08EC052
:1004000069C09330D9F411E01093860384E080939F
:100410008703E9E8F3E08AE0DF011D928A95E9F7B6
:1004200090938303BF0168507040CF0103970E94EF
:10043000D70E10937C0386E491E0D1CF943019F469
:100440001092850304C081E591E00E94291C81E09F
:100450003EC0109184031130D1F4109386031092A2
:100460008703E9E8F3E08AE0DF011D928A95E9F766
:1004700083E080938303BF0168507040CF010397EE
:100480000E94D70E10937C0384E691E0A8CF14302D
:10049000C9F483E08093860310928703E9E8F3E0D0
:1004A0008AE0DF011D928A95E9F785E08093830356
:1004B000CF0108970E940D0F81E080937C038EE6A8
:1004C00091E08DCF84E891E00E94291C82E0809326
:1004D0008303F1CE80918403843001F58091800301
:1004E0008F5F80938003863008F4E5CE90E09F9381
:1004F0008F9384E991E09F938F930E94EE1B10925B
:10050000800381E08093840383E0809383031092CF
:1005100085030F900F900F900F90CDCE1092800317
:1005200080917C03813009F0C6CE41E050E06CE759
:1005300073E080E090E0F7010995BDCE1982188242
:1005400083E0DF91CF911F91FF90EF9008950F937B
:100550001F93CF93DF930E947F030E945103EC010E
:1005600018811130F1F500918403802F8150833080
:1005700008F056C0109385031981113099F40130A9
:1005800009F04EC0BE0183E993E00E94BF0E8823AC
:1005900031F482E08093840381EB91E01FC00093EB
:1005A000840336C0133089F40230D1F5BE0181E8EE
:1005B00093E00E94F50E882329F4109384038BEBBB
:1005C00091E00CC01092840323C0153049F503302C
:1005D00039F584E08093840387EC91E00E94291C24
:1005E00017C01230E9F4809184038430C9F482ED9D
:1005F00091E00E94291C109385038981882381F44E
:10060000A6E8B3E0FE018DE001900D928150E1F784
:1006100041E853E060914D068DEE91E00E9478072D
:10062000DF91CF911F910F91089585E18093BC03D5
:100630000895AC012091BC03822F90E04817590720
:1006400034F4241B2093BC0321E030E004C010925A
:10065000BC0320E030E0C90108954091B8035091F7
:10066000B9039C014817590718F420E030E012C084
:100670008091BA039091BB03820F931F9093BB03A9
:100680008093BA03421B530B5093B9034093B803B2
:1006900021E030E0C90108959093B9038093B80335
:1006A00008958091BA039091BB0345962091FD0176
:1006B0003091FE01280F391FC90108958091BC03B4
:1006C0002091FD013091FE01280F311DC9010895CF
:1006D00040E050E08091FD019091FE01459620910F
:1006E000BD033091BE032817390711F041E050E0F7
:1006F000CA0108958091BD039091BE030895809131
:10070000B8039091B90308959091BC0385E1891BCA
:10071000089585E19091BC03891B2091B803309125
:10072000B903280F311DC9010895E82FF0E0EE0F3D
:10073000FF1FE85AF94F7183608381E090E00895CC
:10074000E82FF0E0EE0FFF1FE85AF94F808191810A
:100750000895282F30E0220F331F285D394FC9013B
:10076000089590E0880F991F885D994F0E94E604D4
:1007700081E090E00895E8E5F6E01192119286E0BC
:10078000E038F807D1F76FEF71E080E596E00E945E
:10079000E6046FEF71E082E596E00E94E6046FEFF9
:1007A00071E084E596E00E94E6046FEF71E086E573
:1007B00096E00E94E60408951092BB031092BA03DB
:1007C0001092B9031092B80385E18093BC03809125
:1007D000FD019091FE0145969093BE038093BD0369
:1007E0000E94BB030895EF92FF920F931F938C0119
:1007F0007B010E94DC031093BE030093BD03F092C3
:10080000B903E092B8031F910F91FF90EF90089504
:10081000A8E5B6E0FC0188E201900D928150E1F775
:10082000A0E5B6E0FB0188E001900D928150E1F770
:100830000895DC01E8E5F6E088E201900D92815030
:10084000E1F7DB01E0E5F6E088E001900D928150F0
:10085000E1F70895EF92FF920F931F937C0180912F
:10086000BC0390E005E110E0B801681B790B209112
:10087000FD013091FE01280F391FAB01B901C701FD
:100880000E94DE1B8091BC03081B11090E0D1F1D69
:100890002091BD033091BE038091BA039091BB03B8
:1008A000280F391F4091B8035091B903B901C8010D
:1008B0000E94DE1B2091B8033091B9032B5E3F4F9D
:1008C0008091BC03281B3109C9011F910F91FF9032
:1008D000EF9008950F931F932091BC0330E005E142
:1008E00010E0B801621B730BE091FD01F091FE0175
:1008F000E20FF31FAB01BF010E94DE1B8091BC031E
:10090000081B1109C8011F910F9108952091BD0383
:100910003091BE036091FD017091FE01FB0175965F
:100920002E173F0749F04091B8035091B903B90120
:10093000CF010E94DE1B08958091BA039091BB0302
:100940000097E9F04091B8035091B9034B5E5F4FB7
:10095000DB01A80FB91F25E130E009C0FB01E20F60
:10096000F31F54968C91549780832F5F3F4F1196BD
:10097000241735079CF31092BB031092BA03089515
:10098000EF92FF920F931F93F82EE92E162F072F49
:100990000E94DC03212F302FC9018C018138910581
:1009A00010F000E810E0A8016F2D7E2D8091BD03AE
:1009B0009091BE030E94DE1B1093B9030093B8030D
:1009C000C8011F910F91FF90EF900895DC01FB018A
:1009D00080818C93818111968C930895FC01DB01B9
:1009E00090818C91981719F020E030E009C020E048
:1009F000918111968C91981321E081E0282730E0B5
:100A0000C9010895FC0180818093800681818093D3
:100A1000810608950F931F938C0160E876E084E1CE
:100A20000E94B103C8010E9468051F910F910895AB
:100A30000E946B050895CF92DF92EF92FF920F9381
:100A40001F938C016B017A0141E052E00E946E0518
:100A5000F801F286E18663E072E0C6010E940906B1
:100A60001F910F91FF90EF90DF90CF900895EF923C
:100A7000FF920F931F93DF93CF9300D0CDB7DEB7D4
:100A80008C0184E10E94A903BC017E010894E11C51
:100A9000F11CC7010E94E604D8011996ED91FC9162
:100AA0001A970190F081E02DB701C80109950F90C8
:100AB0000F90CF91DF911F910F91FF90EF900895CC
:100AC000FC01A781B0852D913C91F901099508950C
:100AD0000E949A0508950E94FA050895CF92DF9228
:100AE000EF92FF920F931F938C016B017A010E948A
:100AF0000006F801F086E78267E072E0C6010E9416
:100B000009061F910F91FF90EF90DF90CF9008950D
:100B1000E0915504F0915604309741F00480F5813E
:100B2000E02D309719F009959C0102C020E030E0DB
:100B3000C90108950F931F93CF93DF93EC01E091C8
:100B40005504F09156043097A9F00280F381E02D0E
:100B500009958C016A817B8181E00E949503012BBC
:100B600049F00E94BC1120E030E0892B29F421E0FB
:100B700030E002C020E030E0C901DF91CF911F9149
:100B80000F910895CF93DF93E0915504F0915604AF
:100B9000309779F00190F081E02D0995EC010097F4
:100BA00041F06A817B8181E00E949503CE010E9421
:100BB0006005DF91CF91089590935604809355047A
:100BC0000E941E060895CF93DF93EC0187E594E021
:100BD0000E94EB07FC0108C0828193818C179D075E
:100BE00029F00190F081E02D3097B1F7CF01DF912E
:100BF000CF910895BC0187E594E00E9461080895B3
:100C0000FC0173836283BC0187E594E00E940708BE
:100C100008950F931F93CF93DF938B010E94E305F9
:100C2000EC01009731F01D830C83C8010E948805F8
:100C30008E83DF91CF911F910F91089587E594E006
:100C40000E94E7070895809165048F5F8093650493
:100C5000815008951F93CF93DF93EC01162F888561
:100C600080FF1CC0EC81FD813097C1F0D0935C0403
:100C7000C0935B0482E08887CE0106960995992788
:100C800087FD90950297029710F0133829F4BE0162
:100C9000CE010E94520602C081E08887DF91CF9189
:100CA0001F910895CF92DF92EF92FF920F931F93BF
:100CB000CF93DF938C017B01C0905B04D0905C04E8
:100CC000DC0118968C911897882341F118961C9294
:100CD000C0915904D0915A040BC00C171D0729F07C
:100CE000A80167E8CE010E942A060990D881C02D8C
:100CF000209799F7D8011496ED91FC9115973097AC
:100D000069F00E151F0551F010935C0400935B040D
:100D100040E050E063E8C80106960995E091590467
:100D2000F0915A040E171F07A1F4F80180819181F8
:100D300090935A04809359040EC08081918180174A
:100D4000910731F4D8018D919C919183808303C0E8
:100D5000FC01309791F7D0925C04C0925B04DF9164
:100D6000CF911F910F91FF90EF90DF90CF9008955A
:100D700060915B0470915C040E94520608958AE8B9
:100D800080936504109267041092660410925A04CE
:100D90001092590410925C0410925B0408951F9302
:100DA000CF93DF93809108058823C1F01092080546
:100DB000C0915904D0915A0411E00EC0898588234E
:100DC00041F01887198640E050E062E8CE010E94A9
:100DD0002A060990D881C02D209781F720916604BA
:100DE000222309F470C08091670490E0FC01EE0FAB
:100DF000FF1FEE0FFF1FE80FF91FE859FB4F60813F
:100E0000609364044181528150936304409362046F
:100E10000380F481E02DF0936104E0936004019677
:100E20008F719070809367042150209366043097EF
:100E300009F042C08091590490915A0490935F0444
:100E400080935E0411E031C0809108058823B9F0D9
:100E500010920805C0915904D0915A040EC089859A
:100E6000882341F01887198640E050E062E8CE01FF
:100E70000E942A060990D881C02D209781F74091C1
:100E80006204509163046091640480915E049091C7
:100E90005F040E942A06E0915E04F0915F04808165
:100EA000918190935F0480935E0480915E049091A1
:100EB0005F04892B49F607C0613811F481E080870F
:100EC000CF010E942A06809108052091660430E037
:100ED000280F311DC901DF91CF911F910895809195
:100EE00008052091660430E0280F311DC9010895DE
:100EF000DC0120916604203219F421E030E01AC0B0
:100F000080916704820F8F7180935D0490E0FC01F3
:100F1000EE0FFF1FEE0FFF1FE80FF91FE859FB4F01
:100F2000608352834183B483A3832F5F209366043D
:100F300020E030E0C90108950F931F9300915B04F6
:100F400010915C040E942A0610935C0400935B04D9
:100F50001F910F910895DC014091590450915A045A
:100F6000CA01FC0103C00190F081E02DEA17FB07E4
:100F7000B9F03097C1F74C9311965C931197B093E9
:100F80005A04A093590481E018968C9318971796E9
:100F90001C921E921697AB0161E8CD010E949C073E
:100FA0000895FC01009741F080858150823020F443
:100FB00081E0818780930805089520E030E0FC01FE
:100FC0008085882311F021E030E0C9010895FC01FB
:100FD000118210820895FC01808191810895FC01A5
:100FE000DB018D919C91918380830895FC01019098
:100FF000F081E02D309719F420E030E006C09F0129
:101000000190F081E02D3097D1F7C9010895CF9379
:10101000DF93EC01DB0111961C921E92888199816D
:10102000009751F0FC01CF010190F081E02D309745
:10103000D1F7FC01009719F46883798302C0B1836A
:10104000A083DF91CF910895DC01FB018D919C91EC
:101050001197918380836D937C930895CF93DF9351
:10106000EC01E881F981309719F420E030E019C0F3
:10107000DF0180819181892B21F4198218829F01DF
:1010800010C02C9111963C911197AD01C901DC0162
:101090008D919C911197892BA1F7FA0111821082F1
:1010A0009D01C901DF91CF910895DC01ED91FC9183
:1010B0001197309721F0808191818D939C93CF017E
:1010C0000895CF93DF93EC012881398121153105F3
:1010D000D1F0F901A0E0B0E014C0E617F70761F421
:1010E00080819181109719F49983888302C08D9330
:1010F0009C931182108207C0DF01808191819C0145
:10110000F901309751F7DF91CF910895FC010190DB
:10111000F081E02D20E030E005C02F5F3F4F0190CF
:10112000F081E02D3097C9F7C9010895CF93DF937F
:10113000EC01FB01DA016115710541F488819981A7
:1011400011969C938E935983488307C08081918127
:1011500011969C938E9351834083DF91CF91089594
:1011600020E030E0FC0186819781892B11F421E099
:1011700030E0C9010895FC01228133818081918191
:10118000280F391FC9010895FC01808191810895BC
:101190002091090530910A052115310511F021E052
:1011A00030E0C90108958091090590910A05892BC5
:1011B00019F420E030E004C020910B0530910C05BB
:1011C000C90108958091090590910A05892B29F498
:1011D00010920C0510920B0508950E949E0FBC0101
:1011E000E0910905F0910A05428153818081918146
:1011F000480F591F461B570B0CC022813381808139
:101200009181280F391F261B370B2417350708F447
:10121000A9010480F581E02D309779F7460F571F1B
:1012200050930C0540930B050895CF93DF93EC0189
:10123000E0910905F0910A058E179F0741F48C8112
:101240009D8190930A058093090514C0FC01309795
:1012500031F0848195818C179D07C1F707C01D82ED
:101260001C821F821E82DF91CF9108958C819D8107
:10127000958384830E94E208F2CFFC0180819181F2
:10128000860F971F918380830E94E208089585E16D
:1012900092E00E94D1070895EF92FF920F931F935F
:1012A000CF93DF937C01FC0180819181009729F02D
:1012B0008A35910509F06DC00BC010920A05109295
:1012C00009058AE590E0F7019183808381E065C09C
:1012D000673849F59A01E0910905F0910A0503C0C4
:1012E0000480F581E02D309741F386819781821744
:1012F0009307B1F3E0930905F0930A050FC0169622
:101300008D919C9117978217930711F0FD0106C0EC
:1013100014968D919C91159795838483A481B581B2
:10132000109769F7CECF623861F6C0910905D09168
:101330000A0500E010E02AC0CE010E943217892B76
:1013400001F1AE0168E88E819F810E947807892BA8
:10135000A1F41F821E828C819D810115110521F04F
:10136000F8019583848304C090930A05809309054E
:101370001D821C820E94E208D8CF85E192E00E9483
:10138000D1078E018C819D819C01E9012097A1F6F6
:1013900098CFF7011182108283E0DF91CF911F91E6
:1013A0000F91FF90EF900895CF93DF93EC0185E1CB
:1013B00092E00E94D1078E819F81892B69F0E09194
:1013C0000905F0910A0506C0EC17FD07A9F0048095
:1013D000F581E02D3097C1F780915B0490915C041A
:1013E0009F838E838091090590910A059D838C834C
:1013F000D0930A05C09309050E94E208DF91CF91BE
:1014000008950F931F938C010E944917C8010E94F1
:10141000D4091F910F9108950F931F938C010E947F
:101420001317C8010E94D4091F910F9108950F93BB
:101430001F938C010E945417C8010E94D4091F9168
:101440000F91089580E008959093120580931105FF
:10145000089510920F05089580930F0508958091C7
:101460000F0590E0089580930E05089580910E0574
:1014700090E0089581E080930F050895CF93DF9366
:10148000EC0188819981009721F085589240E9F418
:1014900005C085E892E09983888302C0623811F024
:1014A00081E016C0E0911105F0911205309721F00E
:1014B0008BE392E00995EDCF8CE790E09F938F93BB
:1014C0000E94031C0F900F90E4CF1982188283E0D2
:1014D000DF91CF9108950F931F93DF93CF930F92D6
:1014E000CDB7DEB78B016115710519F420E030E04E
:1014F00071C01982009709F05DC0FB0180818823CB
:1015000041F510920F0581E080930E055D9880E013
:101510000E94681780E00E9468175D9A8E7F898319
:101520005E985D9880E20E94681789810E94681722
:101530005D9A5E9A5D9880E00E94681780E00E9444
:10154000681789835D9A90E09F938F938EEB90E06C
:1015500026C010920F0510920E055D9880E00E9443
:10156000681780E00E9468175D9A816089835E98A1
:101570005D9880E20E94681789810E9468175D9AD1
:101580005E9A5D9880E00E94681780E00E9468176C
:1015900089835D9A90E09F938F9385EA90E09F9373
:1015A0008F930E94031C21E030E00F900F900F906A
:1015B0000F9010C0019761F45D9880E00E94681759
:1015C00080E00E94681789835D9A8170F8018083AA
:1015D00021E030E0C9010F90CF91DF911F910F9171
:1015E0000895DF93CF930F92CDB7DEB719828EE3C4
:1015F00091E09F938F930E94031C81E080930D05DF
:101600005D9880E00E94681780E00E9468175D9AEC
:10161000826089835E985D9880E20E946817898164
:101620000E9468175D9A5E9A5D9880E00E94681734
:1016300080E00E94681789835D9A90E09F938F9362
:101640008DE191E09F938F930E94031C8DB79EB70D
:1016500006960FB6F8949EBF0FBE8DBF0F90CF9128
:10166000DF91089581ED91E09F938F930E94031C79
:101670000F900F9080910D05882351F480911305F0
:10168000882321F081E08093140502C00E94F10AB2
:1016900081E090E00895DF93CF930F92CDB7DEB74E
:1016A00084E791E09F938F930E94031C198210920C
:1016B0000D055D9880E00E94681780E00E94681721
:1016C0005D9A8C7F89835E985D9880E20E9468179E
:1016D00089810E9468175D9A5E9A898190E09F9344
:1016E0008F9383E591E09F938F930E94031C8DB7A6
:1016F0009EB706960FB6F8949EBF0FBE8DBF0F9093
:10170000CF91DF91089580911405882321F00E94E4
:10171000F10A1092140580911505882321F00E948A
:101720004B0B109215051092130508958EED91E064
:101730009F938F930E94031C0F900F9080910D0533
:10174000882351F080911305882321F081E0809354
:10175000150502C00E944B0B81E090E008955D9852
:101760000E94681780E00E9468175D9A0895CF93E1
:10177000DF938BEE91E09F938F930E94031C0F9059
:101780000F90C9EED1E08FEF0E94AF0B90E085FD86
:1017900004C080759070892B39F0DF93CF930E943D
:1017A000031C0F900F90EFCFDF91CF910895FF9220
:1017B0000F931F93062FF42E0E94AF0B082310E007
:1017C00002C015950795FA94E2F7802F1F910F91AB
:1017D000FF90089586E00E94AF0B8670869590E09A
:1017E0000895DF92EF92FF920F931F93DF93CF93B1
:1017F0000F92CDB7DEB7D82EF62EE42E022F0E9420
:10180000AF0B898399818F2D80958923898310E07F
:1018100002C0000F111FEA94E2F7F02219815D98CF
:101820008D2D0E9468178F2D812B0E9468175D9A5D
:101830000F90CF91DF911F910F91FF90EF90DF906C
:101840000895282F843008F023E041E066E086E028
:101850000E94F10B08951F93182F90E09F938F9390
:101860008BEE90E09F938F930E94031C10920F05C4
:101870000E94BE17F894E8988091690080936900EF
:101880005298E89A78945E980F900F900F900F906E
:101890001123F1F45D9880E20E9468178CE00E94A9
:1018A00068175D9A5D9884E20E9468178FEF0E9426
:1018B00068175D9A5D9881E30E94681780E20E9434
:1018C00068175D9A5D988CE30E94681781E04DC0AF
:1018D0005D9880E20E9468178DE00E9468175D9A0B
:1018E0005D9882E20E9468178FE30E9468175D9AF4
:1018F0005D9884E20E9468178FEF0E9468175D9AD6
:101900005D9881E30E94681780E20E9468175D9AE3
:101910005D9882E30E94681780E20E9468175D9AD2
:101920005D9883E30E94681780E20E9468175D9AC1
:101930005D9884E30E94681780E20E9468175D9AB0
:101940005D9885E30E94681780E20E9468175D9A9F
:101950005D9886E30E94681780E20E9468175D9A8E
:101960005D988CE30E9468178FE30E9468175D9A68
:101970005D988DE30E94681785E00E9468175D9A64
:101980005E9A87ED90E09F938F930E94031C60E026
:1019900070E081E392E00E94AB070F900F901F91DF
:1019A00008951F939C01109183061123E9F081E0B3
:1019B00080931305412F50E064177507C0F48091A0
:1019C000D4069091D506A091D606B091D70601967F
:1019D000A11DB11D8093D4069093D506A093D60681
:1019E000B093D7060E94830B20E030E041C084E82A
:1019F00096E050E0BC01C9010E94DE1B10928306F4
:101A00008091A5068823A1F08091F0069091F106BF
:101A1000A091F206B091F3060196A11DB11D80932D
:101A2000F0069093F106A093F206B093F3061CC063
:101A30008DE091E09F938F930E94031C8091E006BC
:101A40009091E106A091E206B091E3060196A11DF6
:101A5000B11D8093E0069093E106A093E206B09357
:101A6000E30610E00F900F900E94830B212F30E0CF
:101A7000C9011F910895DF92EF92FF920F931F9378
:101A8000DF93CF93CDB7DEB7C056D0400FB6F894F2
:101A9000DEBF0FBECDBF9C01D62E572F81E08093B5
:101AA00013058091EC069091ED06A091EE06B091A1
:101AB000EF060196A11DB11D8093EC069093ED06F3
:101AC000A093EE06B093EF0680E6861768F4862FA3
:101AD00090E09F938F9385EB91E09F938F930E946B
:101AE000031C0FEF1FEF64C0462FB901CE01019612
:101AF0000E94DE1B8EE00E94A003892BB1F08EE0D5
:101B00000E94A0039F938F9387EA91E09F938F9306
:101B10000E94031C8EE00E94A00381500E94210CB1
:101B20000F900F900F900F9003C080E00E94210C47
:101B30005D9880EA0E9468177E010894E11CF11C00
:101B4000870105C0F80181918F010E946817802FDD
:101B50008E198D15B8F35D9A68ED70E480E090E021
:101B60000E94B20E80910F058823B1F3813011F4E9
:101B700080E010C0823071F090E09F938F9388E9ED
:101B800091E09F938F930E94031C83E00F900F902E
:101B90000F900F9010920F05082F10E01F930F93D6
:101BA00088E891E09F938F930E94031C0E94830B0F
:101BB0000F900F900F900F90C801C05ADF4F0FB6D3
:101BC000F894DEBF0FBECDBFCF91DF911F910F9173
:101BD000FF90EF90DF90089588E00E94AF0B90E0B7
:101BE00024E0959587952A95E1F70F9771F481EE9A
:101BF0000E9482175D9885E20E94681782E00E9429
:101C000068175D9A82E080930F05089583E08093C2
:101C10000F0581E392E00E94D10708950F931F936F
:101C2000CF93DF935D9881E60E94681704E816E081
:101C3000E80180E00E946817899386E0C43AD807DB
:101C4000C1F75D9A80E28093830620E030E0F801DE
:101C500081918F012827022E2295207F2025032E97
:101C6000322F22952F700226269532272327220F06
:101C7000220F220F2025F6E0043A1F0741F781E0EA
:101C80008093A5061092A4060E94060EDF91CF91C4
:101C90001F910F9108951F920F920FB60F9211246A
:101CA0002F933F934F935F936F937F938F939F9364
:101CB000AF93BF93EF93FF93DF93CF930F92CDB783
:101CC000DEB7198210920F058FEF0E948217898369
:101CD000898186FF0DC080910E05882309F58981D1
:101CE0008770863010F40E940E0E8981806417C0C0
:101CF000898185FF09C080910E05813089F4809328
:101D00000F05898180620BC0898184FF09C08091A1
:101D10000E05813029F40E94EC0D89818061898350
:101D20005D9887E20E94681789810E9468175D9A12
:101D30000F90CF91DF91FF91EF91BF91AF919F9164
:101D40008F917F916F915F914F913F912F910F9064
:101D50000FBE0F901F9018958115910511F00197F6
:101D6000F1F70895DC01CB0181159105A105B105BD
:101D700029F081509040A040B040D9F70895DC018F
:101D8000FB01009791F06115710579F0838111963F
:101D90008C93119784818C93858112968C931297E2
:101DA000868113968C9380E008958FEF0895DC016F
:101DB000FB010097C1F061157105A9F081811396AF
:101DC0008C931397808114968C9314978281159627
:101DD0008C931597838116968C93169784E01296B0
:101DE0008C9380E008958FEF0895DC01FB0100974C
:101DF00091F06115710579F0838111968C9311979B
:101E000084818C93858112968C9312978681139688
:101E10008C9380E008958FEF0895FC01009719F4EA
:101E20002FEF3FEF0AC08181808782E281878EEEAB
:101E3000828783E0878320E030E0C901089587E44A
:101E400092E09F938F930E94EE1B0F900F9080E083
:101E50000895DF93CF9300D0CDB7DEB746E06CE0B6
:101E600080E00E94B81080E00E947E110E94820FE4
:101E70008FE692E09F938F938BE792E09F938F93EF
:101E80000E94EE1B0E94BF0681E00E942B0C8BE398
:101E900092E00E94C3160E94F8111A8219820E94D1
:101EA000621760E071E00E94081F89838F5F8A8358
:101EB000CE0101960E9402058A8190E09F938F9344
:101EC000898190E09F938F9386E992E09F938F930F
:101ED0000E94EE1B0E94E71687EF91E00E94041714
:101EE0008DB79EB70A960FB6F8949EBF0FBE8DBFF2
:101EF0000F900F90CF91DF9108950E94290F0E94BB
:101F0000CF06FDCFF8941092B60016BC8FE187BDC6
:101F100092E094BD84E085BD85B385BB90936E004F
:101F200010921905109218058091180590911905C5
:101F300090931B0580931A057894089520911805B5
:101F400030911905809118059091190528173907C6
:101F5000A9F7C901089507C022E330E0000021502D
:101F60003040E1F701970097B9F70895BC0140911F
:101F70001805509119058091180590911905481779
:101F80005907A9F720911805309119058091180576
:101F90009091190528173907A9F7241B350B261727
:101FA000370780F3089508952091A6063091A7067B
:101FB0004091A8065091A9068091A6069091A70687
:101FC000A091A806B091A906281739074A075B0710
:101FD00059F7B901CA0108951F920F920FB60F92D7
:101FE00011242F933F934F935F936F937F938F931E
:101FF0009F93AF93BF93EF93FF93809118059091B8
:1020000019050196909319058093180580911A057A
:1020100090911B05019690931B0580931A05809162
:102020001A0590911B058D379105B9F410921B0587
:1020300010921A058091A6069091A706A091A80675
:10204000B091A9060196A11DB11D8093A60690939B
:10205000A706A093A806B093A9060E94C808892BDA
:1020600011F00E944709FF91EF91BF91AF919F91AD
:102070008F917F916F915F914F913F912F910F9031
:102080000FBE0F901F9018951F920F920FB60F92D0
:1020900011241092C7020F900FBE0F901F90189539
:1020A0001F920F920FB60F9211242F933F934F93CD
:1020B0005F936F937F938F939F93AF93BF93EF93B0
:1020C000FF93E091BB02F091BC028081E091C802D5
:1020D000F091C902309709F00995FF91EF91BF91F6
:1020E000AF919F918F917F916F915F914F913F91B0
:1020F0002F910F900FBE0F901F9018951F920F9267
:102100000FB60F9211241092D6020F900FBE0F90AF
:102110001F9018951F920F920FB60F9211242F93B4
:102120003F934F935F936F937F938F939F93AF935F
:10213000BF93EF93FF93E091CA02F091CB028081AD
:10214000E091D702F091D802309709F00995FF91FC
:10215000EF91BF91AF919F918F917F916F915F911F
:102160004F913F912F910F900FBE0F901F90189598
:1021700090E0FC0124E0EE0FFF1F2A95E1F7E81B39
:10218000F90BE554FD4FA281B3811C92A481B58166
:102190006C93A085B18588E98C93A285B3854C9317
:1021A0001486168615860895CF93DF939B0190E0E1
:1021B000DC0144E0AA0FBB1F4A95E1F7A81BB90B4D
:1021C000A554BD4FED0126960BC0E881F9818081B1
:1021D00085FFFDCFED91FC91119790832F5F3F4FCD
:1021E000F9019491992389F7DF91CF910895CF93C5
:1021F000DF93EB0190E0DC0154E0AA0FBB1F5A957E
:10220000E1F7A81BB90BA554BD4F9D012A5F3F4FB5
:102210000CC0F90140815181FA01808185FFFCCF1A
:102220002196ED91FC91119790839881992389F7DC
:10223000DF91CF910895282F30E0F901A4E0EE0F4F
:10224000FF1FAA95E1F7E21BF30BE554FD4F068053
:10225000F781E02D808185FFFDCFF90174E0EE0F5D
:10226000FF1F7A95E1F7E21BF30BE554FD4F019058
:10227000F081E02D6083089590E0FC01B4E0EE0F62
:10228000FF1FBA95E1F7E81BF90BE554FD4F768780
:1022900065870895982FE091C102F091C202808174
:1022A00085FFFDCFE091BB02F091BC0290830895C1
:1022B000982F80911C05282F30E0F90144E0EE0FA3
:1022C000FF1F4A95E1F7E21BF30BE554FD4F068033
:1022D000F781E02D808185FFFDCFF90184E0EE0FCD
:1022E000FF1F8A95E1F7E21BF30BE554FD4F0190C8
:1022F000F081E02D908380E090E0089580931C05AC
:102300008DEA92E09093F7068093F6060895DF93A6
:10231000CF93CDB7DEB7CE0108969C014E815F8189
:1023200060E470E08DE195E00E945E1C2DE135E0F7
:102330008D8190E0DC0154E0AA0FBB1F5A95E1F7B4
:10234000A81BB90BA554BD4FAD014A5F5F4F0DC02F
:10235000FA0160817181FB01808185FFFCCF2F5FD5
:102360003F4FED91FC9111979083F9019081992352
:1023700079F7CF91DF910895CF93DF938091AC06E9
:102380009091AD06A091AE06B091AF060196A11D49
:10239000B11D8093AC069093AD06A093AE06B093AA
:1023A000AF060E948604E091AA06F091AB06309732
:1023B000C9F00480F581E02D0995892B99F48DE50C
:1023C00095E00E94EB07EC0108C0EC81FD8130979D
:1023D00009F009950990D881C02D2097B1F720E028
:1023E00030E002C021E030E0C901DF91CF910895D3
:1023F0000F931F938C010E949E180E94DC030E9481
:10240000DC121093AB060093AA06D8011896ED9142
:10241000FC91199784E192E1099589ED92E00E947F
:10242000DC051F910F910895CF93DF93E091AA06E9
:10243000F091AB060680F781E02D09951816190674
:102440002CF58DE595E00E94EB07EC0108C0EA81D0
:10245000FB81309709F009950990D881C02D20970C
:10246000B1F78091B0069091B106A091B206B091FB
:10247000B3060196A11DB11D8093B0069093B106DD
:10248000A093B206B093B3060E94C205DF91CF912C
:102490000895BC018DE595E00E9461080895BC0196
:1024A0008DE595E00E9407080895DC0115967C9360
:1024B0006E931497E0916305F0916405309729F0CD
:1024C00012968D919C91139709950895DC01CB018B
:1024D00013967C936E931297E0916305F0916405D7
:1024E000309729F014966D917C9115970995089570
:1024F000E0916105F0916205309709F00995089522
:10250000909362058093610508959093640580938C
:1025100063050895EF92FF920F931F93CF93DF937C
:102520007C01EB018A018FE595E00E94EB07FC013D
:1025300013C0828193818C179D0759F4A681B781BE
:10254000109761F09801AE01B701CF01FD01099527
:1025500005C00190F081E02D309759F7DF91CF91C0
:102560001F910F91FF90EF9008958FE595E00E94E5
:10257000EB070895BC018FE595E00E94610808957E
:10258000CF93DF93EC017B836A835D834C833F832E
:102590002E83BC018FE595E00E940708E09163055A
:1025A000F0916405309729F06C817D818A819B814F
:1025B0000995DF91CF9108958FE595E00E94E70797
:1025C0000895FC01818190E0308120E0822B932BE3
:1025D00002C0880F991F6A95E2F7892F9927FA019F
:1025E000EF51FD4F208130E08223932328E030E03B
:1025F000241B350B02C0969587952A95E2F708951E
:10260000CF92DF92EF92FF920F931F93CF93DF93BE
:102610007C018A01A901283031050CF5FB012181DB
:1026200030E0908180E0282B392B02C0220F331F2D
:102630000A95E2F7232F3327FA01EF51FD4F8081EE
:1026400090E02823392388E090E0841B950B02C09A
:10265000369527958A95E2F7F701208375C06901C1
:10266000E3E0D594C794EA95E1F70115110521F04F
:10267000DB01C0E0D0E029C0C0E0D0E0F701EC0F02
:10268000FD1FDB01AC0FBD1F8C9180832196CC1503
:10269000DD05A4F3477050704115510509F454C08D
:1026A0006C0F7D1FCE0DDF1DFB01308120E0232F3D
:1026B0003327FA01EF51FD4F808190E02823392321
:1026C00088E090E0841B950B39C0F701EC0FFD1FEB
:1026D0003C9120E011968C91119790E0822B932BE6
:1026E000002E02C0880F991F0A94E2F7908321966A
:1026F0001196CC15DD054CF3DA01A770B070109778
:1027000019F1FB01EC0FFD1FCE0DDF1D218130E023
:10271000908180E0282B392B02C0220F331F0A95AD
:10272000E2F7232F3327FD01EF51FD4F808190E029
:102730002823392388E090E08A1B9B0B02C0369542
:1027400027958A95E2F72883DF91CF911F910F910A
:10275000FF90EF90DF90CF900895FC0120E030E0F3
:1027600004C08181280F311D329680818823C9F7EA
:10277000C9010895FC0150E080E190E0861B970BB1
:10278000821B930B02C0440F551F8A95E2F780818C
:10279000852B80838181842B81830895AF92BF92A2
:1027A000CF92DF92EF92FF920F931F93CF93DF931D
:1027B0008C016A0179012830310584F4FA01208105
:1027C00030E080E190E0861B970B8E199F0902C0D4
:1027D000220F331F8A95E2F7F8016FC05901A3E079
:1027E000B594A794AA95E1F76115710551F0E80138
:1027F000A0E0B0E044275527461B570B485F5F4FCA
:1028000026C0C0E0D0E0F801EC0FFD1FD601AC0FF0
:10281000BD1F8C9180832196CA15DB05A4F3A70107
:10282000477050704115510509F44DC0F801EC0F87
:10283000FD1FCC0DDD1D288130E088E090E0841B79
:10284000950B02C0359527958A95E2F72CC0F601C5
:10285000EA0FFB1F808190E0042E02C0880F991FB1
:102860000A94E2F72881292B28832981282B2983A0
:1028700011962196AA15BB0554F3A7014770507015
:102880004115510501F1F801EA0FFB1FAC0DBD1D0B
:102890002C9130E0685F7F4F641B750B02C035954B
:1028A00027956A95E2F730E080E190E0841B950B74
:1028B00002C0220F331F8A95E2F78081832B808329
:1028C0008181822B8183DF91CF911F910F91FF90A6
:1028D000EF90DF90CF90BF90AF90089508952F9222
:1028E0003F924F925F926F927F928F929F92AF92A0
:1028F000BF92CF92DF92EF92FF920F931F93DF93DD
:10290000CF9300D0CDB7DEB72C01DC0116962C9109
:1029100040E050E0822F90E087709070892B11F09A
:1029200041E050E02695269526958A01020F111D5B
:10293000C8010E9419030E945E037C01A80160E0A7
:1029400070E00E94E71BF20184809580AA24BB24DA
:102950001E010894211C311C2DC0D40111968C91AC
:10296000C82EDD24850183E0159507958A95E1F74A
:10297000892F8451B7E06B2E712C6A207B200E0DBD
:102980001F1D843030F4892F0E94A9039601AC01E9
:1029900007C0892F0E94A0039A8389839601A10111
:1029A000B301C8010E94CE13AC0CBD1CE2E0F0E004
:1029B0008E0E9F1ED4019C91992379F682E090E0BF
:1029C0000E9419030E945E03FC01D20112968C91B1
:1029D000129713969C918083918381E090E00F90F1
:1029E0000F90CF91DF911F910F91FF90EF90DF90AB
:1029F000CF90BF90AF909F908F907F906F905F909F
:102A00004F903F902F9008954F925F926F927F92D8
:102A10008F929F92AF92BF92CF92DF92EF92FF92EE
:102A20000F931F93DF93CF9300D000D0CDB7DEB7C5
:102A30000E9451038C0182E090E00E942D03F80176
:102A4000918180E02081820F911D0E94E3054C015D
:102A5000009709F456C00E9451035C01F4012681DD
:102A600040E050E0822F90E087709070892B11F049
:102A700041E050E0269526952695CA01820F911DCA
:102A80000E942D03F40104811581CC24DD2433E060
:102A9000432E512C4C0E5D1E3E010894611C711C8E
:102AA0002CC0F8018181E82EFF24B60123E0759542
:102AB00067952A95E1F79451A601477050706A0D09
:102AC0007B1D943050F49701C3010E940013B301A1
:102AD000F80180810E94B1030CC01C821B82970107
:102AE000C2010E9400136B817C81F80180810E94E9
:102AF0009503CE0CDF1C0E5F1F4FF80190819923C8
:102B000081F6C4010F900F900F900F90CF91DF913D
:102B10001F910F91FF90EF90DF90CF90BF90AF90FB
:102B20009F908F907F906F905F904F900895E0916D
:102B30006805F0916905309719F086E093E00995F2
:102B4000089590936905809368050895E09166055E
:102B5000F09167050680F781E02D09950895E091D1
:102B60006605F0916705892B29F00680F781E02D35
:102B7000099508950084F185E02D099508950F9336
:102B80001F93DF93CF93CDB7DEB7A4970FB6F8941A
:102B9000DEBF0FBECDBF0E94DC03E0916605F09161
:102BA0006705028113810E94510360E870E0F8011B
:102BB00009958C01181619060CF04FC00E944C03A1
:102BC0000E945103AE014F5F5F4F602F0E94A71814
:102BD000882309F442C08CA19801281B3109C9013E
:102BE0000E942D03892BC9F12E81222361F18A8550
:102BF0009B853BEA8D3C930719F08F5F9F4F69F5EA
:102C0000223071F028E030E0BE01645F7F4F215038
:102C10003040FB01E20FF31F80818F3F21F007C09E
:102C200022E030E0F1CF121613068CF30CC085E1E0
:102C30000E94B10385E10E94A90360E876E00E944A
:102C4000EE04892B51F0BE01605F7F4F84E10E944A
:102C5000B1030E947F039C0102C020E030E0C90163
:102C6000A4960FB6F894DEBF0FBECDBFCF91DF9113
:102C70001F910F910895EF92FF920F931F93DF938F
:102C8000CF93CDB7DEB7A4970FB6F894DEBF0FBED3
:102C9000CDBFFE01319684E2DF011D928A95E9F7EE
:102CA00081E089831A821B8282E10E94A0038C83C7
:102CB0001D821F828091650589878F5F80936505DE
:102CC00003E008878DEC9BEA9B878A8785E10E9459
:102CD000A9036FEF71E00E94EE04892B31F082E0CE
:102CE0008E838FEF8C878D8709C085E10E94A903B1
:102CF000BC01CE010C960E94E6040E838DEC9BEA8B
:102D00009F878E8760E876E0CE0140960E94E604B9
:102D10000E9451039BA38AA30E947F038CA37E0180
:102D20000894E11CF11CC7010E94BD1A082F90E015
:102D30000E941903892B19F420E030E016C00E948C
:102D40005E03402FBC01C7010E94E719E0916605B0
:102D5000F0916705E080F1800E9489038C010E9458
:102D60005E03B801F70109959C01C901A4960FB64D
:102D7000F894DEBF0FBECDBFCF91DF911F910F91B1
:102D8000FF90EF9008950F931F938C018AEE92E0CD
:102D90000E94291C0E9462178093650510936705A5
:102DA00000936605D8011496ED91FC91159787E97B
:102DB00095E10995E0916605F09167050680F78138
:102DC000E02D099586E093E01F910F910895CF9330
:102DD000DF93C9EAD2E004C060E070E00E94AB0774
:102DE000899199910097C1F7DF91CF910895CF9381
:102DF000DF93EC0102C00E94B80689919991009777
:102E0000D1F7DF91CF910895CF93DF93EC0104C008
:102E100060E070E00E94AB07899199910097C1F73B
:102E2000DF91CF910895FC018081918122813381CE
:102E3000820F931F918380830895EF92FF920F93E7
:102E40001F93FC01E080F180028113810E949E0F9C
:102E50000E0D1F1D081B190BC8011F910F91FF902C
:102E6000EF9008950F931F938C010E949E0F40E0F6
:102E700050E0F80120813181821B930B2281338144
:102E80008217930710F041E050E0CA011F910F91A3
:102E900008950F931F938C010E949E0FF801918358
:102EA00080831F910F9108950F931F938C01FC0154
:102EB000738362830E949E0FF801918380831F9128
:102EC0000F9108950E94CE1B08950E94D31B089570
:102ED000382F20E080E042E137FF02C02D9A01C088
:102EE0002D982F9A942F9A95F1F7880F1E9981604B
:102EF0002F98942F9A95F1F72F5F283011F0330F08
:102F0000EBCF08955D980E9468175D9A0895CF925F
:102F1000DF92EF92FF920F931F93CF93DF93D62E02
:102F2000172F7A015D980E946817C82E2D2D312F1A
:102F3000C901EC0106E113E00FC0888190E09F9386
:102F40008F931F930F930E94EE1B89910E94681725
:102F50000F900F900F900F909E012D19822F90E0EF
:102F60008E159F0550F35D9A8C2DDF91CF911F91A7
:102F70000F91FF90EF90DF90CF9008958CE193E058
:102F80000E94291C8AB180668AB984B1806A84B99A
:102F90008BB180668BB95E9A8AB12BB144B165B1B1
:102FA00090E09F938F9330E03F932F9350E05F9397
:102FB0004F9370E07F936F9381E393E09F938F93A0
:102FC0000E94EE1B8DB79EB70A960FB6F8949EBF6F
:102FD0000FBE8DBF0895FC01808191810895CF932C
:102FE000DF93EC01BC0182E693E00E94371B892B42
:102FF00021F0BE016E5F7F4F0CC0BE018AE693E0F8
:103000000E94371B892B19F460E070E002C06A81CE
:103010007B81CB01DF91CF9108951F93CF93DF93F5
:10302000EC01BC0182E693E00E94371B892B71F012
:10303000FE0161917191CF010E94C004C154DF4F24
:10304000BE01CE0188970E9408041EC0BE018AE618
:1030500093E00E94371B892BB9F00E94DC03688142
:1030600079818A819B810E94C004898D90E00E94B1
:103070001903198D0E945E039E012C5F3F4F412F63
:1030800050E0B9010E94DE1BDF91CF911F9108959E
:10309000CF93DF93EC01BC0182E693E00E94371BE3
:1030A000892B21F0BE0182E693E00AC0BE018AE6C8
:1030B00093E00E94371B892B29F0BE018AE693E03A
:1030C0000E94091BDF91CF9108950F931F93CF9317
:1030D000DF930E946803892BB1F08AE693E00E9497
:1030E000DB1AEC01009769F00E947F0399838883C3
:1030F0000E947A039B838A83CE0104960E946A040D
:10310000898F8E0115C082E693E00E94DB1AEC01E4
:103110008C01009769F002960E942A0499838883A3
:10312000BE0161547F4FCE0189569F4F0E94190402
:10313000C801DF91CF911F910F91089582E693E02E
:103140000E945A1B8AE693E00E945A1B0895BF9280
:10315000CF92DF92EF92FF920F931F93DF93CF9363
:10316000CDB7DEB728970FB6F894DEBF0FBECDBF40
:103170006C01B62E7A0182E0861708F0C3C0F60112
:103180009081892F87708983892F8695869586956A
:1031900081708A83892F829581708B839295969511
:1031A0009770892F81708C83969591709D83918102
:1031B000892F8695869583708E8392959F70892F2F
:1031C00083708F83969596959887DA01FE013196E4
:1031D00088E001900D928150E1F7F6018281F701BC
:1031E000808786010D5F1F4F3E813323A1F1F801D7
:1031F000918180E0F6012381820F911DF701928772
:10320000818786010B5F1F4F323091F46FEF71E0C1
:10321000C7010B960E94E604F8018181F7018387BC
:10322000F6018581F70184878601095F1F4F1CC065
:103230003330D1F4F601D70196012850304084850F
:103240001B968C931B9731971196E217F307B9F7EA
:10325000085F1F4F09C06FEF71E0C7010B960E9416
:10326000E604F7011286118638853323C1F18D817A
:10327000882361F4F801918180E02081820F911D03
:10328000F701968785870E5F1F4F05C0F70181857F
:10329000928596878587323089F46FEF71E0C70198
:1032A0000F960E94E604F8018181F7018787F801F3
:1032B0008081F701808B0E5F1F4F1AC03330C1F43D
:1032C000D801F70190E017968C91179787879F5F39
:1032D000119731969830B9F7085F1F4F09C06FEF0B
:1032E00071E0C7010F960E94E604F7011686158665
:1032F000902F9C198B2D891BF70183A312A301A387
:10330000B91608F490E0892F28960FB6F894DEBF1E
:103310000FBECDBFCF91DF911F910F91FF90EF9026
:10332000DF90CF90BF900895CF93DF93FC01DB0136
:1033300085E0EB0119928A95E9F7858190E0837029
:103340009070892B11F082E08C93878190E08370DC
:103350009070892B21F082E012968C9312978581D0
:1033600090E083709070892B99F0878190E0837052
:103370009070892B69F0258536858185928528177F
:10338000390731F481E0848312961C92129701C0B0
:10339000148285818370823021F0833021F488E0AB
:1033A00003C082E001C080E011968C931197878161
:1033B0008370823021F0833021F488E003C082E002
:1033C00001C080E013968C93DF91CF910895CF9246
:1033D000DF92EF92FF920F931F93DF93CF9300D072
:1033E00000D00F92CDB7DEB77C016B01042FBE0178
:1033F0006F5F7F4F0E94941949818A8190E0840F0A
:10340000911D03962B81820F911D2C81820F911D9E
:103410002D81820F911D10E00817190714F480E028
:103420009EC0D70111962C91119730E02170307019
:10343000F3E0220F331FFA95E1F712968C91129761
:1034400090E081709070E4E0880F991FEA95E1F7B1
:10345000282B8C918770282B13968C91139790E0D2
:103460008170907075E0880F991F7A95E1F7282B8D
:1034700014968C91149790E08170907066E0880F9C
:10348000991F6A95E1F7282BF601208315962C9158
:10349000159730E023703070220F331F220F331F37
:1034A00016968C91169790E08370907034E0880F98
:1034B000991F3A95E1F7282B17968C9117978295CB
:1034C000880F880F807C822B818318968C91828351
:1034D000423011F043E00AC0D70119968C91199738
:1034E000F60183831A968C91848345E03A81A32F59
:1034F000B0E01A96AE0DBF1D20E007C0F601E90F3F
:10350000F11D8C9180832F5F1197922F940F2317B9
:10351000A9F78B81823081F4F601E90FF11DD70103
:103520001D968C911D9780839F5FF601E90FF11D19
:103530001E968C9180839F5F3C81A32FB0E01E96E6
:10354000AE0DBF1D20E007C0F601E80FF11D8C9104
:1035500080832F5F1197822F890F2317A9F70F9070
:103560000F900F900F900F90CF91DF911F910F91BF
:10357000FF90EF90DF90CF900895DF93CF9300D02E
:1035800000D00F92CDB7DEB7BE016F5F7F4F0E94B4
:10359000941989819A81890F8D5F9B81890F9C8104
:1035A000890F9D81890F0F900F900F900F900F90B2
:1035B000CF91DF910895DC0112964D915C911397A4
:1035C00020E030E01FC01496ED91FC911597E20FBA
:1035D000F31F80818823A1F481E080838D919C91E9
:1035E0001197AC01249FC001259F900D349F900D31
:1035F000112416962D913C911797280F391F07C05B
:103600002F5F3F4F24173507F0F220E030E0C9016B
:103610000895DC0116962D913C9117971296ED9125
:10362000FC91139740E050E01DC02617370799F42E
:103630001496ED91FC911597E40FF51F80811816F3
:1036400014F4815080831496ED91FC911597E40F4A
:10365000F51F808108958D919C911197280F391F36
:103660004F5F5F4F4E175F0700F38FEF0895FC0128
:10367000AB01668177814617570718F420E030E0E8
:1036800017C0A0E08081918122813381FC01E29FFB
:10369000C001E39F900DF29F900D1124680F791FD8
:1036A0004617570708F0A1E081E0A8272A2F30E04D
:1036B000C90108950F931F938C01FC01428153812E
:1036C00060E070E0848195810E94E71BF80122810F
:1036D000338180819181AC01249FC001259F900D91
:1036E000349F900D1124AC0160E070E086819781D9
:1036F0000E94E71B1F910F910895A0E0B0E0E3E85E
:10370000FBE10C94711FEC01A880B980CA80DB80BA
:10371000A114B104C104D10441F484E2A82E89EDBE
:10372000B82E8BE5C82E87E0D82EC601B5012DE155
:1037300033EF41E050E00E944E1F27EA31E440E0C1
:1037400050E00E942F1F7B018C01C601B5012DE1C5
:1037500033EF41E050E00E944E1FCA01B9012CEE48
:1037600034EF4FEF5FEF0E942F1F6E0D7F1D801F04
:10377000911F97FF04C0615070408040904868835B
:1037800079838A839B839B013F77C901CDB7DEB7DD
:10379000EAE00C948D1F0E947D1B089588E793E05A
:1037A0000E947D1B0895A0E0B0E080937803909381
:1037B0007903A0937A03B0937B030895FB01DC01A6
:1037C00002C001900D9241505040D8F70895DC019D
:1037D00001C06D9341505040E0F70895A0E0B0E083
:1037E000E4EFFBE10C94791FFE0135966191719134
:1037F000AF018091F6069091F7060E94891C2096F1
:10380000E2E00C94951FA0E0B0E0E9E0FCE10C944C
:10381000791FFE01359661917191A091F606B091E4
:10382000F70613968C911397886013968C93AF01CB
:103830008091F6069091F7060E94891CE091F606A9
:10384000F091F7062381277F23832096E2E00C94F2
:10385000951F0F931F93CF93DF938C01E091F60692
:10386000F091F706838181FF21C0C0E0D0E00DC058
:10387000E091F606F091F70620853185BF01F90148
:103880000995892B11F0CFEFDFEFF80181918F01BE
:10389000882371F7E091F606F091F70620853185CF
:1038A000BF018AE0F9010995892B11F0CFEFDFEF15
:1038B000CE01DF91CF911F910F910895AEE0B0E05E
:1038C000E4E6FCE10C94771F8C01FA0177FF02C05B
:1038D00060E070E8615070407E836D831A830983D5
:1038E00086E08C83A901BF01CE0101960E94891C4C
:1038F0002D813E8137FD09C0EF81F8852E173F07E6
:103900000CF4F901E00FF11F10822E96E4E00C9404
:10391000931FABE0B0E0EFE8FCE10C94691F3C01C1
:103920002B015A01FC0117821682838181FD03C09D
:103930006FEF7FEFC8C19AE0892E1E010894211C09
:10394000311CF3012381F20123FD859123FF819135
:103950002F01882309F4B4C1853239F423FD859100
:1039600023FF81912F01853229F4B30190E00E9459
:103970007E1EE7CF982FDD24CC249924FFE1FD158E
:10398000D0F09B3269F09C3228F4903259F0933297
:1039900091F40EC09D3249F0903369F441E024C0A7
:1039A00052E0D52A84E0D82A28C098E0D92A25C038
:1039B000E0E1DE2A22C0D7FC29C0892F80538A305B
:1039C00070F4D6FE05C0989C902C1124980E15C05A
:1039D000C89CC02C1124C80EF0E2DF2A0EC09E3213
:1039E00029F4D6FC6DC140E4D42A07C09C3619F4F2
:1039F00050E8D52A02C0983649F4F20123FD95918A
:103A000023FF91912F01992309F0B8CF892F855475
:103A1000833018F08052833038F444E050E0A40E34
:103A2000B51E5FE359830FC0933631F0933779F0B9
:103A3000933509F056C020C0F5018081898342E0AA
:103A400050E0A40EB51E710101E010E012C0F501B6
:103A5000E080F180D6FC03C06FEF7FEF02C0692DDC
:103A600070E042E050E0A40EB51EC7010E94731E34
:103A70008C015FE7D52214C0F501E080F180D6FC0F
:103A800003C06FEF7FEF02C0692D70E042E050E0AD
:103A9000A40EB51EC7010E94681E8C0150E8D52AED
:103AA000D3FE07C01AC0B30180E290E00E947E1EE0
:103AB000CA948C2D90E008171907A8F30EC0F701DF
:103AC000D7FC8591D7FE81917F01B30190E00E94E0
:103AD0007E1EC110CA94015010400115110579F7DE
:103AE000ECC0943611F0993671F5D7FE08C0F50197
:103AF000E080F1800281138144E050E00AC0F501CA
:103B0000808191817C010027F7FC0095102F42E015
:103B100050E0A40EB51E5FE6D52217FF0AC010952F
:103B20000095F094E094E11CF11C011D111D80E84A
:103B3000D82A2AE030E0A101C801B7010E94AA1EDC
:103B4000F82EF21840C0953729F41D2D1F7E2AE06B
:103B500030E01DC01D2D197F9F3661F0903720F495
:103B6000983509F0ADC00FC0903739F0983709F09B
:103B7000A7C004C028E030E00AC0106114FD146042
:103B800020E130E004C014FD166020E132E017FFB0
:103B900008C0F501608171818281938144E050E029
:103BA00008C0F50180819181BC0180E090E042E095
:103BB00050E0A40EB51EA1010E94AA1EF82EF21814
:103BC0008FE7D82ED122D6FE0BC05EEFD522F91496
:103BD00038F4D4FE07C0D2FC05C08FEED82202C054
:103BE0001F2D01C0192DD4FE0DC0FE01EF0DF11DDA
:103BF0008081803319F499EED92208C01F5FD2FE6C
:103C000005C003C08D2D867809F01F5F0D2DD3FCF4
:103C100014C0D0FE0FC01C1510F09F2C0BC09F2CA1
:103C20009C0C911A1C2D06C0B30180E290E00E940A
:103C30007E1E1F5F1C15C0F304C01C1510F4C11AB2
:103C400001C0CC2404FF10C0B30180E390E00E94C7
:103C50007E1E02FF1EC001FD03C088E790E002C087
:103C600088E590E0B3010CC0802F867891F001FFC9
:103C700002C08BE201C080E2D7FC8DE2B30190E08C
:103C80000E947E1E06C0B30180E390E00E947E1E6B
:103C90009A94F914C0F3FA94F101EF0DF11DB301F8
:103CA000808190E00E947E1EFF20A9F706C0B3012C
:103CB00080E290E00E947E1ECA94CC20C1F741CEE3
:103CC000F30166817781CB012B96E2E10C94851F8D
:103CD000FC010590615070400110D8F780959095D7
:103CE0008E0F9F1F0895FC016150704001900110DC
:103CF000D8F7809590958E0F9F1F08950F931F936F
:103D0000CF93DF938C01EB018B8181FF1BC082FF7E
:103D10000DC02E813F818C819D812817390764F465
:103D2000E881F9810193F983E88306C0E885F98584
:103D3000802F0995892B31F48E819F8101969F8375
:103D40008E8302C00FEF1FEFC801DF91CF911F914B
:103D50000F910895FA01AA27283051F1203181F1FD
:103D6000E8946F936E7F6E5F7F4F8F4F9F4FAF4F83
:103D7000B1E03ED0B4E03CD0670F781F891F9A1F96
:103D8000A11D680F791F8A1F911DA11D6A0F711D4A
:103D9000811D911DA11D20D009F468943F912AE056
:103DA000269F11243019305D3193DEF6CF0108953E
:103DB000462F4770405D4193B3E00FD0C9F7F6CF6F
:103DC000462F4F70405D4A3318F0495D31FD405237
:103DD000419302D0A9F7EACFB4E0A69597958795CD
:103DE00077956795BA95C9F70097610571050895AC
:103DF0009B01AC010A2E0694579547953795279558
:103E0000BA95C9F7620F731F841F951FA01D0895EF
:103E100097FB092E07260AD077FD04D00CD006D0D8
:103E200000201AF4709561957F4F0895F6F79095EC
:103E300081959F4F0895AA1BBB1B51E107C0AA1F84
:103E4000BB1FA617B70710F0A61BB70B881F991F3B
:103E50005A95A9F780959095BC01CD010895629F70
:103E6000D001739FF001829FE00DF11D649FE00D72
:103E7000F11D929FF00D839FF00D749FF00D659FD3
:103E8000F00D9927729FB00DE11DF91F639FB00DD2
:103E9000E11DF91FBD01CF011124089597FB092EE3
:103EA00005260ED057FD04D04BD00AD0001C38F4A4
:103EB00050954095309521953F4F4F4F5F4F089556
:103EC000F6F790958095709561957F4F8F4F9F4F36
:103ED00008952F923F924F925F926F927F928F92AE
:103EE0009F92AF92BF92CF92DF92EF92FF920F9389
:103EF0001F93CF93DF93CDB7DEB7CA1BDB0B0FB693
:103F0000F894DEBF0FBECDBF09942A88398848884F
:103F10005F846E847D848C849B84AA84B984C884E5
:103F2000DF80EE80FD800C811B81AA81B981CE0FDC
:103F3000D11D0FB6F894DEBF0FBECDBFED010895C1
:103F4000A1E21A2EAA1BBB1BFD010DC0AA1FBB1F9D
:103F5000EE1FFF1FA217B307E407F50720F0A21B0F
:103F6000B30BE40BF50B661F771F881F991F1A947C
:103F700069F760957095809590959B01AC01BD01A6
:083F8000CF010895F894FFCF72
:103F88000A5374617274696E67206E524632344CFB
:103F980030312052462074657374207375697465D6
:103FA8002E2E2E0043544C5F5245530074696D65A4
:103FB8006F75742121004153534F43494154494E71
:103FC800475F5245510041555448454E5F5245514F
:103FD80000436F6E6E656374696E67204552524F79
:103FE8005221210050524F42455F524551006361B2
:103FF80070747572652074656D7065726174757220
:1040080065212100576F726B696E67204552524FC8
:10401800522121006661696C2025642074696D65F0
:10402800732C20446973636F6E6E65637421210A73
:104038000050524F42455F524553004153534F433E
:1040480049415F5245530041555448454E5F5245DA
:10405800530043544C5F52455100524620746573D7
:10406800742054582070726F63657373000000DA0F
:10407800011E0100000000ED010000A702BF0300BF
:104088000037051410000000004576656E74207432
:10409800696D657200000009024C09000000006E9D
:1040A800524632344C3031207265636569766572E8
:1040B8000000001F023E0A000000003B0DD10C2446
:1040C8000A320B960B6B0A2A2A2A2A5761726E69E2
:1040D8006E672121212C2053656E736F72206973DE
:1040E8002062726F6B656E2121212A2A2A2A0043D9
:1040F8006F6E74696B6920322E34000A2A2A2A2AC4
:104108002A2A2A426F6F74696E672025732A2A2A21
:104118002A2A2A2A0A004D41432061646472657381
:10412800732025783A25780A00150200000000005F
:104138000200000000581100000000C600C500C4BD
:1041480000C000C100C200000000CE00CD00CC00BD
:10415800C800C900CA0000000004156F14AD136E32
:10416800140080C0E0F0F8FCFEFF0A736963736C0A
:104178006F776D61635F696E697400736963736CEF
:104188006F776D616300FB02C3163B16BF15A1155F
:10419800A615AF150000307825782C000A2073701A
:1041A800695F696E6974207374617274696E6720DF
:1041B800000A20504F5254423D307825782C204434
:1041C8004452423D307825782C20504F5254443A7E
:1041D800307825782C20444452443D307825782086
:1041E8000A00C70001006A056B051A0001003206C3
:0C41F80033060000000000000100000081
:00000001FF
