:100000000C943E000C94E8010C945B000C945B0093
:100010000C945B000C945B000C945B000C945B00F4
:100020000C945B000C945B000C945B000C945B00E4
:100030000C945B000C945B000C945B000C945B00D4
:100040000C945B000C945B000C945B000C945B00C4
:100050000C945B000C945B000C945B000C945B00B4
:100060000C945B000C945B000C945B000C945B00A4
:100070000C945B000C945B000C945B0011241FBE7D
:10008000CFEFD0E1DEBFCDBF12E0A0E0B1E0E0E015
:10009000FEE002C005900D92A03AB107D9F713E037
:1000A000A0EAB2E001C01D92A436B107E1F70E94B8
:1000B000CC020C94FE060C9400009B01AC0188E974
:1000C0008093C10084E0220F331F441F551F8A957F
:1000D000D1F760E472E48FE090E00E94DE032150EB
:1000E0002093C4000895982F8091C00085FFFCCF15
:1000F0009093C60080E090E008958091C00087FF53
:10010000FCCF8091C60090E00895382F20E080E079
:1001100042E137FF02C02D9A01C02D982F9A942FEB
:100120009A95F1F7880F1E9981602F98942F9A95D0
:10013000F1F72F5F283011F0330FEBCF08951F93A5
:10014000162F5C980E948500812F0E9485005C9A82
:100150001F9108955C980E94850080E00E948500B0
:100160005C9A08955C980E9485005C9A0895CF92ED
:10017000DF92EF92FF920F931F93CF93DF936B0168
:100180007A015C980E948500082F10E007C08FEF6D
:100190000E948500CC0DDD1D88831F5FC12FD0E03C
:1001A000CE15DF05A0F35C9A802FDF91CF911F91D0
:1001B0000F91FF90EF90DF90CF900895DF92EF9234
:1001C000FF920F931F93CF93DF938B017A015C987B
:1001D0000E948500D82EE80103C089910E94850005
:1001E0009E01201B822F90E08E159F05B0F35C9A34
:1001F0008D2DDF91CF911F910F91FF90EF90DF90A8
:1002000008951F93FC01009711F410E00BC0618961
:10021000728981E644E050E00E94B700182F82EE18
:100220000E94B200812F1F910895EF92FF921F93B9
:10023000CF93DF93EC01009711F480E032C010E01F
:1002400080E0E82E81E0F82E20C000D000D000D061
:10025000EDB7FEB73196ADB7BEB71296FC92EE92EF
:10026000119712831382A989BA89A80FB91F8C919B
:10027000848315820E9400041F5F8DB79EB7069687
:100280000FB6F8949EBF0FBE8DBF812F90E04B85B7
:100290005C8584179507C8F269897A8980EA0E948B
:1002A000DE00DF91CF911F91FF90EF90089580E2E3
:1002B00062E00E949F000895FC01009709F44DC080
:1002C00080818823C1F45E9880E26CE00E949F00E8
:1002D00084E26FEF0E949F0081E364E00E949F0030
:1002E0008CE361E00E949F008DE365E00E949F0027
:1002F00080E26EE02FC05E9880E26DE00E949F0079
:1003000082E26FE30E949F0084E26FEF0E949F00F1
:1003100081E364E00E949F0082E364E00E949F000A
:1003200083E364E00E949F0084E364E00E949F00F6
:1003300085E364E00E949F0086E364E00E949F00E2
:100340008CE36FE30E949F008DE365E00E949F00B5
:1003500080E26FE00E949F005E9A80E00895FC01B9
:1003600080818093AB0281818093AC0282818093F3
:10037000AD0208951092AB021092AC021092AD0241
:1003800008959091A20220E030E0F901E354FD4F7E
:10039000892F820F80832F5F3F4F24303105A9F7CB
:1003A0009C5F9093A2028DEB92E09093F202809377
:1003B000F1023093EC022093EB0280EE92E008957C
:1003C0008FEB84B980E58AB980E48BB95E98089593
:1003D0001F920F920FB60F9211240F931F932F931A
:1003E0003F934F935F936F937F938F939F93AF93BD
:1003F000BF93EF93FF93DF93CF930F92CDB7DEB709
:100400008FEF0E94B2008983898186FF42C00981F3
:1004100007700630D8F500D000D000D0EDB7FEB799
:1004200031968EE191E0ADB7BEB712969C938E9354
:100430001197028313828091A102848315820E9406
:1004400000048DB79EB706960FB6F8949EBF0FBEF8
:100450008DBFE091DE02F091DF020680F781E02D92
:1004600080EE92E06DED72E009958091A10280939B
:10047000E402882321F08F5F8093A1028150809352
:10048000AB0284E08093AC020093AD02898180646A
:1004900067C0898185FF24C000D000D0EDB7FEB7CA
:1004A000319688E591E0ADB7BEB712969C938E93D6
:1004B00011978091A002828313820E940004809190
:1004C000A0028093AB0281E08093AC021092AD0257
:1004D0008981806289830F900F900F900F9041C0A7
:1004E000898184FF3EC088E00E94AA00082F10E0A6
:1004F00000D000D000D0EDB7FEB731968FE791E085
:10050000ADB7BEB712969C938E9311971383028357
:100510008091A002848315820E94000484E01595D6
:1005200007958A95E1F78DB79EB706960FB6F894B2
:100530009EBF0FBE8DBF0F30110581F481EE0E946A
:10054000B20085E262E00E949F008091A002809349
:10055000AB0282E08093AC021092AD02898180618F
:100560008983698187E20E949F0078940F90CF91E0
:10057000DF91FF91EF91BF91AF919F918F917F910B
:100580006F915F914F913F912F911F910F910F901C
:100590000FBE0F901F901895AF92BF92CF92DF922F
:1005A000EF92FF920F931F93CF93DF9381E992E035
:1005B000909361038093600360EC72E180E090E0CF
:1005C0000E945D008FEB84B980E58AB980E48BB925
:1005D0005E988CE591E09093A4028093A30287E556
:1005E00091E09093A6028093A50285E191E090931B
:1005F000A8028093A70281E091E09093AA028093E1
:10060000A90283EA92E09093DF028093DE021092C7
:10061000DD02F894E898809169008093690052980F
:1006200081E08DBB78941092AB021092AC021092D4
:10063000AD028DED92E00E945C010E94C101DC01DF
:10064000009781F08091A00214968C931497E0910A
:10065000DE02F091DF020480F581E02DCD016DED29
:1006600072E009953FEDA32E31E0B32E2BE6C22EAA
:1006700022E0D22E91E3E92E92E0F92E09E110E07A
:100680008091AC02882309F490C0823051F184300B
:1006900009F445C0813009F082C09091AB0280918D
:1006A000A002981721F085EB91E00E9415040E94AA
:1006B000C101DC01009709F472C08091A0028F5F34
:1006C0008093A00214968C931497E091DE02F0912F
:1006D000DF020480F581E02DCD016DED72E009951A
:1006E0005EC09091A0028091AB02891799F000D072
:1006F00000D0EDB7FEB73196ADB7BEB71296BC923B
:10070000AE921197928313820E9400040F900F9073
:100710000F900F9080E192E00E94150440C09091EC
:10072000A1028091AB02891799F000D000D0EDB7FB
:10073000FEB73196ADB7BEB71296FC92EE92119706
:10074000928313820E9400040F900F900F900F90DD
:10075000C0E0D0E000D000D000D0EDB7FEB73196B9
:10076000ADB7BEB71296DC92CE921197D383C283F7
:10077000A091F102B091F202AC0FBD1F8C91848365
:1007800015820E94000421968DB79EB706960FB67B
:10079000F8949EBF0FBE8DBFC430D105D9F610921C
:1007A000AB021092AC021092AD0288E893E1F8011E
:1007B0003197F1F7019709F463CFF9CFA1E21A2E2F
:1007C000AA1BBB1BFD010DC0AA1FBB1FEE1FFF1FF5
:1007D000A217B307E407F50720F0A21BB30BE40B45
:1007E000F50B661F771F881F991F1A9469F760958C
:1007F0007095809590959B01AC01BD01CF01089546
:10080000A0E0B0E0E6E0F4E00C94D706FE013596F7
:10081000619171918091600390916103AF010E9499
:100820004A042096E2E00C94F3060F931F93CF93B3
:10083000DF938C01E0916003F0916103838181FF7C
:1008400021C0C0E0D0E00DC0E0916003F0916103F1
:1008500020853185BF01F9010995892B11F0CFEF72
:10086000DFEFF80181918F01882371F7E091600338
:10087000F0916103208531858AE0BF01F901099576
:10088000892B11F0CFEFDFEFCE01DF91CF911F91D8
:100890000F910895ABE0B0E0E0E5F4E00C94C706FA
:1008A0003C012B015A01FC0117821682838181FDD4
:1008B00003C06FEF7FEFC6C19AE0892E1E01089436
:1008C000211C311CF3012381F20123FD859123FFBB
:1008D00081912F01882309F4B2C1853239F423FDB7
:1008E000859123FF81912F01853229F490E0B30196
:1008F0000E943D06E7CF982FFF24EE249924FFE1C4
:10090000FF15D0F09B3269F09C3228F4903259F0F8
:10091000933291F40EC09D3249F0903369F441E076
:1009200024C052E0F52A84E0F82A28C098E0F92A89
:1009300025C0E0E1FE2A22C0F7FC29C0892F8053A0
:100940008A3070F4F6FE05C0989C902C1124980E05
:1009500015C0E89CE02C1124E80EF0E2FF2A0EC03E
:100960009E3229F4F6FC6BC140E4F42A07C09C36A1
:1009700019F450E8F52A02C0983649F4F20123FD33
:10098000959123FF91912F01992309F0B8CF892FD9
:100990008554833018F08052833038F444E050E0BE
:1009A000A40EB51E5FE359830FC0933631F0933721
:1009B00079F0933509F056C020C0F5018081898314
:1009C00042E050E0A40EB51E610101E010E012C04B
:1009D000F501C080D180F6FC03C06FEF7FEF02C04D
:1009E000692D70E042E050E0A40EB51EC6010E94E1
:1009F00032068C015FE7F52214C0F501C080D1807A
:100A0000F6FC03C06FEF7FEF02C0692D70E042E09B
:100A100050E0A40EB51EC6010E9427068C0150E8C6
:100A2000F52AF3FE07C01AC080E290E0B3010E94ED
:100A30003D06EA948E2D90E008171907A8F30EC022
:100A4000F601F7FC8591F7FE81916F0190E0B3010B
:100A50000E943D06E110EA94015010400115110575
:100A600079F7EAC0943611F0993669F5F7FE08C0B7
:100A7000F501208131814281538184E090E00AC0F8
:100A8000F501808191819C01442737FD4095542FC9
:100A900082E090E0A80EB91E9FE6F92257FF09C038
:100AA00050954095309521953F4F4F4F5F4FE0E86F
:100AB000FE2ACA01B901A1012AE030E00E946906BC
:100AC000D82ED21840C0953729F41F2D1F7E2AE05A
:100AD00030E01DC01F2D197F9F3661F0903720F444
:100AE000983509F0ACC00FC0903739F0983709F04D
:100AF000A6C004C028E030E00AC0106114FD1460F4
:100B000020E130E004C014FD166020E132E017FF60
:100B100008C0F501608171818281938144E050E0D9
:100B200008C0F50180819181BC0180E090E042E045
:100B300050E0A40EB51EA1010E946906D82ED2185D
:100B40008FE7F82EF122F6FE0BC05EEFF522D914E6
:100B500038F4F4FE07C0F2FC05C08FEEF82202C0A4
:100B60001D2D01C0192DF4FE0DC0FE01ED0DF11D6E
:100B70008081803319F499EEF92208C01F5FF2FEDC
:100B800005C003C08F2D867809F01F5F0F2DF3FC81
:100B900014C0F0FE0FC01E1510F09D2C0BC09D2C34
:100BA0009E0C911A1E2D06C080E290E0B3010E94B7
:100BB0003D061F5F1E15C0F304C01E1510F4E11A98
:100BC00001C0EE2404FF0FC080E390E0B3010E9457
:100BD0003D0602FF1DC001FD03C088E790E00EC086
:100BE00088E590E00BC0802F867891F001FF02C06D
:100BF0008BE201C080E2F7FC8DE290E0B3010E943D
:100C00003D0606C080E390E0B3010E943D069A9441
:100C1000D914C0F3DA94F101ED0DF11D808190E05B
:100C2000B3010E943D06DD20A9F706C080E290E0F6
:100C3000B3010E943D06EA94EE20C1F743CEF301D2
:100C400066817781CB012B96E2E10C94E306FC01EF
:100C50000590615070400110D8F7809590958E0FE7
:100C60009F1F0895FC016150704001900110D8F75A
:100C7000809590958E0F9F1F08950F931F93CF938C
:100C8000DF938C01EB018B8181FF1BC082FF0DC0C4
:100C90002E813F818C819D812817390764F4E8817A
:100CA000F9810193F983E88306C0E885F985802FEF
:100CB0000995892B31F48E819F8101969F838E83C4
:100CC00002C00FEF1FEFC801DF91CF911F910F916D
:100CD0000895FA01AA27283051F1203181F1E894D2
:100CE0006F936E7F6E5F7F4F8F4F9F4FAF4FB1E01F
:100CF0003ED0B4E03CD0670F781F891F9A1FA11D1A
:100D0000680F791F8A1F911DA11D6A0F711D811D1A
:100D1000911DA11D20D009F468943F912AE0269FDF
:100D200011243019305D3193DEF6CF010895462F3E
:100D30004770405D4193B3E00FD0C9F7F6CF462F1F
:100D40004F70405D4A3318F0495D31FD4052419388
:100D500002D0A9F7EACFB4E0A69597958795779545
:100D60006795BA95C9F700976105710508959B01CC
:100D7000AC010A2E06945795479537952795BA9555
:100D8000C9F7620F731F841F951FA01D08952F922E
:100D90003F924F925F926F927F928F929F92AF920B
:100DA000BF92CF92DF92EF92FF920F931F93CF9358
:100DB000DF93CDB7DEB7CA1BDB0B0FB6F894DEBFEF
:100DC0000FBECDBF09942A88398848885F846E8415
:100DD0007D848C849B84AA84B984C884DF80EE805F
:100DE000FD800C811B81AA81B981CE0FD11D0FB668
:100DF000F894DEBF0FBECDBFED010895F894FFCF8C
:100E00006E524632344C30315F786D69742C2064F8
:100E10006174615B25645D3A2025640D0A0073747A
:100E2000617475735F72785F64735F68616E646C20
:100E300065722C2072782070697065206E756D6205
:100E400065723A2025642C206973725F72785F7036
:100E500069643D25640D0A007374617475735F7471
:100E6000785F64735F68616E646C65722C2069736F
:100E7000725F74785F7069643A2025640D0A0073AC
:100E800074617475735F6D61785F72745F68616EB1
:100E9000646C65722C20706C6F73636E743A30787A
:100EA00025782C206973725F74785F7069643A20CA
:100EB00025640D0A004953543A2074785F64742CF9
:100EC000207761726E696E67212070696420697392
:100ED0006E2774206D61746368656421210D00497B
:100EE00053543A206D61785F72742C2070696420CD
:100EF00069736E2774206D617463686564212C20AA
:100F00006973725F74785F7069643D25640D0A00CF
:100F10004953543A206D61785F72742C2063617478
:100F2000636820746865206D617820727421210DDA
:100F3000004953543A2072785F64722C20776172B2
:100F40006E696E6721207069642069736E27742052
:100F50006D61746368656421212C206973725F720E
:100F6000785F7069643D25640D0A004953543A2046
:100F700072785F64722C206C67625F6275665B30AA
:100F80005D2E646174615B25645D3A2025640D0A01
:100F900000000000020000000073000000000000DC
:00000001FF
